{
  "address": "0xDD24D69a19734cF35175A09Aeda3dc8da3Efc3ca",
  "abi": [
    {
      "inputs": [
        {
          "internalType": "address",
          "name": "_tokenImplementation",
          "type": "address"
        }
      ],
      "stateMutability": "nonpayable",
      "type": "constructor"
    },
    {
      "inputs": [],
      "name": "AddressIsNotContract",
      "type": "error"
    },
    {
      "inputs": [],
      "name": "AddressZero",
      "type": "error"
    },
    {
      "anonymous": false,
      "inputs": [
        {
          "indexed": true,
          "internalType": "address",
          "name": "token",
          "type": "address"
        },
        {
          "indexed": true,
          "internalType": "address",
          "name": "implementation",
          "type": "address"
        },
        {
          "indexed": true,
          "internalType": "address",
          "name": "owner",
          "type": "address"
        }
      ],
      "name": "EquityTokenCreated",
      "type": "event"
    },
    {
      "anonymous": false,
      "inputs": [
        {
          "indexed": true,
          "internalType": "address",
          "name": "previousOwner",
          "type": "address"
        },
        {
          "indexed": true,
          "internalType": "address",
          "name": "newOwner",
          "type": "address"
        }
      ],
      "name": "OwnershipTransferred",
      "type": "event"
    },
    {
      "anonymous": false,
      "inputs": [
        {
          "indexed": true,
          "internalType": "address",
          "name": "oldImplementation",
          "type": "address"
        },
        {
          "indexed": true,
          "internalType": "address",
          "name": "newImplementation",
          "type": "address"
        }
      ],
      "name": "TokenImplementationChanged",
      "type": "event"
    },
    {
      "inputs": [
        {
          "internalType": "string",
          "name": "_name",
          "type": "string"
        },
        {
          "internalType": "string",
          "name": "_symbol",
          "type": "string"
        },
        {
          "internalType": "address",
          "name": "_tokenOwner",
          "type": "address"
        }
      ],
      "name": "createToken",
      "outputs": [
        {
          "internalType": "address",
          "name": "token",
          "type": "address"
        }
      ],
      "stateMutability": "nonpayable",
      "type": "function"
    },
    {
      "inputs": [],
      "name": "owner",
      "outputs": [
        {
          "internalType": "address",
          "name": "",
          "type": "address"
        }
      ],
      "stateMutability": "view",
      "type": "function"
    },
    {
      "inputs": [],
      "name": "renounceOwnership",
      "outputs": [],
      "stateMutability": "nonpayable",
      "type": "function"
    },
    {
      "inputs": [
        {
          "internalType": "address",
          "name": "newImplementation",
          "type": "address"
        }
      ],
      "name": "setTokenImplementation",
      "outputs": [],
      "stateMutability": "nonpayable",
      "type": "function"
    },
    {
      "inputs": [],
      "name": "tokenImplementation",
      "outputs": [
        {
          "internalType": "address",
          "name": "",
          "type": "address"
        }
      ],
      "stateMutability": "view",
      "type": "function"
    },
    {
      "inputs": [
        {
          "internalType": "address",
          "name": "newOwner",
          "type": "address"
        }
      ],
      "name": "transferOwnership",
      "outputs": [],
      "stateMutability": "nonpayable",
      "type": "function"
    }
  ],
  "transactionHash": "0xade8e17c20eeeb2fb10e1a31e2d41704c49a6c13eed2a747cf6d6e8c96f2d154",
  "args": [
    "0x583bD76b1f02a70525A06A126F72EC7377152B28"
  ],
  "numDeployments": 1,
  "solcInputHash": "a56bc86e7b8b5dd3e0e0e2578067c794",
  "bytecode": "0x6080346100c057601f6106b938819003918201601f19168301916001600160401b038311848410176100c5578084926020946040528339810103126100c057516001600160a01b03808216918290036100c0576000549060018060a01b0319913383821617600055604051913391167f8be0079c531659141344cd1fd0a4f28419497f9722a3daafe3b4186f6b6457e0600080a382156100b1575060015416176001556040516105dd90816100dc8239f35b639fabe1c160e01b8152600490fd5b600080fd5b634e487b7160e01b600052604160045260246000fdfe6080604081815260048036101561001557600080fd5b600092833560e01c9081632f3a3d5d1461045657508063715018a6146103f957806388282e2a146103735780638da5cb5b1461034b578063afd8fd5f146101345763f2fde38b1461006557600080fd5b346101305760203660031901126101305761007e61047b565b9061008761050f565b6001600160a01b039182169283156100de575050600054826bffffffffffffffffffffffff60a01b821617600055167f8be0079c531659141344cd1fd0a4f28419497f9722a3daafe3b4186f6b6457e0600080a380f35b906020608492519162461bcd60e51b8352820152602660248201527f4f776e61626c653a206e6577206f776e657220697320746865207a65726f206160448201526564647265737360d01b6064820152fd5b8280fd5b5091903461034757600319906060368301126101305767ffffffffffffffff9084358281116103435761016a9036908701610496565b9460243583811161033f576101829036908301610496565b6001600160a01b039660443588811695919086900361033b576101a361050f565b851561032b57600154608881901c62ffffff16763d602d80600a3d3981f3363d3d373d3d3d363d7300000017895260781b6effffffffffffffffffffffffffffff19166e5af43d82803e903d91602b57fd5bf31760205288603760098af0169687156102ef57873b156102eb5785516303bf912560e11b81526060868201529389928592839261024a9261023b906064860190610567565b91848303016024850152610567565b8860448301520381838a5af180156102e157610296575b505050827febe8f08ab34cfd0454f3139538ffbd8f96007ff0a9df1c68e6ea4b73d0c801cf6020966001541692519580a48152f35b8197969297116102ce578252939450827febe8f08ab34cfd0454f3139538ffbd8f96007ff0a9df1c68e6ea4b73d0c801cf6020610261565b634e487b7160e01b825260418752602482fd5b84513d89823e3d90fd5b8880fd5b855162461bcd60e51b81526020818701526016602482015275115490cc4c4d8dce8818dc99585d194819985a5b195960521b6044820152606490fd5b8451639fabe1c160e01b81528490fd5b8780fd5b8580fd5b8480fd5b5080fd5b505034610347578160031936011261034757905490516001600160a01b039091168152602090f35b50346101305760203660031901126101305761038d61047b565b9061039661050f565b6001600160a01b039182169283156103ec575050600154826bffffffffffffffffffffffff60a01b821617600155167f0e2bfe57527a046c08563f2c8d50439396d492670b482e4344c97a9df8459ddf8380a380f35b51639fabe1c160e01b8152fd5b833461045357806003193601126104535761041261050f565b80546001600160a01b03198116825581906001600160a01b03167f8be0079c531659141344cd1fd0a4f28419497f9722a3daafe3b4186f6b6457e08280a380f35b80fd5b8490346103475781600319360112610347576001546001600160a01b03168152602090f35b600435906001600160a01b038216820361049157565b600080fd5b81601f820112156104915780359067ffffffffffffffff928383116104f95760405193601f8401601f19908116603f01168501908111858210176104f9576040528284526020838301011161049157816000926020809301838601378301015290565b634e487b7160e01b600052604160045260246000fd5b6000546001600160a01b0316330361052357565b606460405162461bcd60e51b815260206004820152602060248201527f4f776e61626c653a2063616c6c6572206973206e6f7420746865206f776e65726044820152fd5b919082519283825260005b848110610593575050826000602080949584010152601f8019910116010190565b60208183018101518483018201520161057256fea26469706673582212209e968ac9c3a79fa0316b646bac5fa26ac35d4ec607192ecbfb645e00eb99492d64736f6c63430008120033",
  "devdoc": {
    "kind": "dev",
    "methods": {
      "owner()": {
        "details": "Returns the address of the current owner."
      },
      "renounceOwnership()": {
        "details": "Leaves the contract without owner. It will not be possible to call `onlyOwner` functions. Can only be called by the current owner. NOTE: Renouncing ownership will leave the contract without an owner, thereby disabling any functionality that is only available to the owner."
      },
      "transferOwnership(address)": {
        "details": "Transfers ownership of the contract to a new account (`newOwner`). Can only be called by the current owner."
      }
    },
    "version": 1
  },
  "userdoc": {
    "kind": "user",
    "methods": {},
    "version": 1
  },
  "storageLayout": {
    "storage": [
      {
        "astId": 4944,
        "contract": "contracts/EquityTokenFactory.sol:EquityTokenFactory",
        "label": "_owner",
        "offset": 0,
        "slot": "0",
        "type": "t_address"
      },
      {
        "astId": 10230,
        "contract": "contracts/EquityTokenFactory.sol:EquityTokenFactory",
        "label": "tokenImplementation",
        "offset": 0,
        "slot": "1",
        "type": "t_address"
      }
    ],
    "types": {
      "t_address": {
        "encoding": "inplace",
        "label": "address",
        "numberOfBytes": "20"
      }
    }
  }
}