{
  "address": "0x583bD76b1f02a70525A06A126F72EC7377152B28",
  "abi": [
    {
      "inputs": [],
      "stateMutability": "nonpayable",
      "type": "constructor"
    },
    {
      "inputs": [
        {
          "internalType": "address",
          "name": "to",
          "type": "address"
        }
      ],
      "name": "AddressNotWhitelisted",
      "type": "error"
    },
    {
      "inputs": [],
      "name": "TokenPaused",
      "type": "error"
    },
    {
      "anonymous": false,
      "inputs": [
        {
          "indexed": true,
          "internalType": "address",
          "name": "_address",
          "type": "address"
        }
      ],
      "name": "AddToWhitelist",
      "type": "event"
    },
    {
      "anonymous": false,
      "inputs": [
        {
          "indexed": true,
          "internalType": "address",
          "name": "owner",
          "type": "address"
        },
        {
          "indexed": true,
          "internalType": "address",
          "name": "spender",
          "type": "address"
        },
        {
          "indexed": false,
          "internalType": "uint256",
          "name": "value",
          "type": "uint256"
        }
      ],
      "name": "Approval",
      "type": "event"
    },
    {
      "anonymous": false,
      "inputs": [],
      "name": "EIP712DomainChanged",
      "type": "event"
    },
    {
      "anonymous": false,
      "inputs": [
        {
          "indexed": false,
          "internalType": "uint8",
          "name": "version",
          "type": "uint8"
        }
      ],
      "name": "Initialized",
      "type": "event"
    },
    {
      "anonymous": false,
      "inputs": [
        {
          "indexed": false,
          "internalType": "address",
          "name": "account",
          "type": "address"
        }
      ],
      "name": "Paused",
      "type": "event"
    },
    {
      "anonymous": false,
      "inputs": [
        {
          "indexed": true,
          "internalType": "address",
          "name": "_address",
          "type": "address"
        }
      ],
      "name": "RemoveFromWhitelist",
      "type": "event"
    },
    {
      "anonymous": false,
      "inputs": [
        {
          "indexed": true,
          "internalType": "bytes32",
          "name": "role",
          "type": "bytes32"
        },
        {
          "indexed": true,
          "internalType": "bytes32",
          "name": "previousAdminRole",
          "type": "bytes32"
        },
        {
          "indexed": true,
          "internalType": "bytes32",
          "name": "newAdminRole",
          "type": "bytes32"
        }
      ],
      "name": "RoleAdminChanged",
      "type": "event"
    },
    {
      "anonymous": false,
      "inputs": [
        {
          "indexed": true,
          "internalType": "bytes32",
          "name": "role",
          "type": "bytes32"
        },
        {
          "indexed": true,
          "internalType": "address",
          "name": "account",
          "type": "address"
        },
        {
          "indexed": true,
          "internalType": "address",
          "name": "sender",
          "type": "address"
        }
      ],
      "name": "RoleGranted",
      "type": "event"
    },
    {
      "anonymous": false,
      "inputs": [
        {
          "indexed": true,
          "internalType": "bytes32",
          "name": "role",
          "type": "bytes32"
        },
        {
          "indexed": true,
          "internalType": "address",
          "name": "account",
          "type": "address"
        },
        {
          "indexed": true,
          "internalType": "address",
          "name": "sender",
          "type": "address"
        }
      ],
      "name": "RoleRevoked",
      "type": "event"
    },
    {
      "anonymous": false,
      "inputs": [
        {
          "indexed": true,
          "internalType": "address",
          "name": "from",
          "type": "address"
        },
        {
          "indexed": true,
          "internalType": "address",
          "name": "to",
          "type": "address"
        },
        {
          "indexed": false,
          "internalType": "uint256",
          "name": "value",
          "type": "uint256"
        }
      ],
      "name": "Transfer",
      "type": "event"
    },
    {
      "anonymous": false,
      "inputs": [
        {
          "indexed": false,
          "internalType": "address",
          "name": "account",
          "type": "address"
        }
      ],
      "name": "Unpaused",
      "type": "event"
    },
    {
      "inputs": [],
      "name": "DEFAULT_ADMIN_ROLE",
      "outputs": [
        {
          "internalType": "bytes32",
          "name": "",
          "type": "bytes32"
        }
      ],
      "stateMutability": "view",
      "type": "function"
    },
    {
      "inputs": [],
      "name": "DOMAIN_SEPARATOR",
      "outputs": [
        {
          "internalType": "bytes32",
          "name": "",
          "type": "bytes32"
        }
      ],
      "stateMutability": "view",
      "type": "function"
    },
    {
      "inputs": [],
      "name": "MINTER_ROLE",
      "outputs": [
        {
          "internalType": "bytes32",
          "name": "",
          "type": "bytes32"
        }
      ],
      "stateMutability": "view",
      "type": "function"
    },
    {
      "inputs": [],
      "name": "OWNER_ROLE",
      "outputs": [
        {
          "internalType": "bytes32",
          "name": "",
          "type": "bytes32"
        }
      ],
      "stateMutability": "view",
      "type": "function"
    },
    {
      "inputs": [
        {
          "internalType": "address",
          "name": "_address",
          "type": "address"
        }
      ],
      "name": "addToWhitelist",
      "outputs": [],
      "stateMutability": "nonpayable",
      "type": "function"
    },
    {
      "inputs": [
        {
          "internalType": "address",
          "name": "owner",
          "type": "address"
        },
        {
          "internalType": "address",
          "name": "spender",
          "type": "address"
        }
      ],
      "name": "allowance",
      "outputs": [
        {
          "internalType": "uint256",
          "name": "",
          "type": "uint256"
        }
      ],
      "stateMutability": "view",
      "type": "function"
    },
    {
      "inputs": [
        {
          "internalType": "address",
          "name": "spender",
          "type": "address"
        },
        {
          "internalType": "uint256",
          "name": "amount",
          "type": "uint256"
        }
      ],
      "name": "approve",
      "outputs": [
        {
          "internalType": "bool",
          "name": "",
          "type": "bool"
        }
      ],
      "stateMutability": "nonpayable",
      "type": "function"
    },
    {
      "inputs": [
        {
          "internalType": "address",
          "name": "account",
          "type": "address"
        }
      ],
      "name": "balanceOf",
      "outputs": [
        {
          "internalType": "uint256",
          "name": "",
          "type": "uint256"
        }
      ],
      "stateMutability": "view",
      "type": "function"
    },
    {
      "inputs": [
        {
          "internalType": "address",
          "name": "_customer",
          "type": "address"
        },
        {
          "internalType": "uint256",
          "name": "_amount",
          "type": "uint256"
        }
      ],
      "name": "burnShares",
      "outputs": [],
      "stateMutability": "nonpayable",
      "type": "function"
    },
    {
      "inputs": [
        {
          "internalType": "address",
          "name": "_customer",
          "type": "address"
        },
        {
          "internalType": "uint256",
          "name": "_amount",
          "type": "uint256"
        }
      ],
      "name": "createShares",
      "outputs": [],
      "stateMutability": "nonpayable",
      "type": "function"
    },
    {
      "inputs": [],
      "name": "decimals",
      "outputs": [
        {
          "internalType": "uint8",
          "name": "",
          "type": "uint8"
        }
      ],
      "stateMutability": "view",
      "type": "function"
    },
    {
      "inputs": [
        {
          "internalType": "address",
          "name": "spender",
          "type": "address"
        },
        {
          "internalType": "uint256",
          "name": "subtractedValue",
          "type": "uint256"
        }
      ],
      "name": "decreaseAllowance",
      "outputs": [
        {
          "internalType": "bool",
          "name": "",
          "type": "bool"
        }
      ],
      "stateMutability": "nonpayable",
      "type": "function"
    },
    {
      "inputs": [],
      "name": "eip712Domain",
      "outputs": [
        {
          "internalType": "bytes1",
          "name": "fields",
          "type": "bytes1"
        },
        {
          "internalType": "string",
          "name": "name",
          "type": "string"
        },
        {
          "internalType": "string",
          "name": "version",
          "type": "string"
        },
        {
          "internalType": "uint256",
          "name": "chainId",
          "type": "uint256"
        },
        {
          "internalType": "address",
          "name": "verifyingContract",
          "type": "address"
        },
        {
          "internalType": "bytes32",
          "name": "salt",
          "type": "bytes32"
        },
        {
          "internalType": "uint256[]",
          "name": "extensions",
          "type": "uint256[]"
        }
      ],
      "stateMutability": "view",
      "type": "function"
    },
    {
      "inputs": [
        {
          "internalType": "bytes32",
          "name": "role",
          "type": "bytes32"
        }
      ],
      "name": "getRoleAdmin",
      "outputs": [
        {
          "internalType": "bytes32",
          "name": "",
          "type": "bytes32"
        }
      ],
      "stateMutability": "view",
      "type": "function"
    },
    {
      "inputs": [
        {
          "internalType": "bytes32",
          "name": "role",
          "type": "bytes32"
        },
        {
          "internalType": "address",
          "name": "account",
          "type": "address"
        }
      ],
      "name": "grantRole",
      "outputs": [],
      "stateMutability": "nonpayable",
      "type": "function"
    },
    {
      "inputs": [
        {
          "internalType": "bytes32",
          "name": "role",
          "type": "bytes32"
        },
        {
          "internalType": "address",
          "name": "account",
          "type": "address"
        }
      ],
      "name": "hasRole",
      "outputs": [
        {
          "internalType": "bool",
          "name": "",
          "type": "bool"
        }
      ],
      "stateMutability": "view",
      "type": "function"
    },
    {
      "inputs": [
        {
          "internalType": "address",
          "name": "spender",
          "type": "address"
        },
        {
          "internalType": "uint256",
          "name": "addedValue",
          "type": "uint256"
        }
      ],
      "name": "increaseAllowance",
      "outputs": [
        {
          "internalType": "bool",
          "name": "",
          "type": "bool"
        }
      ],
      "stateMutability": "nonpayable",
      "type": "function"
    },
    {
      "inputs": [
        {
          "internalType": "string",
          "name": "_name",
          "type": "string"
        },
        {
          "internalType": "string",
          "name": "_symbol",
          "type": "string"
        },
        {
          "internalType": "address",
          "name": "owner",
          "type": "address"
        }
      ],
      "name": "initialize",
      "outputs": [],
      "stateMutability": "nonpayable",
      "type": "function"
    },
    {
      "inputs": [
        {
          "internalType": "address",
          "name": "_address",
          "type": "address"
        }
      ],
      "name": "isWhitelisted",
      "outputs": [
        {
          "internalType": "bool",
          "name": "",
          "type": "bool"
        }
      ],
      "stateMutability": "view",
      "type": "function"
    },
    {
      "inputs": [],
      "name": "name",
      "outputs": [
        {
          "internalType": "string",
          "name": "",
          "type": "string"
        }
      ],
      "stateMutability": "view",
      "type": "function"
    },
    {
      "inputs": [
        {
          "internalType": "address",
          "name": "owner",
          "type": "address"
        }
      ],
      "name": "nonces",
      "outputs": [
        {
          "internalType": "uint256",
          "name": "",
          "type": "uint256"
        }
      ],
      "stateMutability": "view",
      "type": "function"
    },
    {
      "inputs": [],
      "name": "pause",
      "outputs": [],
      "stateMutability": "nonpayable",
      "type": "function"
    },
    {
      "inputs": [],
      "name": "paused",
      "outputs": [
        {
          "internalType": "bool",
          "name": "",
          "type": "bool"
        }
      ],
      "stateMutability": "view",
      "type": "function"
    },
    {
      "inputs": [
        {
          "internalType": "address",
          "name": "owner",
          "type": "address"
        },
        {
          "internalType": "address",
          "name": "spender",
          "type": "address"
        },
        {
          "internalType": "uint256",
          "name": "value",
          "type": "uint256"
        },
        {
          "internalType": "uint256",
          "name": "deadline",
          "type": "uint256"
        },
        {
          "internalType": "uint8",
          "name": "v",
          "type": "uint8"
        },
        {
          "internalType": "bytes32",
          "name": "r",
          "type": "bytes32"
        },
        {
          "internalType": "bytes32",
          "name": "s",
          "type": "bytes32"
        }
      ],
      "name": "permit",
      "outputs": [],
      "stateMutability": "nonpayable",
      "type": "function"
    },
    {
      "inputs": [
        {
          "internalType": "address",
          "name": "_address",
          "type": "address"
        }
      ],
      "name": "removeFromWhitelist",
      "outputs": [],
      "stateMutability": "nonpayable",
      "type": "function"
    },
    {
      "inputs": [
        {
          "internalType": "bytes32",
          "name": "role",
          "type": "bytes32"
        },
        {
          "internalType": "address",
          "name": "account",
          "type": "address"
        }
      ],
      "name": "renounceRole",
      "outputs": [],
      "stateMutability": "nonpayable",
      "type": "function"
    },
    {
      "inputs": [
        {
          "internalType": "bytes32",
          "name": "role",
          "type": "bytes32"
        },
        {
          "internalType": "address",
          "name": "account",
          "type": "address"
        }
      ],
      "name": "revokeRole",
      "outputs": [],
      "stateMutability": "nonpayable",
      "type": "function"
    },
    {
      "inputs": [
        {
          "internalType": "bytes4",
          "name": "interfaceId",
          "type": "bytes4"
        }
      ],
      "name": "supportsInterface",
      "outputs": [
        {
          "internalType": "bool",
          "name": "",
          "type": "bool"
        }
      ],
      "stateMutability": "view",
      "type": "function"
    },
    {
      "inputs": [],
      "name": "symbol",
      "outputs": [
        {
          "internalType": "string",
          "name": "",
          "type": "string"
        }
      ],
      "stateMutability": "view",
      "type": "function"
    },
    {
      "inputs": [],
      "name": "totalSupply",
      "outputs": [
        {
          "internalType": "uint256",
          "name": "",
          "type": "uint256"
        }
      ],
      "stateMutability": "view",
      "type": "function"
    },
    {
      "inputs": [
        {
          "internalType": "address",
          "name": "to",
          "type": "address"
        },
        {
          "internalType": "uint256",
          "name": "amount",
          "type": "uint256"
        }
      ],
      "name": "transfer",
      "outputs": [
        {
          "internalType": "bool",
          "name": "",
          "type": "bool"
        }
      ],
      "stateMutability": "nonpayable",
      "type": "function"
    },
    {
      "inputs": [
        {
          "internalType": "address",
          "name": "from",
          "type": "address"
        },
        {
          "internalType": "address",
          "name": "to",
          "type": "address"
        },
        {
          "internalType": "uint256",
          "name": "amount",
          "type": "uint256"
        }
      ],
      "name": "transferFrom",
      "outputs": [
        {
          "internalType": "bool",
          "name": "",
          "type": "bool"
        }
      ],
      "stateMutability": "nonpayable",
      "type": "function"
    },
    {
      "inputs": [],
      "name": "unpause",
      "outputs": [],
      "stateMutability": "nonpayable",
      "type": "function"
    }
  ],
  "transactionHash": "0x28dc7ecd4543df008e03a4598d0f3f8c6eb5751b3b9f3036a0845e2fb0325f2c",
  "args": [],
  "numDeployments": 1,
  "solcInputHash": "a56bc86e7b8b5dd3e0e0e2578067c794",
  "bytecode": "0x608080604052346100c1576000549060ff8260081c1661006f575060ff80821603610034575b6040516128a390816100c78239f35b60ff90811916176000557f7f26b83ff96e1f2b6a682f133852f6798a09c465da95921460cefb3847402498602060405160ff8152a138610025565b62461bcd60e51b815260206004820152602760248201527f496e697469616c697a61626c653a20636f6e747261637420697320696e697469604482015266616c697a696e6760c81b6064820152608490fd5b600080fdfe608080604052600436101561001357600080fd5b60003560e01c90816301ffc9a7146119445750806306fdde03146118b0578063077f224a14611000578063095ea7b314610fda5780630f9e5bbd14610eee57806318160ddd14610ed057806323b872dd14610e12578063248a9ca314610de35780632f2ff15d14610d42578063313ce56714610d265780633644e51514610d0357806336568abe14610c715780633950935114610c205780633af32abf14610be05780633f4ba83a14610b4b5780635c975abb14610b2757806370a0823114610aed5780637ecebe0014610ab35780638456cb5914610a1f57806384b0196e146109025780638ab1d6811461086957806391d148541461081c57806395d89b4114610748578063a217fddf1461072c578063a457c2d714610685578063a9059cbb14610654578063d505accf1461049b578063d539139314610460578063d547741f1461041f578063dd62ed3e146103ce578063e43252d714610364578063e58378bb146103295763ee7a7c041461018a57600080fd5b34610324576040366003190112610324576101a3611a71565b602435906101af611a9d565b6001600160a01b031680156102d55760ff61013054166102c357600080526101626020527fd3963e8e1761c638694d3c60d54f123240f3fe953a68debc0fa797faeeb01d0f5460ff16156102aa578060005260336020526040600020549180831061025a576020817fddf252ad1be2c89b69c2b068fc378daa952ba7f163c4a11628f55a4df523b3ef92600095858752603384520360408620558060355403603555604051908152a3005b60405162461bcd60e51b815260206004820152602260248201527f45524332303a206275726e20616d6f756e7420657863656564732062616c616e604482015261636560f01b6064820152608490fd5b60405163eadb950f60e01b815260006004820152602490fd5b60405163e779249560e01b8152600490fd5b60405162461bcd60e51b815260206004820152602160248201527f45524332303a206275726e2066726f6d20746865207a65726f206164647265736044820152607360f81b6064820152608490fd5b600080fd5b346103245760003660031901126103245760206040517fb19546dff01e856fb3f010c267a7b1c60363cf8a4664e21cc89c26224620214e8152f35b346103245760203660031901126103245761037d611a71565b610385611cb8565b6001600160a01b0316600081815261016260205260408120805460ff191660011790557f75b2135d1c8c3519f3c09c43fe6527089ef09f40c7981ebf0ed46e79e79032c79080a2005b34610324576040366003190112610324576103e7611a71565b6103ef611a87565b9060018060a01b038091166000526034602052604060002091166000526020526020604060002054604051908152f35b346103245760403660031901126103245761045e60043561043e611a87565b908060005260fe602052610459600160406000200154611dfd565b611f08565b005b346103245760003660031901126103245760206040517f9f2df0fed2c77648de5860a4cc508cd0818c85b8b8a1ab4ceeef8d981c8956a68152f35b346103245760e0366003190112610324576104b4611a71565b6104bc611a87565b6044359060843560643560ff821682036103245780421161060f5760018060a01b0390818616928360005260996020526040600020908154916001830190556040519260208401927f6e71edae12b1b97f4d1f60370fef10105fa2faae0126114a169c64845d6126c98452866040860152858816606086015288608086015260a085015260c084015260c0835260e08301918383106001600160401b038411176105f9576105a59361059d936040525190206105766126a7565b906040519161190160f01b83526002830152602282015260c43591604260a4359220612618565b9190916124fe565b16036105b45761045e926122c7565b60405162461bcd60e51b815260206004820152601e60248201527f45524332305065726d69743a20696e76616c6964207369676e617475726500006044820152606490fd5b634e487b7160e01b600052604160045260246000fd5b60405162461bcd60e51b815260206004820152601d60248201527f45524332305065726d69743a206578706972656420646561646c696e650000006044820152606490fd5b346103245760403660031901126103245761067a610670611a71565b6024359033612120565b602060405160018152f35b346103245760403660031901126103245761069e611a71565b60243590336000526034602052604060002060018060a01b038216600052602052604060002054918083106106d95761067a920390336122c7565b60405162461bcd60e51b815260206004820152602560248201527f45524332303a2064656372656173656420616c6c6f77616e63652062656c6f77604482015264207a65726f60d81b6064820152608490fd5b3461032457600036600319011261032457602060405160008152f35b3461032457600036600319011261032457604051600060375461076a81611f7e565b808452906001908181169081156107f557506001146107ac575b6107a884610794818603826119fa565b6040519182916020835260208301906119ba565b0390f35b60376000908152925060008051602061284e8339815191525b8284106107dd57505050810160200161079482610784565b805460208587018101919091529093019281016107c5565b60ff191660208087019190915292151560051b850190920192506107949150839050610784565b3461032457604036600319011261032457610835611a87565b60043560005260fe60205260406000209060018060a01b0316600052602052602060ff604060002054166040519015158152f35b3461032457602036600319011261032457610882611a71565b61088a611cb8565b6001600160a01b03166000818152610162602081905260409091205460ff16156108e95781600052602052604060002060ff1981541690557f1f756c8b089af6b33ee121fee8badac2553a2fa89c0575ea91ff8792617746c2600080a2005b60405163eadb950f60e01b815260048101839052602490fd5b34610324576000366003190112610324576065541580610a15575b156109d85761092a611fb8565b610932612064565b6040516020808201928284106001600160401b038511176105f957918161098b859461097d979660405260008452604051978897600f60f81b895260e0858a015260e08901906119ba565b9087820360408901526119ba565b91466060870152306080870152600060a087015285830360c0870152519182815201929160005b8281106109c157505050500390f35b8351855286955093810193928101926001016109b2565b60405162461bcd60e51b81526020600482015260156024820152741152540dcc4c8e88155b9a5b9a5d1a585b1a5e9959605a1b6044820152606490fd5b506066541561091d565b3461032457600036600319011261032457610a38611cb8565b610130805460ff8116610a7b5760019060ff19161790557f62e78cea01bee320cd4e420270b5ea74000d11b0c9f74754ebdbfc544b05a2586020604051338152a1005b60405162461bcd60e51b815260206004820152601060248201526f14185d5cd8589b194e881c185d5cd95960821b6044820152606490fd5b34610324576020366003190112610324576001600160a01b03610ad4611a71565b1660005260996020526020604060002054604051908152f35b34610324576020366003190112610324576001600160a01b03610b0e611a71565b1660005260336020526020604060002054604051908152f35b3461032457600036600319011261032457602060ff61013054166040519015158152f35b3461032457600036600319011261032457610b64611cb8565b610130805460ff811615610ba45760ff191690557f5db9ee0a495bf2e6ff9c91a7834c1ba4fdd244a5e8aa4e537bd38aeae4b073aa6020604051338152a1005b60405162461bcd60e51b815260206004820152601460248201527314185d5cd8589b194e881b9bdd081c185d5cd95960621b6044820152606490fd5b34610324576020366003190112610324576001600160a01b03610c01611a71565b16600052610162602052602060ff604060002054166040519015158152f35b346103245760403660031901126103245761067a610c3c611a71565b336000526034602052604060002060018060a01b038216600052602052610c6a6024356040600020546120fd565b90336122c7565b3461032457604036600319011261032457610c8a611a87565b336001600160a01b03821603610ca65761045e90600435611f08565b60405162461bcd60e51b815260206004820152602f60248201527f416363657373436f6e74726f6c3a2063616e206f6e6c792072656e6f756e636560448201526e103937b632b9903337b91039b2b63360891b6064820152608490fd5b34610324576000366003190112610324576020610d1e6126a7565b604051908152f35b3461032457600036600319011261032457602060405160128152f35b3461032457604036600319011261032457600435610d5e611a87565b8160005260fe602052610d78600160406000200154611dfd565b8160005260fe60205260406000209060018060a01b0316908160005260205260ff6040600020541615610da757005b8160005260fe6020526040600020816000526020526040600020600160ff1982541617905533916000805160206127ee833981519152600080a4005b346103245760203660031901126103245760043560005260fe6020526020600160406000200154604051908152f35b3461032457606036600319011261032457610e2b611a71565b610e33611a87565b6044359060018060a01b0383166000526034602052604060002033600052602052604060002054926000198403610e6f575b61067a9350612120565b828410610e8b57610e868361067a950333836122c7565b610e65565b60405162461bcd60e51b815260206004820152601d60248201527f45524332303a20696e73756666696369656e7420616c6c6f77616e63650000006044820152606490fd5b34610324576000366003190112610324576020603554604051908152f35b3461032457604036600319011261032457610f07611a71565b60243590610f13611a9d565b6001600160a01b0316908115610f955760ff61013054166102c3578160005261016260205260ff60406000205416156108e9577fddf252ad1be2c89b69c2b068fc378daa952ba7f163c4a11628f55a4df523b3ef602082610f786000946035546120fd565b6035558484526033825260408420818154019055604051908152a3005b60405162461bcd60e51b815260206004820152601f60248201527f45524332303a206d696e7420746f20746865207a65726f2061646472657373006044820152606490fd5b346103245760403660031901126103245761067a610ff6611a71565b60243590336122c7565b34610324576060366003190112610324576004356001600160401b03811161032457611030903690600401611a1b565b6024356001600160401b0381116103245761104f903690600401611a1b565b906044356001600160a01b03811681036103245760005460ff8160081c1615908180926118a3575b801561188c575b156118305760ff1981166001176000558161181e575b506110af60ff60005460081c166110aa8161278d565b61278d565b82516001600160401b0381116105f9576110ca603654611f7e565b601f81116117b1575b50806020601f821160011461173e57600091611733575b508160011b916000199060031b1c1916176036555b83516001600160401b0381116105f95761111a603754611f7e565b601f81116116c6575b506020601f8211600114611651578192939495600092611646575b50508160011b916000199060031b1c1916176037555b60ff60005460081c16916111678361278d565b6040519260408401908482106001600160401b038311176105f95761119c9160405260018552603160f81b602086015261278d565b83516001600160401b0381116105f9576111b7606754611f7e565b601f81116115d9575b506020601f8211600114611564578192939495600092611559575b50508160011b916000199060031b1c1916176067555b82516001600160401b0381116105f95761120c606854611f7e565b601f81116114f4575b506020601f82116001146114705781929394600092611465575b50508160011b916000199060031b1c1916176068555b6000606555600060665561127d60ff60005460081c166112648161278d565b61126d8161278d565b610130805460ff1916905561278d565b6001600160a01b03811660009081527f32796e36004994222362c2f9423d5e208bb848170964890784a8d59ed40f50af602052604090205460fe919060ff1615611421575b7fb19546dff01e856fb3f010c267a7b1c60363cf8a4664e21cc89c26224620214e6000818152602084815260408083206001600160a01b038616845290915290205460ff16156113d5575b50507f9f2df0fed2c77648de5860a4cc508cd0818c85b8b8a1ab4ceeef8d981c8956a690816000528060205260406000203360005260205260ff6040600020541615611394575b505061135c57005b61ff0019600054166000557f7f26b83ff96e1f2b6a682f133852f6798a09c465da95921460cefb3847402498602060405160018152a1005b816000526020526040600020336000526020526040600020600160ff19825416179055339033906000805160206127ee833981519152600080a48180611354565b6000818152602084815260408083206001600160a01b0395909516808452949091528120805460ff19166001179055339291906000805160206127ee8339815191529080a4828061130d565b6000808052602083815260408083206001600160a01b03851680855292528220805460ff1916600117905533916000805160206127ee8339815191528180a46112c2565b01519050848061122f565b601f1982169060686000527fa2153420d844928b4421650203c77babc8b33d7f2e7b450e2966db0c220977539160005b8181106114dc575095836001959697106114c3575b505050811b01606855611245565b015160001960f88460031b161c191690558480806114b5565b9192602060018192868b0151815501940192016114a0565b60686000527fa2153420d844928b4421650203c77babc8b33d7f2e7b450e2966db0c22097753601f830160051c8101916020841061154f575b601f0160051c01905b8181106115435750611215565b60008155600101611536565b909150819061152d565b0151905085806111db565b606760005260008051602061282e8339815191529060005b601f19841681106115c1575060019394959683601f198116106115a8575b505050811b016067556111f1565b015160001960f88460031b161c1916905585808061159a565b9091602060018192858b01518155019301910161157c565b6067600052601f820160051c60008051602061282e833981519152019060208310611630575b601f0160051c60008051602061282e83398151915201905b81811061162457506111c0565b60008155600101611617565b60008051602061282e83398151915291506115ff565b01519050858061113e565b603760005260008051602061284e8339815191529060005b601f19841681106116ae575060019394959683601f19811610611695575b505050811b01603755611154565b015160001960f88460031b161c19169055858080611687565b9091602060018192858b015181550193019101611669565b6037600052601f820160051c60008051602061284e83398151915201906020831061171d575b601f0160051c60008051602061284e83398151915201905b8181106117115750611123565b60008155600101611704565b60008051602061284e83398151915291506116ec565b9050840151866110ea565b9150603660005260008051602061280e8339815191526000925b601f1983168410611799576001935082601f19811610611780575b5050811b016036556110ff565b86015160001960f88460031b161c191690558680611773565b86810151825560209384019360019092019101611758565b6036600052601f820160051c60008051602061280e833981519152019060208310611808575b601f0160051c60008051602061280e83398151915201905b8181106117fc57506110d3565b600081556001016117ef565b60008051602061280e83398151915291506117d7565b61ffff19166101011760005584611094565b60405162461bcd60e51b815260206004820152602e60248201527f496e697469616c697a61626c653a20636f6e747261637420697320616c72656160448201526d191e481a5b9a5d1a585b1a5e995960921b6064820152608490fd5b50303b15801561107e5750600160ff82161461107e565b50600160ff821610611077565b346103245760003660031901126103245760405160006036546118d281611f7e565b808452906001908181169081156107f557506001146118fb576107a884610794818603826119fa565b60366000908152925060008051602061280e8339815191525b82841061192c57505050810160200161079482610784565b80546020858701810191909152909301928101611914565b34610324576020366003190112610324576004359063ffffffff60e01b821680920361032457602091637965db0b60e01b8114908115611986575b5015158152f35b6301ffc9a760e01b1490508361197f565b60005b8381106119aa5750506000910152565b818101518382015260200161199a565b906020916119d381518092818552858086019101611997565b601f01601f1916010190565b608081019081106001600160401b038211176105f957604052565b90601f801991011681019081106001600160401b038211176105f957604052565b81601f82011215610324578035906001600160401b0382116105f95760405192611a4f601f8401601f1916602001856119fa565b8284526020838301011161032457816000926020809301838601378301015290565b600435906001600160a01b038216820361032457565b602435906001600160a01b038216820361032457565b3360009081527fc7ebd374004e8c3a78019ed32c1f69f502e1ff9a29b91525f6ac0071f812073e602090815260408083205490927f9f2df0fed2c77648de5860a4cc508cd0818c85b8b8a1ab4ceeef8d981c8956a69160ff1615611b015750505050565b611b0a336123f0565b91845190611b17826119df565b60428252848201926060368537825115611ca45760308453825190600191821015611ca45790607860218501536041915b818311611c3657505050611bf4576048611bf0938693611bd493611bc5985198899376020b1b1b2b9b9a1b7b73a3937b61d1030b1b1b7bab73a1604d1b8a860152611b9c815180928c603789019101611997565b8401917001034b99036b4b9b9b4b733903937b6329607d1b603784015251809386840190611997565b010360288101875201856119fa565b5192839262461bcd60e51b8452600484015260248301906119ba565b0390fd5b60648486519062461bcd60e51b825280600483015260248201527f537472696e67733a20686578206c656e67746820696e73756666696369656e746044820152fd5b909192600f81166010811015611c90576f181899199a1a9b1b9c1cb0b131b232b360811b901a611c6685876123c9565b5360041c928015611c7c57600019019190611b48565b634e487b7160e01b82526011600452602482fd5b634e487b7160e01b83526032600452602483fd5b634e487b7160e01b81526032600452602490fd5b3360009081527f179806555f429fdc449802d3540350eb3e90dbab78e15b5ed3ea1f59885419d3602090815260408083205490927fb19546dff01e856fb3f010c267a7b1c60363cf8a4664e21cc89c26224620214e9160ff1615611d1c5750505050565b611d25336123f0565b91845190611d32826119df565b60428252848201926060368537825115611ca45760308453825190600191821015611ca45790607860218501536041915b818311611db757505050611bf4576048611bf0938693611bd493611bc5985198899376020b1b1b2b9b9a1b7b73a3937b61d1030b1b1b7bab73a1604d1b8a860152611b9c815180928c603789019101611997565b909192600f81166010811015611c90576f181899199a1a9b1b9c1cb0b131b232b360811b901a611de785876123c9565b5360041c928015611c7c57600019019190611d63565b60009080825260209060fe8252604092838120338252835260ff848220541615611e275750505050565b611e30336123f0565b91845190611e3d826119df565b60428252848201926060368537825115611ca45760308453825190600191821015611ca45790607860218501536041915b818311611ec257505050611bf4576048611bf0938693611bd493611bc5985198899376020b1b1b2b9b9a1b7b73a3937b61d1030b1b1b7bab73a1604d1b8a860152611b9c815180928c603789019101611997565b909192600f81166010811015611c90576f181899199a1a9b1b9c1cb0b131b232b360811b901a611ef285876123c9565b5360041c928015611c7c57600019019190611e6e565b9060009180835260fe602052604083209160018060a01b03169182845260205260ff604084205416611f3957505050565b80835260fe602052604083208284526020526040832060ff1981541690557ff6391f5c32d9c69d2a47ea670b442974b53935d1edc7fd64eb21e047a839171b339380a4565b90600182811c92168015611fae575b6020831014611f9857565b634e487b7160e01b600052602260045260246000fd5b91607f1691611f8d565b6040519060008260675491611fcc83611f7e565b808352926001908181169081156120425750600114611ff5575b50611ff3925003836119fa565b565b60676000908152915060008051602061282e8339815191525b8483106120275750611ff3935050810160200138611fe6565b81935090816020925483858a0101520191019091859261200e565b905060209250611ff394915060ff191682840152151560051b82010138611fe6565b604051906000826068549161207883611f7e565b80835292600190818116908115612042575060011461209e5750611ff3925003836119fa565b6068600090815291507fa2153420d844928b4421650203c77babc8b33d7f2e7b450e2966db0c220977535b8483106120e25750611ff3935050810160200138611fe6565b81935090816020925483858a010152019101909185926120c9565b9190820180921161210a57565b634e487b7160e01b600052601160045260246000fd5b6001600160a01b0390811691821561227457169182156122235760ff61013054166102c357600083815261016260205260409060ff82822054161561220b578381526033602052818120548381106121b85791808285602095887fddf252ad1be2c89b69c2b068fc378daa952ba7f163c4a11628f55a4df523b3ef9896526033875203828220558781522082815401905551908152a3565b825162461bcd60e51b815260206004820152602660248201527f45524332303a207472616e7366657220616d6f756e7420657863656564732062604482015265616c616e636560d01b6064820152608490fd5b815163eadb950f60e01b815260048101869052602490fd5b60405162461bcd60e51b815260206004820152602360248201527f45524332303a207472616e7366657220746f20746865207a65726f206164647260448201526265737360e81b6064820152608490fd5b60405162461bcd60e51b815260206004820152602560248201527f45524332303a207472616e736665722066726f6d20746865207a65726f206164604482015264647265737360d81b6064820152608490fd5b6001600160a01b0390811691821561237857169182156123285760207f8c5be1e5ebec7d5bd14f71427d1e84f3dd0314c0f7b2291e5b200ac8c7c3b925918360005260348252604060002085600052825280604060002055604051908152a3565b60405162461bcd60e51b815260206004820152602260248201527f45524332303a20617070726f766520746f20746865207a65726f206164647265604482015261737360f01b6064820152608490fd5b60405162461bcd60e51b8152602060048201526024808201527f45524332303a20617070726f76652066726f6d20746865207a65726f206164646044820152637265737360e01b6064820152608490fd5b9081518110156123da570160200190565b634e487b7160e01b600052603260045260246000fd5b60405190606082018281106001600160401b038211176105f957604052602a82526020820160403682378251156123da576030905381516001908110156123da57607860218401536029905b80821161249057505061244c5790565b606460405162461bcd60e51b815260206004820152602060248201527f537472696e67733a20686578206c656e67746820696e73756666696369656e746044820152fd5b9091600f811660108110156124e9576f181899199a1a9b1b9c1cb0b131b232b360811b901a6124bf84866123c9565b5360041c9180156124d457600019019061243c565b60246000634e487b7160e01b81526011600452fd5b60246000634e487b7160e01b81526032600452fd5b6005811015612602578061250f5750565b6001810361255c5760405162461bcd60e51b815260206004820152601860248201527f45434453413a20696e76616c6964207369676e617475726500000000000000006044820152606490fd5b600281036125a95760405162461bcd60e51b815260206004820152601f60248201527f45434453413a20696e76616c6964207369676e6174757265206c656e677468006044820152606490fd5b6003146125b257565b60405162461bcd60e51b815260206004820152602260248201527f45434453413a20696e76616c6964207369676e6174757265202773272076616c604482015261756560f01b6064820152608490fd5b634e487b7160e01b600052602160045260246000fd5b9291907f7fffffffffffffffffffffffffffffff5d576e7357a4501ddfe92f46681b20a0831161269b5791608094939160ff602094604051948552168484015260408301526060820152600093849182805260015afa1561268e5781516001600160a01b03811615612688579190565b50600190565b50604051903d90823e3d90fd5b50505050600090600390565b6126af61271c565b6126b7612767565b6040519060208201927f8b73c3c69bb8fe3d512ecc4cf759cc79239f7b179b0ffacaa9a75d522b39400f8452604083015260608201524660808201523060a082015260a0815260c081018181106001600160401b038211176105f95760405251902090565b612724611fb8565b8051908115612734576020012090565b505060655480156127425790565b507fc5d2460186f7233c927e7db2dcc703c0e500b653ca82273b7bfad8045d85a47090565b61276f612064565b805190811561277f576020012090565b505060665480156127425790565b1561279457565b60405162461bcd60e51b815260206004820152602b60248201527f496e697469616c697a61626c653a20636f6e7472616374206973206e6f74206960448201526a6e697469616c697a696e6760a81b6064820152608490fdfe2f8788117e7eff1d82e926ec794901d17c78024a50270940304540a733656f0d4a11f94e20a93c79f6ec743a1954ec4fc2c08429ae2122118bf234b2185c81b89787eeb91fe3101235e4a76063c7023ecb40f923f97916639c598592fa30d6ae42a7b7dd785cd69714a189dffb3fd7d7174edc9ece837694ce50f7078f7c31aea2646970667358221220c9ff5497f468a083c7d5e50b4f897c093e5fb31b7e7372d744ba515ff81f527c64736f6c63430008120033",
  "devdoc": {
    "events": {
      "Approval(address,address,uint256)": {
        "details": "Emitted when the allowance of a `spender` for an `owner` is set by a call to {approve}. `value` is the new allowance."
      },
      "EIP712DomainChanged()": {
        "details": "MAY be emitted to signal that the domain could have changed."
      },
      "Initialized(uint8)": {
        "details": "Triggered when the contract has been initialized or reinitialized."
      },
      "Paused(address)": {
        "details": "Emitted when the pause is triggered by `account`."
      },
      "RoleAdminChanged(bytes32,bytes32,bytes32)": {
        "details": "Emitted when `newAdminRole` is set as ``role``'s admin role, replacing `previousAdminRole` `DEFAULT_ADMIN_ROLE` is the starting admin for all roles, despite {RoleAdminChanged} not being emitted signaling this. _Available since v3.1._"
      },
      "RoleGranted(bytes32,address,address)": {
        "details": "Emitted when `account` is granted `role`. `sender` is the account that originated the contract call, an admin role bearer except when using {AccessControl-_setupRole}."
      },
      "RoleRevoked(bytes32,address,address)": {
        "details": "Emitted when `account` is revoked `role`. `sender` is the account that originated the contract call:   - if using `revokeRole`, it is the admin role bearer   - if using `renounceRole`, it is the role bearer (i.e. `account`)"
      },
      "Transfer(address,address,uint256)": {
        "details": "Emitted when `value` tokens are moved from one account (`from`) to another (`to`). Note that `value` may be zero."
      },
      "Unpaused(address)": {
        "details": "Emitted when the pause is lifted by `account`."
      }
    },
    "kind": "dev",
    "methods": {
      "DOMAIN_SEPARATOR()": {
        "details": "Returns the domain separator used in the encoding of the signature for {permit}, as defined by {EIP712}."
      },
      "allowance(address,address)": {
        "details": "See {IERC20-allowance}."
      },
      "approve(address,uint256)": {
        "details": "See {IERC20-approve}. NOTE: If `amount` is the maximum `uint256`, the allowance is not updated on `transferFrom`. This is semantically equivalent to an infinite approval. Requirements: - `spender` cannot be the zero address."
      },
      "balanceOf(address)": {
        "details": "See {IERC20-balanceOf}."
      },
      "constructor": {
        "custom:oz-upgrades-unsafe-allow": "constructor"
      },
      "decimals()": {
        "details": "Returns the number of decimals used to get its user representation. For example, if `decimals` equals `2`, a balance of `505` tokens should be displayed to a user as `5.05` (`505 / 10 ** 2`). Tokens usually opt for a value of 18, imitating the relationship between Ether and Wei. This is the default value returned by this function, unless it's overridden. NOTE: This information is only used for _display_ purposes: it in no way affects any of the arithmetic of the contract, including {IERC20-balanceOf} and {IERC20-transfer}."
      },
      "decreaseAllowance(address,uint256)": {
        "details": "Atomically decreases the allowance granted to `spender` by the caller. This is an alternative to {approve} that can be used as a mitigation for problems described in {IERC20-approve}. Emits an {Approval} event indicating the updated allowance. Requirements: - `spender` cannot be the zero address. - `spender` must have allowance for the caller of at least `subtractedValue`."
      },
      "eip712Domain()": {
        "details": "See {EIP-5267}. _Available since v4.9._"
      },
      "getRoleAdmin(bytes32)": {
        "details": "Returns the admin role that controls `role`. See {grantRole} and {revokeRole}. To change a role's admin, use {_setRoleAdmin}."
      },
      "grantRole(bytes32,address)": {
        "details": "Grants `role` to `account`. If `account` had not been already granted `role`, emits a {RoleGranted} event. Requirements: - the caller must have ``role``'s admin role. May emit a {RoleGranted} event."
      },
      "hasRole(bytes32,address)": {
        "details": "Returns `true` if `account` has been granted `role`."
      },
      "increaseAllowance(address,uint256)": {
        "details": "Atomically increases the allowance granted to `spender` by the caller. This is an alternative to {approve} that can be used as a mitigation for problems described in {IERC20-approve}. Emits an {Approval} event indicating the updated allowance. Requirements: - `spender` cannot be the zero address."
      },
      "name()": {
        "details": "Returns the name of the token."
      },
      "nonces(address)": {
        "details": "Returns the current nonce for `owner`. This value must be included whenever a signature is generated for {permit}. Every successful call to {permit} increases ``owner``'s nonce by one. This prevents a signature from being used multiple times."
      },
      "paused()": {
        "details": "Returns true if the contract is paused, and false otherwise."
      },
      "permit(address,address,uint256,uint256,uint8,bytes32,bytes32)": {
        "details": "Sets `value` as the allowance of `spender` over ``owner``'s tokens, given ``owner``'s signed approval. IMPORTANT: The same issues {IERC20-approve} has related to transaction ordering also apply here. Emits an {Approval} event. Requirements: - `spender` cannot be the zero address. - `deadline` must be a timestamp in the future. - `v`, `r` and `s` must be a valid `secp256k1` signature from `owner` over the EIP712-formatted function arguments. - the signature must use ``owner``'s current nonce (see {nonces}). For more information on the signature format, see the https://eips.ethereum.org/EIPS/eip-2612#specification[relevant EIP section]. CAUTION: See Security Considerations above."
      },
      "renounceRole(bytes32,address)": {
        "details": "Revokes `role` from the calling account. Roles are often managed via {grantRole} and {revokeRole}: this function's purpose is to provide a mechanism for accounts to lose their privileges if they are compromised (such as when a trusted device is misplaced). If the calling account had been revoked `role`, emits a {RoleRevoked} event. Requirements: - the caller must be `account`. May emit a {RoleRevoked} event."
      },
      "revokeRole(bytes32,address)": {
        "details": "Revokes `role` from `account`. If `account` had been granted `role`, emits a {RoleRevoked} event. Requirements: - the caller must have ``role``'s admin role. May emit a {RoleRevoked} event."
      },
      "supportsInterface(bytes4)": {
        "details": "See {IERC165-supportsInterface}."
      },
      "symbol()": {
        "details": "Returns the symbol of the token, usually a shorter version of the name."
      },
      "totalSupply()": {
        "details": "See {IERC20-totalSupply}."
      },
      "transfer(address,uint256)": {
        "details": "See {IERC20-transfer}. Requirements: - `to` cannot be the zero address. - the caller must have a balance of at least `amount`."
      },
      "transferFrom(address,address,uint256)": {
        "details": "See {IERC20-transferFrom}. Emits an {Approval} event indicating the updated allowance. This is not required by the EIP. See the note at the beginning of {ERC20}. NOTE: Does not update the allowance if the current allowance is the maximum `uint256`. Requirements: - `from` and `to` cannot be the zero address. - `from` must have a balance of at least `amount`. - the caller must have allowance for ``from``'s tokens of at least `amount`."
      }
    },
    "version": 1
  },
  "userdoc": {
    "kind": "user",
    "methods": {},
    "version": 1
  },
  "storageLayout": {
    "storage": [
      {
        "astId": 574,
        "contract": "contracts/EquityToken.sol:EquityToken",
        "label": "_initialized",
        "offset": 0,
        "slot": "0",
        "type": "t_uint8"
      },
      {
        "astId": 577,
        "contract": "contracts/EquityToken.sol:EquityToken",
        "label": "_initializing",
        "offset": 1,
        "slot": "0",
        "type": "t_bool"
      },
      {
        "astId": 2564,
        "contract": "contracts/EquityToken.sol:EquityToken",
        "label": "__gap",
        "offset": 0,
        "slot": "1",
        "type": "t_array(t_uint256)50_storage"
      },
      {
        "astId": 884,
        "contract": "contracts/EquityToken.sol:EquityToken",
        "label": "_balances",
        "offset": 0,
        "slot": "51",
        "type": "t_mapping(t_address,t_uint256)"
      },
      {
        "astId": 890,
        "contract": "contracts/EquityToken.sol:EquityToken",
        "label": "_allowances",
        "offset": 0,
        "slot": "52",
        "type": "t_mapping(t_address,t_mapping(t_address,t_uint256))"
      },
      {
        "astId": 892,
        "contract": "contracts/EquityToken.sol:EquityToken",
        "label": "_totalSupply",
        "offset": 0,
        "slot": "53",
        "type": "t_uint256"
      },
      {
        "astId": 894,
        "contract": "contracts/EquityToken.sol:EquityToken",
        "label": "_name",
        "offset": 0,
        "slot": "54",
        "type": "t_string_storage"
      },
      {
        "astId": 896,
        "contract": "contracts/EquityToken.sol:EquityToken",
        "label": "_symbol",
        "offset": 0,
        "slot": "55",
        "type": "t_string_storage"
      },
      {
        "astId": 1476,
        "contract": "contracts/EquityToken.sol:EquityToken",
        "label": "__gap",
        "offset": 0,
        "slot": "56",
        "type": "t_array(t_uint256)45_storage"
      },
      {
        "astId": 3253,
        "contract": "contracts/EquityToken.sol:EquityToken",
        "label": "_hashedName",
        "offset": 0,
        "slot": "101",
        "type": "t_bytes32"
      },
      {
        "astId": 3256,
        "contract": "contracts/EquityToken.sol:EquityToken",
        "label": "_hashedVersion",
        "offset": 0,
        "slot": "102",
        "type": "t_bytes32"
      },
      {
        "astId": 3258,
        "contract": "contracts/EquityToken.sol:EquityToken",
        "label": "_name",
        "offset": 0,
        "slot": "103",
        "type": "t_string_storage"
      },
      {
        "astId": 3260,
        "contract": "contracts/EquityToken.sol:EquityToken",
        "label": "_version",
        "offset": 0,
        "slot": "104",
        "type": "t_string_storage"
      },
      {
        "astId": 3518,
        "contract": "contracts/EquityToken.sol:EquityToken",
        "label": "__gap",
        "offset": 0,
        "slot": "105",
        "type": "t_array(t_uint256)48_storage"
      },
      {
        "astId": 1582,
        "contract": "contracts/EquityToken.sol:EquityToken",
        "label": "_nonces",
        "offset": 0,
        "slot": "153",
        "type": "t_mapping(t_address,t_struct(Counter)2571_storage)"
      },
      {
        "astId": 1590,
        "contract": "contracts/EquityToken.sol:EquityToken",
        "label": "_PERMIT_TYPEHASH_DEPRECATED_SLOT",
        "offset": 0,
        "slot": "154",
        "type": "t_bytes32"
      },
      {
        "astId": 1746,
        "contract": "contracts/EquityToken.sol:EquityToken",
        "label": "__gap",
        "offset": 0,
        "slot": "155",
        "type": "t_array(t_uint256)49_storage"
      },
      {
        "astId": 3563,
        "contract": "contracts/EquityToken.sol:EquityToken",
        "label": "__gap",
        "offset": 0,
        "slot": "204",
        "type": "t_array(t_uint256)50_storage"
      },
      {
        "astId": 28,
        "contract": "contracts/EquityToken.sol:EquityToken",
        "label": "_roles",
        "offset": 0,
        "slot": "254",
        "type": "t_mapping(t_bytes32,t_struct(RoleData)23_storage)"
      },
      {
        "astId": 335,
        "contract": "contracts/EquityToken.sol:EquityToken",
        "label": "__gap",
        "offset": 0,
        "slot": "255",
        "type": "t_array(t_uint256)49_storage"
      },
      {
        "astId": 758,
        "contract": "contracts/EquityToken.sol:EquityToken",
        "label": "_paused",
        "offset": 0,
        "slot": "304",
        "type": "t_bool"
      },
      {
        "astId": 863,
        "contract": "contracts/EquityToken.sol:EquityToken",
        "label": "__gap",
        "offset": 0,
        "slot": "305",
        "type": "t_array(t_uint256)49_storage"
      },
      {
        "astId": 12914,
        "contract": "contracts/EquityToken.sol:EquityToken",
        "label": "_allowedList",
        "offset": 0,
        "slot": "354",
        "type": "t_mapping(t_address,t_bool)"
      },
      {
        "astId": 10217,
        "contract": "contracts/EquityToken.sol:EquityToken",
        "label": "__gap",
        "offset": 0,
        "slot": "355",
        "type": "t_array(t_uint256)50_storage"
      }
    ],
    "types": {
      "t_address": {
        "encoding": "inplace",
        "label": "address",
        "numberOfBytes": "20"
      },
      "t_array(t_uint256)45_storage": {
        "base": "t_uint256",
        "encoding": "inplace",
        "label": "uint256[45]",
        "numberOfBytes": "1440"
      },
      "t_array(t_uint256)48_storage": {
        "base": "t_uint256",
        "encoding": "inplace",
        "label": "uint256[48]",
        "numberOfBytes": "1536"
      },
      "t_array(t_uint256)49_storage": {
        "base": "t_uint256",
        "encoding": "inplace",
        "label": "uint256[49]",
        "numberOfBytes": "1568"
      },
      "t_array(t_uint256)50_storage": {
        "base": "t_uint256",
        "encoding": "inplace",
        "label": "uint256[50]",
        "numberOfBytes": "1600"
      },
      "t_bool": {
        "encoding": "inplace",
        "label": "bool",
        "numberOfBytes": "1"
      },
      "t_bytes32": {
        "encoding": "inplace",
        "label": "bytes32",
        "numberOfBytes": "32"
      },
      "t_mapping(t_address,t_bool)": {
        "encoding": "mapping",
        "key": "t_address",
        "label": "mapping(address => bool)",
        "numberOfBytes": "32",
        "value": "t_bool"
      },
      "t_mapping(t_address,t_mapping(t_address,t_uint256))": {
        "encoding": "mapping",
        "key": "t_address",
        "label": "mapping(address => mapping(address => uint256))",
        "numberOfBytes": "32",
        "value": "t_mapping(t_address,t_uint256)"
      },
      "t_mapping(t_address,t_struct(Counter)2571_storage)": {
        "encoding": "mapping",
        "key": "t_address",
        "label": "mapping(address => struct CountersUpgradeable.Counter)",
        "numberOfBytes": "32",
        "value": "t_struct(Counter)2571_storage"
      },
      "t_mapping(t_address,t_uint256)": {
        "encoding": "mapping",
        "key": "t_address",
        "label": "mapping(address => uint256)",
        "numberOfBytes": "32",
        "value": "t_uint256"
      },
      "t_mapping(t_bytes32,t_struct(RoleData)23_storage)": {
        "encoding": "mapping",
        "key": "t_bytes32",
        "label": "mapping(bytes32 => struct AccessControlUpgradeable.RoleData)",
        "numberOfBytes": "32",
        "value": "t_struct(RoleData)23_storage"
      },
      "t_string_storage": {
        "encoding": "bytes",
        "label": "string",
        "numberOfBytes": "32"
      },
      "t_struct(Counter)2571_storage": {
        "encoding": "inplace",
        "label": "struct CountersUpgradeable.Counter",
        "members": [
          {
            "astId": 2570,
            "contract": "contracts/EquityToken.sol:EquityToken",
            "label": "_value",
            "offset": 0,
            "slot": "0",
            "type": "t_uint256"
          }
        ],
        "numberOfBytes": "32"
      },
      "t_struct(RoleData)23_storage": {
        "encoding": "inplace",
        "label": "struct AccessControlUpgradeable.RoleData",
        "members": [
          {
            "astId": 20,
            "contract": "contracts/EquityToken.sol:EquityToken",
            "label": "members",
            "offset": 0,
            "slot": "0",
            "type": "t_mapping(t_address,t_bool)"
          },
          {
            "astId": 22,
            "contract": "contracts/EquityToken.sol:EquityToken",
            "label": "adminRole",
            "offset": 0,
            "slot": "1",
            "type": "t_bytes32"
          }
        ],
        "numberOfBytes": "64"
      },
      "t_uint256": {
        "encoding": "inplace",
        "label": "uint256",
        "numberOfBytes": "32"
      },
      "t_uint8": {
        "encoding": "inplace",
        "label": "uint8",
        "numberOfBytes": "1"
      }
    }
  }
}