{
  "address": "0x08224d179d4Cc1013191F58c6b8b8D26Fc33ea0d",
  "abi": [
    {
      "inputs": [],
      "stateMutability": "nonpayable",
      "type": "constructor"
    },
    {
      "inputs": [
        {
          "internalType": "address",
          "name": "to",
          "type": "address"
        }
      ],
      "name": "AddressNotWhitelisted",
      "type": "error"
    },
    {
      "inputs": [],
      "name": "TokenPaused",
      "type": "error"
    },
    {
      "anonymous": false,
      "inputs": [
        {
          "indexed": true,
          "internalType": "address",
          "name": "_address",
          "type": "address"
        }
      ],
      "name": "AddToWhitelist",
      "type": "event"
    },
    {
      "anonymous": false,
      "inputs": [
        {
          "indexed": true,
          "internalType": "address",
          "name": "owner",
          "type": "address"
        },
        {
          "indexed": true,
          "internalType": "address",
          "name": "spender",
          "type": "address"
        },
        {
          "indexed": false,
          "internalType": "uint256",
          "name": "value",
          "type": "uint256"
        }
      ],
      "name": "Approval",
      "type": "event"
    },
    {
      "anonymous": false,
      "inputs": [],
      "name": "EIP712DomainChanged",
      "type": "event"
    },
    {
      "anonymous": false,
      "inputs": [
        {
          "indexed": false,
          "internalType": "uint8",
          "name": "version",
          "type": "uint8"
        }
      ],
      "name": "Initialized",
      "type": "event"
    },
    {
      "anonymous": false,
      "inputs": [
        {
          "indexed": false,
          "internalType": "address",
          "name": "account",
          "type": "address"
        }
      ],
      "name": "Paused",
      "type": "event"
    },
    {
      "anonymous": false,
      "inputs": [
        {
          "indexed": true,
          "internalType": "address",
          "name": "_address",
          "type": "address"
        }
      ],
      "name": "RemoveFromWhitelist",
      "type": "event"
    },
    {
      "anonymous": false,
      "inputs": [
        {
          "indexed": true,
          "internalType": "bytes32",
          "name": "role",
          "type": "bytes32"
        },
        {
          "indexed": true,
          "internalType": "bytes32",
          "name": "previousAdminRole",
          "type": "bytes32"
        },
        {
          "indexed": true,
          "internalType": "bytes32",
          "name": "newAdminRole",
          "type": "bytes32"
        }
      ],
      "name": "RoleAdminChanged",
      "type": "event"
    },
    {
      "anonymous": false,
      "inputs": [
        {
          "indexed": true,
          "internalType": "bytes32",
          "name": "role",
          "type": "bytes32"
        },
        {
          "indexed": true,
          "internalType": "address",
          "name": "account",
          "type": "address"
        },
        {
          "indexed": true,
          "internalType": "address",
          "name": "sender",
          "type": "address"
        }
      ],
      "name": "RoleGranted",
      "type": "event"
    },
    {
      "anonymous": false,
      "inputs": [
        {
          "indexed": true,
          "internalType": "bytes32",
          "name": "role",
          "type": "bytes32"
        },
        {
          "indexed": true,
          "internalType": "address",
          "name": "account",
          "type": "address"
        },
        {
          "indexed": true,
          "internalType": "address",
          "name": "sender",
          "type": "address"
        }
      ],
      "name": "RoleRevoked",
      "type": "event"
    },
    {
      "anonymous": false,
      "inputs": [
        {
          "indexed": true,
          "internalType": "address",
          "name": "from",
          "type": "address"
        },
        {
          "indexed": true,
          "internalType": "address",
          "name": "to",
          "type": "address"
        },
        {
          "indexed": false,
          "internalType": "uint256",
          "name": "value",
          "type": "uint256"
        }
      ],
      "name": "Transfer",
      "type": "event"
    },
    {
      "anonymous": false,
      "inputs": [
        {
          "indexed": false,
          "internalType": "address",
          "name": "account",
          "type": "address"
        }
      ],
      "name": "Unpaused",
      "type": "event"
    },
    {
      "inputs": [],
      "name": "DEFAULT_ADMIN_ROLE",
      "outputs": [
        {
          "internalType": "bytes32",
          "name": "",
          "type": "bytes32"
        }
      ],
      "stateMutability": "view",
      "type": "function"
    },
    {
      "inputs": [],
      "name": "DOMAIN_SEPARATOR",
      "outputs": [
        {
          "internalType": "bytes32",
          "name": "",
          "type": "bytes32"
        }
      ],
      "stateMutability": "view",
      "type": "function"
    },
    {
      "inputs": [],
      "name": "MINTER_ROLE",
      "outputs": [
        {
          "internalType": "bytes32",
          "name": "",
          "type": "bytes32"
        }
      ],
      "stateMutability": "view",
      "type": "function"
    },
    {
      "inputs": [],
      "name": "OWNER_ROLE",
      "outputs": [
        {
          "internalType": "bytes32",
          "name": "",
          "type": "bytes32"
        }
      ],
      "stateMutability": "view",
      "type": "function"
    },
    {
      "inputs": [
        {
          "internalType": "address",
          "name": "_address",
          "type": "address"
        }
      ],
      "name": "addToWhitelist",
      "outputs": [],
      "stateMutability": "nonpayable",
      "type": "function"
    },
    {
      "inputs": [
        {
          "internalType": "address",
          "name": "owner",
          "type": "address"
        },
        {
          "internalType": "address",
          "name": "spender",
          "type": "address"
        }
      ],
      "name": "allowance",
      "outputs": [
        {
          "internalType": "uint256",
          "name": "",
          "type": "uint256"
        }
      ],
      "stateMutability": "view",
      "type": "function"
    },
    {
      "inputs": [
        {
          "internalType": "address",
          "name": "spender",
          "type": "address"
        },
        {
          "internalType": "uint256",
          "name": "amount",
          "type": "uint256"
        }
      ],
      "name": "approve",
      "outputs": [
        {
          "internalType": "bool",
          "name": "",
          "type": "bool"
        }
      ],
      "stateMutability": "nonpayable",
      "type": "function"
    },
    {
      "inputs": [
        {
          "internalType": "address",
          "name": "account",
          "type": "address"
        }
      ],
      "name": "balanceOf",
      "outputs": [
        {
          "internalType": "uint256",
          "name": "",
          "type": "uint256"
        }
      ],
      "stateMutability": "view",
      "type": "function"
    },
    {
      "inputs": [
        {
          "internalType": "address",
          "name": "_customer",
          "type": "address"
        },
        {
          "internalType": "uint256",
          "name": "_amount",
          "type": "uint256"
        }
      ],
      "name": "burnShares",
      "outputs": [],
      "stateMutability": "nonpayable",
      "type": "function"
    },
    {
      "inputs": [
        {
          "internalType": "address",
          "name": "_customer",
          "type": "address"
        },
        {
          "internalType": "uint256",
          "name": "_amount",
          "type": "uint256"
        }
      ],
      "name": "createShares",
      "outputs": [],
      "stateMutability": "nonpayable",
      "type": "function"
    },
    {
      "inputs": [],
      "name": "decimals",
      "outputs": [
        {
          "internalType": "uint8",
          "name": "",
          "type": "uint8"
        }
      ],
      "stateMutability": "view",
      "type": "function"
    },
    {
      "inputs": [
        {
          "internalType": "address",
          "name": "spender",
          "type": "address"
        },
        {
          "internalType": "uint256",
          "name": "subtractedValue",
          "type": "uint256"
        }
      ],
      "name": "decreaseAllowance",
      "outputs": [
        {
          "internalType": "bool",
          "name": "",
          "type": "bool"
        }
      ],
      "stateMutability": "nonpayable",
      "type": "function"
    },
    {
      "inputs": [],
      "name": "eip712Domain",
      "outputs": [
        {
          "internalType": "bytes1",
          "name": "fields",
          "type": "bytes1"
        },
        {
          "internalType": "string",
          "name": "name",
          "type": "string"
        },
        {
          "internalType": "string",
          "name": "version",
          "type": "string"
        },
        {
          "internalType": "uint256",
          "name": "chainId",
          "type": "uint256"
        },
        {
          "internalType": "address",
          "name": "verifyingContract",
          "type": "address"
        },
        {
          "internalType": "bytes32",
          "name": "salt",
          "type": "bytes32"
        },
        {
          "internalType": "uint256[]",
          "name": "extensions",
          "type": "uint256[]"
        }
      ],
      "stateMutability": "view",
      "type": "function"
    },
    {
      "inputs": [
        {
          "internalType": "bytes32",
          "name": "role",
          "type": "bytes32"
        }
      ],
      "name": "getRoleAdmin",
      "outputs": [
        {
          "internalType": "bytes32",
          "name": "",
          "type": "bytes32"
        }
      ],
      "stateMutability": "view",
      "type": "function"
    },
    {
      "inputs": [
        {
          "internalType": "bytes32",
          "name": "role",
          "type": "bytes32"
        },
        {
          "internalType": "address",
          "name": "account",
          "type": "address"
        }
      ],
      "name": "grantRole",
      "outputs": [],
      "stateMutability": "nonpayable",
      "type": "function"
    },
    {
      "inputs": [
        {
          "internalType": "bytes32",
          "name": "role",
          "type": "bytes32"
        },
        {
          "internalType": "address",
          "name": "account",
          "type": "address"
        }
      ],
      "name": "hasRole",
      "outputs": [
        {
          "internalType": "bool",
          "name": "",
          "type": "bool"
        }
      ],
      "stateMutability": "view",
      "type": "function"
    },
    {
      "inputs": [
        {
          "internalType": "address",
          "name": "spender",
          "type": "address"
        },
        {
          "internalType": "uint256",
          "name": "addedValue",
          "type": "uint256"
        }
      ],
      "name": "increaseAllowance",
      "outputs": [
        {
          "internalType": "bool",
          "name": "",
          "type": "bool"
        }
      ],
      "stateMutability": "nonpayable",
      "type": "function"
    },
    {
      "inputs": [
        {
          "internalType": "string",
          "name": "_name",
          "type": "string"
        },
        {
          "internalType": "string",
          "name": "_symbol",
          "type": "string"
        },
        {
          "internalType": "address",
          "name": "owner",
          "type": "address"
        }
      ],
      "name": "initialize",
      "outputs": [],
      "stateMutability": "nonpayable",
      "type": "function"
    },
    {
      "inputs": [
        {
          "internalType": "address",
          "name": "_address",
          "type": "address"
        }
      ],
      "name": "isWhitelisted",
      "outputs": [
        {
          "internalType": "bool",
          "name": "",
          "type": "bool"
        }
      ],
      "stateMutability": "view",
      "type": "function"
    },
    {
      "inputs": [],
      "name": "name",
      "outputs": [
        {
          "internalType": "string",
          "name": "",
          "type": "string"
        }
      ],
      "stateMutability": "view",
      "type": "function"
    },
    {
      "inputs": [
        {
          "internalType": "address",
          "name": "owner",
          "type": "address"
        }
      ],
      "name": "nonces",
      "outputs": [
        {
          "internalType": "uint256",
          "name": "",
          "type": "uint256"
        }
      ],
      "stateMutability": "view",
      "type": "function"
    },
    {
      "inputs": [],
      "name": "pause",
      "outputs": [],
      "stateMutability": "nonpayable",
      "type": "function"
    },
    {
      "inputs": [],
      "name": "paused",
      "outputs": [
        {
          "internalType": "bool",
          "name": "",
          "type": "bool"
        }
      ],
      "stateMutability": "view",
      "type": "function"
    },
    {
      "inputs": [
        {
          "internalType": "address",
          "name": "owner",
          "type": "address"
        },
        {
          "internalType": "address",
          "name": "spender",
          "type": "address"
        },
        {
          "internalType": "uint256",
          "name": "value",
          "type": "uint256"
        },
        {
          "internalType": "uint256",
          "name": "deadline",
          "type": "uint256"
        },
        {
          "internalType": "uint8",
          "name": "v",
          "type": "uint8"
        },
        {
          "internalType": "bytes32",
          "name": "r",
          "type": "bytes32"
        },
        {
          "internalType": "bytes32",
          "name": "s",
          "type": "bytes32"
        }
      ],
      "name": "permit",
      "outputs": [],
      "stateMutability": "nonpayable",
      "type": "function"
    },
    {
      "inputs": [
        {
          "internalType": "address",
          "name": "_address",
          "type": "address"
        }
      ],
      "name": "removeFromWhitelist",
      "outputs": [],
      "stateMutability": "nonpayable",
      "type": "function"
    },
    {
      "inputs": [
        {
          "internalType": "bytes32",
          "name": "role",
          "type": "bytes32"
        },
        {
          "internalType": "address",
          "name": "account",
          "type": "address"
        }
      ],
      "name": "renounceRole",
      "outputs": [],
      "stateMutability": "nonpayable",
      "type": "function"
    },
    {
      "inputs": [
        {
          "internalType": "bytes32",
          "name": "role",
          "type": "bytes32"
        },
        {
          "internalType": "address",
          "name": "account",
          "type": "address"
        }
      ],
      "name": "revokeRole",
      "outputs": [],
      "stateMutability": "nonpayable",
      "type": "function"
    },
    {
      "inputs": [
        {
          "internalType": "bytes4",
          "name": "interfaceId",
          "type": "bytes4"
        }
      ],
      "name": "supportsInterface",
      "outputs": [
        {
          "internalType": "bool",
          "name": "",
          "type": "bool"
        }
      ],
      "stateMutability": "view",
      "type": "function"
    },
    {
      "inputs": [],
      "name": "symbol",
      "outputs": [
        {
          "internalType": "string",
          "name": "",
          "type": "string"
        }
      ],
      "stateMutability": "view",
      "type": "function"
    },
    {
      "inputs": [],
      "name": "totalSupply",
      "outputs": [
        {
          "internalType": "uint256",
          "name": "",
          "type": "uint256"
        }
      ],
      "stateMutability": "view",
      "type": "function"
    },
    {
      "inputs": [
        {
          "internalType": "address",
          "name": "to",
          "type": "address"
        },
        {
          "internalType": "uint256",
          "name": "amount",
          "type": "uint256"
        }
      ],
      "name": "transfer",
      "outputs": [
        {
          "internalType": "bool",
          "name": "",
          "type": "bool"
        }
      ],
      "stateMutability": "nonpayable",
      "type": "function"
    },
    {
      "inputs": [
        {
          "internalType": "address",
          "name": "from",
          "type": "address"
        },
        {
          "internalType": "address",
          "name": "to",
          "type": "address"
        },
        {
          "internalType": "uint256",
          "name": "amount",
          "type": "uint256"
        }
      ],
      "name": "transferFrom",
      "outputs": [
        {
          "internalType": "bool",
          "name": "",
          "type": "bool"
        }
      ],
      "stateMutability": "nonpayable",
      "type": "function"
    },
    {
      "inputs": [],
      "name": "unpause",
      "outputs": [],
      "stateMutability": "nonpayable",
      "type": "function"
    }
  ],
  "transactionHash": "0x7c04a2b65f0573c5e2e5b94636785794cbd082eb51fe8c204380673252ac448e",
  "args": [],
  "numDeployments": 1,
  "solcInputHash": "29cf5cf25d0da621c8cbefab89a3a3cc",
  "bytecode": "0x60806040523480156200001157600080fd5b50620000226200002860201b60201c565b620001d2565b600060019054906101000a900460ff16156200007b576040517f08c379a0000000000000000000000000000000000000000000000000000000008152600401620000729062000175565b60405180910390fd5b60ff801660008054906101000a900460ff1660ff1614620000ec5760ff6000806101000a81548160ff021916908360ff1602179055507f7f26b83ff96e1f2b6a682f133852f6798a09c465da95921460cefb384740249860ff604051620000e39190620001b5565b60405180910390a15b565b600082825260208201905092915050565b7f496e697469616c697a61626c653a20636f6e747261637420697320696e69746960008201527f616c697a696e6700000000000000000000000000000000000000000000000000602082015250565b60006200015d602783620000ee565b91506200016a82620000ff565b604082019050919050565b6000602082019050818103600083015262000190816200014e565b9050919050565b600060ff82169050919050565b620001af8162000197565b82525050565b6000602082019050620001cc6000830184620001a4565b92915050565b61459d80620001e26000396000f3fe608060405234801561001057600080fd5b50600436106101fb5760003560e01c806370a082311161011a578063a457c2d7116100ad578063d547741f1161007c578063d547741f146105e0578063dd62ed3e146105fc578063e43252d71461062c578063e58378bb14610648578063ee7a7c0414610666576101fb565b8063a457c2d714610546578063a9059cbb14610576578063d505accf146105a6578063d5391393146105c2576101fb565b80638ab1d681116100e95780638ab1d681146104be57806391d14854146104da57806395d89b411461050a578063a217fddf14610528576101fb565b806370a08231146104305780637ecebe00146104605780638456cb591461049057806384b0196e1461049a576101fb565b80632f2ff15d11610192578063395093511161016157806339509351146103a85780633af32abf146103d85780633f4ba83a146104085780635c975abb14610412576101fb565b80632f2ff15d14610334578063313ce567146103505780633644e5151461036e57806336568abe1461038c576101fb565b80630f9e5bbd116101ce5780630f9e5bbd1461029a57806318160ddd146102b657806323b872dd146102d4578063248a9ca314610304576101fb565b806301ffc9a71461020057806306fdde0314610230578063077f224a1461024e578063095ea7b31461026a575b600080fd5b61021a60048036038101906102159190612be4565b610682565b6040516102279190612c2c565b60405180910390f35b6102386106fc565b6040516102459190612cd7565b60405180910390f35b61026860048036038101906102639190612e8c565b61078e565b005b610284600480360381019061027f9190612f4d565b610952565b6040516102919190612c2c565b60405180910390f35b6102b460048036038101906102af9190612f4d565b610975565b005b6102be6109ae565b6040516102cb9190612f9c565b60405180910390f35b6102ee60048036038101906102e99190612fb7565b6109b8565b6040516102fb9190612c2c565b60405180910390f35b61031e60048036038101906103199190613040565b6109e7565b60405161032b919061307c565b60405180910390f35b61034e60048036038101906103499190613097565b610a07565b005b610358610a28565b60405161036591906130f3565b60405180910390f35b610376610a31565b604051610383919061307c565b60405180910390f35b6103a660048036038101906103a19190613097565b610a40565b005b6103c260048036038101906103bd9190612f4d565b610ac3565b6040516103cf9190612c2c565b60405180910390f35b6103f260048036038101906103ed919061310e565b610afa565b6040516103ff9190612c2c565b60405180910390f35b610410610b51565b005b61041a610b86565b6040516104279190612c2c565b60405180910390f35b61044a6004803603810190610445919061310e565b610b9e565b6040516104579190612f9c565b60405180910390f35b61047a6004803603810190610475919061310e565b610be7565b6040516104879190612f9c565b60405180910390f35b610498610c37565b005b6104a2610c6c565b6040516104b59796959493929190613243565b60405180910390f35b6104d860048036038101906104d3919061310e565b610d6d565b005b6104f460048036038101906104ef9190613097565b610df0565b6040516105019190612c2c565b60405180910390f35b610512610e5b565b60405161051f9190612cd7565b60405180910390f35b610530610eed565b60405161053d919061307c565b60405180910390f35b610560600480360381019061055b9190612f4d565b610ef4565b60405161056d9190612c2c565b60405180910390f35b610590600480360381019061058b9190612f4d565b610f6b565b60405161059d9190612c2c565b60405180910390f35b6105c060048036038101906105bb91906132f3565b610f8e565b005b6105ca6110d0565b6040516105d7919061307c565b60405180910390f35b6105fa60048036038101906105f59190613097565b6110f4565b005b61061660048036038101906106119190613395565b611115565b6040516106239190612f9c565b60405180910390f35b6106466004803603810190610641919061310e565b61119c565b005b6106506111d3565b60405161065d919061307c565b60405180910390f35b610680600480360381019061067b9190612f4d565b6111f7565b005b60007f7965db0b000000000000000000000000000000000000000000000000000000007bffffffffffffffffffffffffffffffffffffffffffffffffffffffff1916827bffffffffffffffffffffffffffffffffffffffffffffffffffffffff191614806106f557506106f482611230565b5b9050919050565b60606036805461070b90613404565b80601f016020809104026020016040519081016040528092919081815260200182805461073790613404565b80156107845780601f1061075957610100808354040283529160200191610784565b820191906000526020600020905b81548152906001019060200180831161076757829003601f168201915b5050505050905090565b60008060019054906101000a900460ff161590508080156107bf5750600160008054906101000a900460ff1660ff16105b806107ec57506107ce3061129a565b1580156107eb5750600160008054906101000a900460ff1660ff16145b5b61082b576040517f08c379a0000000000000000000000000000000000000000000000000000000008152600401610822906134a7565b60405180910390fd5b60016000806101000a81548160ff021916908360ff1602179055508015610868576001600060016101000a81548160ff0219169083151502179055505b61087284846112bd565b61087b8461131a565b6108836113ab565b61088b611404565b6108986000801b83611455565b6108c27fb19546dff01e856fb3f010c267a7b1c60363cf8a4664e21cc89c26224620214e83611455565b6108f37f9f2df0fed2c77648de5860a4cc508cd0818c85b8b8a1ab4ceeef8d981c8956a66108ee611536565b611455565b801561094c5760008060016101000a81548160ff0219169083151502179055507f7f26b83ff96e1f2b6a682f133852f6798a09c465da95921460cefb38474024986001604051610943919061350c565b60405180910390a15b50505050565b60008061095d611536565b905061096a81858561153e565b600191505092915050565b7f9f2df0fed2c77648de5860a4cc508cd0818c85b8b8a1ab4ceeef8d981c8956a661099f81611707565b6109a9838361171b565b505050565b6000603554905090565b6000806109c3611536565b90506109d0858285611872565b6109db8585856118fe565b60019150509392505050565b600060fe6000838152602001908152602001600020600101549050919050565b610a10826109e7565b610a1981611707565b610a238383611455565b505050565b60006012905090565b6000610a3b611b77565b905090565b610a48611536565b73ffffffffffffffffffffffffffffffffffffffff168173ffffffffffffffffffffffffffffffffffffffff1614610ab5576040517f08c379a0000000000000000000000000000000000000000000000000000000008152600401610aac90613599565b60405180910390fd5b610abf8282611b86565b5050565b600080610ace611536565b9050610aef818585610ae08589611115565b610aea91906135e8565b61153e565b600191505092915050565b600061016260008373ffffffffffffffffffffffffffffffffffffffff1673ffffffffffffffffffffffffffffffffffffffff16815260200190815260200160002060009054906101000a900460ff169050919050565b7fb19546dff01e856fb3f010c267a7b1c60363cf8a4664e21cc89c26224620214e610b7b81611707565b610b83611c68565b50565b600061013060009054906101000a900460ff16905090565b6000603360008373ffffffffffffffffffffffffffffffffffffffff1673ffffffffffffffffffffffffffffffffffffffff168152602001908152602001600020549050919050565b6000610c30609960008473ffffffffffffffffffffffffffffffffffffffff1673ffffffffffffffffffffffffffffffffffffffff168152602001908152602001600020611ccc565b9050919050565b7fb19546dff01e856fb3f010c267a7b1c60363cf8a4664e21cc89c26224620214e610c6181611707565b610c69611cda565b50565b6000606080600080600060606000801b606554148015610c9057506000801b606654145b610ccf576040517f08c379a0000000000000000000000000000000000000000000000000000000008152600401610cc690613668565b60405180910390fd5b610cd7611d3e565b610cdf611dd0565b46306000801b600067ffffffffffffffff811115610d0057610cff612d03565b5b604051908082528060200260200182016040528015610d2e5781602001602082028036833780820191505090505b507f0f00000000000000000000000000000000000000000000000000000000000000959493929190965096509650965096509650965090919293949596565b7fb19546dff01e856fb3f010c267a7b1c60363cf8a4664e21cc89c26224620214e610d9781611707565b81610da181610afa565b610de257806040517feadb950f000000000000000000000000000000000000000000000000000000008152600401610dd99190613688565b60405180910390fd5b610deb83611e62565b505050565b600060fe600084815260200190815260200160002060000160008373ffffffffffffffffffffffffffffffffffffffff1673ffffffffffffffffffffffffffffffffffffffff16815260200190815260200160002060009054906101000a900460ff16905092915050565b606060378054610e6a90613404565b80601f0160208091040260200160405190810160405280929190818152602001828054610e9690613404565b8015610ee35780601f10610eb857610100808354040283529160200191610ee3565b820191906000526020600020905b815481529060010190602001808311610ec657829003601f168201915b5050505050905090565b6000801b81565b600080610eff611536565b90506000610f0d8286611115565b905083811015610f52576040517f08c379a0000000000000000000000000000000000000000000000000000000008152600401610f4990613715565b60405180910390fd5b610f5f828686840361153e565b60019250505092915050565b600080610f76611536565b9050610f838185856118fe565b600191505092915050565b83421115610fd1576040517f08c379a0000000000000000000000000000000000000000000000000000000008152600401610fc890613781565b60405180910390fd5b60007f6e71edae12b1b97f4d1f60370fef10105fa2faae0126114a169c64845d6126c98888886110008c611f01565b89604051602001611016969594939291906137a1565b604051602081830303815290604052805190602001209050600061103982611f5f565b9050600061104982878787611f79565b90508973ffffffffffffffffffffffffffffffffffffffff168173ffffffffffffffffffffffffffffffffffffffff16146110b9576040517f08c379a00000000000000000000000000000000000000000000000000000000081526004016110b09061384e565b60405180910390fd5b6110c48a8a8a61153e565b50505050505050505050565b7f9f2df0fed2c77648de5860a4cc508cd0818c85b8b8a1ab4ceeef8d981c8956a681565b6110fd826109e7565b61110681611707565b6111108383611b86565b505050565b6000603460008473ffffffffffffffffffffffffffffffffffffffff1673ffffffffffffffffffffffffffffffffffffffff16815260200190815260200160002060008373ffffffffffffffffffffffffffffffffffffffff1673ffffffffffffffffffffffffffffffffffffffff16815260200190815260200160002054905092915050565b7fb19546dff01e856fb3f010c267a7b1c60363cf8a4664e21cc89c26224620214e6111c681611707565b6111cf82611fa4565b5050565b7fb19546dff01e856fb3f010c267a7b1c60363cf8a4664e21cc89c26224620214e81565b7f9f2df0fed2c77648de5860a4cc508cd0818c85b8b8a1ab4ceeef8d981c8956a661122181611707565b61122b8383612043565b505050565b60007f01ffc9a7000000000000000000000000000000000000000000000000000000007bffffffffffffffffffffffffffffffffffffffffffffffffffffffff1916827bffffffffffffffffffffffffffffffffffffffffffffffffffffffff1916149050919050565b6000808273ffffffffffffffffffffffffffffffffffffffff163b119050919050565b600060019054906101000a900460ff1661130c576040517f08c379a0000000000000000000000000000000000000000000000000000000008152600401611303906138e0565b60405180910390fd5b6113168282612212565b5050565b600060019054906101000a900460ff16611369576040517f08c379a0000000000000000000000000000000000000000000000000000000008152600401611360906138e0565b60405180910390fd5b6113a8816040518060400160405280600181526020017f3100000000000000000000000000000000000000000000000000000000000000815250612285565b50565b600060019054906101000a900460ff166113fa576040517f08c379a00000000000000000000000000000000000000000000000000000000081526004016113f1906138e0565b60405180910390fd5b61140261230c565b565b600060019054906101000a900460ff16611453576040517f08c379a000000000000000000000000000000000000000000000000000000000815260040161144a906138e0565b60405180910390fd5b565b61145f8282610df0565b61153257600160fe600084815260200190815260200160002060000160008373ffffffffffffffffffffffffffffffffffffffff1673ffffffffffffffffffffffffffffffffffffffff16815260200190815260200160002060006101000a81548160ff0219169083151502179055506114d7611536565b73ffffffffffffffffffffffffffffffffffffffff168173ffffffffffffffffffffffffffffffffffffffff16837f2f8788117e7eff1d82e926ec794901d17c78024a50270940304540a733656f0d60405160405180910390a45b5050565b600033905090565b600073ffffffffffffffffffffffffffffffffffffffff168373ffffffffffffffffffffffffffffffffffffffff16036115ad576040517f08c379a00000000000000000000000000000000000000000000000000000000081526004016115a490613972565b60405180910390fd5b600073ffffffffffffffffffffffffffffffffffffffff168273ffffffffffffffffffffffffffffffffffffffff160361161c576040517f08c379a000000000000000000000000000000000000000000000000000000000815260040161161390613a04565b60405180910390fd5b80603460008573ffffffffffffffffffffffffffffffffffffffff1673ffffffffffffffffffffffffffffffffffffffff16815260200190815260200160002060008473ffffffffffffffffffffffffffffffffffffffff1673ffffffffffffffffffffffffffffffffffffffff168152602001908152602001600020819055508173ffffffffffffffffffffffffffffffffffffffff168373ffffffffffffffffffffffffffffffffffffffff167f8c5be1e5ebec7d5bd14f71427d1e84f3dd0314c0f7b2291e5b200ac8c7c3b925836040516116fa9190612f9c565b60405180910390a3505050565b61171881611713611536565b612379565b50565b600073ffffffffffffffffffffffffffffffffffffffff168273ffffffffffffffffffffffffffffffffffffffff160361178a576040517f08c379a000000000000000000000000000000000000000000000000000000000815260040161178190613a70565b60405180910390fd5b611796600083836123fe565b80603560008282546117a891906135e8565b9250508190555080603360008473ffffffffffffffffffffffffffffffffffffffff1673ffffffffffffffffffffffffffffffffffffffff168152602001908152602001600020600082825401925050819055508173ffffffffffffffffffffffffffffffffffffffff16600073ffffffffffffffffffffffffffffffffffffffff167fddf252ad1be2c89b69c2b068fc378daa952ba7f163c4a11628f55a4df523b3ef8360405161185a9190612f9c565b60405180910390a361186e60008383612499565b5050565b600061187e8484611115565b90507fffffffffffffffffffffffffffffffffffffffffffffffffffffffffffffffff81146118f857818110156118ea576040517f08c379a00000000000000000000000000000000000000000000000000000000081526004016118e190613adc565b60405180910390fd5b6118f7848484840361153e565b5b50505050565b600073ffffffffffffffffffffffffffffffffffffffff168373ffffffffffffffffffffffffffffffffffffffff160361196d576040517f08c379a000000000000000000000000000000000000000000000000000000000815260040161196490613b6e565b60405180910390fd5b600073ffffffffffffffffffffffffffffffffffffffff168273ffffffffffffffffffffffffffffffffffffffff16036119dc576040517f08c379a00000000000000000000000000000000000000000000000000000000081526004016119d390613c00565b60405180910390fd5b6119e78383836123fe565b6000603360008573ffffffffffffffffffffffffffffffffffffffff1673ffffffffffffffffffffffffffffffffffffffff16815260200190815260200160002054905081811015611a6e576040517f08c379a0000000000000000000000000000000000000000000000000000000008152600401611a6590613c92565b60405180910390fd5b818103603360008673ffffffffffffffffffffffffffffffffffffffff1673ffffffffffffffffffffffffffffffffffffffff1681526020019081526020016000208190555081603360008573ffffffffffffffffffffffffffffffffffffffff1673ffffffffffffffffffffffffffffffffffffffff168152602001908152602001600020600082825401925050819055508273ffffffffffffffffffffffffffffffffffffffff168473ffffffffffffffffffffffffffffffffffffffff167fddf252ad1be2c89b69c2b068fc378daa952ba7f163c4a11628f55a4df523b3ef84604051611b5e9190612f9c565b60405180910390a3611b71848484612499565b50505050565b6000611b8161249e565b905090565b611b908282610df0565b15611c6457600060fe600084815260200190815260200160002060000160008373ffffffffffffffffffffffffffffffffffffffff1673ffffffffffffffffffffffffffffffffffffffff16815260200190815260200160002060006101000a81548160ff021916908315150217905550611c09611536565b73ffffffffffffffffffffffffffffffffffffffff168173ffffffffffffffffffffffffffffffffffffffff16837ff6391f5c32d9c69d2a47ea670b442974b53935d1edc7fd64eb21e047a839171b60405160405180910390a45b5050565b611c70612502565b600061013060006101000a81548160ff0219169083151502179055507f5db9ee0a495bf2e6ff9c91a7834c1ba4fdd244a5e8aa4e537bd38aeae4b073aa611cb5611536565b604051611cc29190613688565b60405180910390a1565b600081600001549050919050565b611ce261254b565b600161013060006101000a81548160ff0219169083151502179055507f62e78cea01bee320cd4e420270b5ea74000d11b0c9f74754ebdbfc544b05a258611d27611536565b604051611d349190613688565b60405180910390a1565b606060678054611d4d90613404565b80601f0160208091040260200160405190810160405280929190818152602001828054611d7990613404565b8015611dc65780601f10611d9b57610100808354040283529160200191611dc6565b820191906000526020600020905b815481529060010190602001808311611da957829003601f168201915b5050505050905090565b606060688054611ddf90613404565b80601f0160208091040260200160405190810160405280929190818152602001828054611e0b90613404565b8015611e585780601f10611e2d57610100808354040283529160200191611e58565b820191906000526020600020905b815481529060010190602001808311611e3b57829003601f168201915b5050505050905090565b600061016260008373ffffffffffffffffffffffffffffffffffffffff1673ffffffffffffffffffffffffffffffffffffffff16815260200190815260200160002060006101000a81548160ff0219169083151502179055508073ffffffffffffffffffffffffffffffffffffffff167f1f756c8b089af6b33ee121fee8badac2553a2fa89c0575ea91ff8792617746c260405160405180910390a250565b600080609960008473ffffffffffffffffffffffffffffffffffffffff1673ffffffffffffffffffffffffffffffffffffffff1681526020019081526020016000209050611f4e81611ccc565b9150611f5981612595565b50919050565b6000611f72611f6c611b77565b836125ab565b9050919050565b6000806000611f8a878787876125ec565b91509150611f97816126ce565b8192505050949350505050565b600161016260008373ffffffffffffffffffffffffffffffffffffffff1673ffffffffffffffffffffffffffffffffffffffff16815260200190815260200160002060006101000a81548160ff0219169083151502179055508073ffffffffffffffffffffffffffffffffffffffff167f75b2135d1c8c3519f3c09c43fe6527089ef09f40c7981ebf0ed46e79e79032c760405160405180910390a250565b600073ffffffffffffffffffffffffffffffffffffffff168273ffffffffffffffffffffffffffffffffffffffff16036120b2576040517f08c379a00000000000000000000000000000000000000000000000000000000081526004016120a990613d24565b60405180910390fd5b6120be826000836123fe565b6000603360008473ffffffffffffffffffffffffffffffffffffffff1673ffffffffffffffffffffffffffffffffffffffff16815260200190815260200160002054905081811015612145576040517f08c379a000000000000000000000000000000000000000000000000000000000815260040161213c90613db6565b60405180910390fd5b818103603360008573ffffffffffffffffffffffffffffffffffffffff1673ffffffffffffffffffffffffffffffffffffffff1681526020019081526020016000208190555081603560008282540392505081905550600073ffffffffffffffffffffffffffffffffffffffff168373ffffffffffffffffffffffffffffffffffffffff167fddf252ad1be2c89b69c2b068fc378daa952ba7f163c4a11628f55a4df523b3ef846040516121f99190612f9c565b60405180910390a361220d83600084612499565b505050565b600060019054906101000a900460ff16612261576040517f08c379a0000000000000000000000000000000000000000000000000000000008152600401612258906138e0565b60405180910390fd5b81603690816122709190613f78565b5080603790816122809190613f78565b505050565b600060019054906101000a900460ff166122d4576040517f08c379a00000000000000000000000000000000000000000000000000000000081526004016122cb906138e0565b60405180910390fd5b81606790816122e39190613f78565b5080606890816122f39190613f78565b506000801b6065819055506000801b6066819055505050565b600060019054906101000a900460ff1661235b576040517f08c379a0000000000000000000000000000000000000000000000000000000008152600401612352906138e0565b60405180910390fd5b600061013060006101000a81548160ff021916908315150217905550565b6123838282610df0565b6123fa5761239081612834565b61239e8360001c6020612861565b6040516020016123af92919061411e565b6040516020818303038152906040526040517f08c379a00000000000000000000000000000000000000000000000000000000081526004016123f19190612cd7565b60405180910390fd5b5050565b612406610b86565b1561243d576040517fe779249500000000000000000000000000000000000000000000000000000000815260040160405180910390fd5b8161244781610afa565b61248857806040517feadb950f00000000000000000000000000000000000000000000000000000000815260040161247f9190613688565b60405180910390fd5b612493848484612a9d565b50505050565b505050565b60007f8b73c3c69bb8fe3d512ecc4cf759cc79239f7b179b0ffacaa9a75d522b39400f6124c9612aa2565b6124d1612b0d565b46306040516020016124e7959493929190614158565b60405160208183030381529060405280519060200120905090565b61250a610b86565b612549576040517f08c379a0000000000000000000000000000000000000000000000000000000008152600401612540906141f7565b60405180910390fd5b565b612553610b86565b15612593576040517f08c379a000000000000000000000000000000000000000000000000000000000815260040161258a90614263565b60405180910390fd5b565b6001816000016000828254019250508190555050565b60006040517f190100000000000000000000000000000000000000000000000000000000000081528360028201528260228201526042812091505092915050565b6000807f7fffffffffffffffffffffffffffffff5d576e7357a4501ddfe92f46681b20a08360001c11156126275760006003915091506126c5565b60006001878787876040516000815260200160405260405161264c9493929190614283565b6020604051602081039080840390855afa15801561266e573d6000803e3d6000fd5b505050602060405103519050600073ffffffffffffffffffffffffffffffffffffffff168173ffffffffffffffffffffffffffffffffffffffff16036126bc576000600192509250506126c5565b80600092509250505b94509492505050565b600060048111156126e2576126e16142c8565b5b8160048111156126f5576126f46142c8565b5b0315612831576001600481111561270f5761270e6142c8565b5b816004811115612722576127216142c8565b5b03612762576040517f08c379a000000000000000000000000000000000000000000000000000000000815260040161275990614343565b60405180910390fd5b60026004811115612776576127756142c8565b5b816004811115612789576127886142c8565b5b036127c9576040517f08c379a00000000000000000000000000000000000000000000000000000000081526004016127c0906143af565b60405180910390fd5b600360048111156127dd576127dc6142c8565b5b8160048111156127f0576127ef6142c8565b5b03612830576040517f08c379a000000000000000000000000000000000000000000000000000000000815260040161282790614441565b60405180910390fd5b5b50565b606061285a8273ffffffffffffffffffffffffffffffffffffffff16601460ff16612861565b9050919050565b6060600060028360026128749190614461565b61287e91906135e8565b67ffffffffffffffff81111561289757612896612d03565b5b6040519080825280601f01601f1916602001820160405280156128c95781602001600182028036833780820191505090505b5090507f300000000000000000000000000000000000000000000000000000000000000081600081518110612901576129006144a3565b5b60200101907effffffffffffffffffffffffffffffffffffffffffffffffffffffffffffff1916908160001a9053507f780000000000000000000000000000000000000000000000000000000000000081600181518110612965576129646144a3565b5b60200101907effffffffffffffffffffffffffffffffffffffffffffffffffffffffffffff1916908160001a905350600060018460026129a59190614461565b6129af91906135e8565b90505b6001811115612a4f577f3031323334353637383961626364656600000000000000000000000000000000600f8616601081106129f1576129f06144a3565b5b1a60f81b828281518110612a0857612a076144a3565b5b60200101907effffffffffffffffffffffffffffffffffffffffffffffffffffffffffffff1916908160001a905350600485901c945080612a48906144d2565b90506129b2565b5060008414612a93576040517f08c379a0000000000000000000000000000000000000000000000000000000008152600401612a8a90614547565b60405180910390fd5b8091505092915050565b505050565b600080612aad611d3e565b9050600081511115612ac9578080519060200120915050612b0a565b600060655490506000801b8114612ae4578092505050612b0a565b7fc5d2460186f7233c927e7db2dcc703c0e500b653ca82273b7bfad8045d85a470925050505b90565b600080612b18611dd0565b9050600081511115612b34578080519060200120915050612b75565b600060665490506000801b8114612b4f578092505050612b75565b7fc5d2460186f7233c927e7db2dcc703c0e500b653ca82273b7bfad8045d85a470925050505b90565b6000604051905090565b600080fd5b600080fd5b60007fffffffff0000000000000000000000000000000000000000000000000000000082169050919050565b612bc181612b8c565b8114612bcc57600080fd5b50565b600081359050612bde81612bb8565b92915050565b600060208284031215612bfa57612bf9612b82565b5b6000612c0884828501612bcf565b91505092915050565b60008115159050919050565b612c2681612c11565b82525050565b6000602082019050612c416000830184612c1d565b92915050565b600081519050919050565b600082825260208201905092915050565b60005b83811015612c81578082015181840152602081019050612c66565b60008484015250505050565b6000601f19601f8301169050919050565b6000612ca982612c47565b612cb38185612c52565b9350612cc3818560208601612c63565b612ccc81612c8d565b840191505092915050565b60006020820190508181036000830152612cf18184612c9e565b905092915050565b600080fd5b600080fd5b7f4e487b7100000000000000000000000000000000000000000000000000000000600052604160045260246000fd5b612d3b82612c8d565b810181811067ffffffffffffffff82111715612d5a57612d59612d03565b5b80604052505050565b6000612d6d612b78565b9050612d798282612d32565b919050565b600067ffffffffffffffff821115612d9957612d98612d03565b5b612da282612c8d565b9050602081019050919050565b82818337600083830152505050565b6000612dd1612dcc84612d7e565b612d63565b905082815260208101848484011115612ded57612dec612cfe565b5b612df8848285612daf565b509392505050565b600082601f830112612e1557612e14612cf9565b5b8135612e25848260208601612dbe565b91505092915050565b600073ffffffffffffffffffffffffffffffffffffffff82169050919050565b6000612e5982612e2e565b9050919050565b612e6981612e4e565b8114612e7457600080fd5b50565b600081359050612e8681612e60565b92915050565b600080600060608486031215612ea557612ea4612b82565b5b600084013567ffffffffffffffff811115612ec357612ec2612b87565b5b612ecf86828701612e00565b935050602084013567ffffffffffffffff811115612ef057612eef612b87565b5b612efc86828701612e00565b9250506040612f0d86828701612e77565b9150509250925092565b6000819050919050565b612f2a81612f17565b8114612f3557600080fd5b50565b600081359050612f4781612f21565b92915050565b60008060408385031215612f6457612f63612b82565b5b6000612f7285828601612e77565b9250506020612f8385828601612f38565b9150509250929050565b612f9681612f17565b82525050565b6000602082019050612fb16000830184612f8d565b92915050565b600080600060608486031215612fd057612fcf612b82565b5b6000612fde86828701612e77565b9350506020612fef86828701612e77565b925050604061300086828701612f38565b9150509250925092565b6000819050919050565b61301d8161300a565b811461302857600080fd5b50565b60008135905061303a81613014565b92915050565b60006020828403121561305657613055612b82565b5b60006130648482850161302b565b91505092915050565b6130768161300a565b82525050565b6000602082019050613091600083018461306d565b92915050565b600080604083850312156130ae576130ad612b82565b5b60006130bc8582860161302b565b92505060206130cd85828601612e77565b9150509250929050565b600060ff82169050919050565b6130ed816130d7565b82525050565b600060208201905061310860008301846130e4565b92915050565b60006020828403121561312457613123612b82565b5b600061313284828501612e77565b91505092915050565b60007fff0000000000000000000000000000000000000000000000000000000000000082169050919050565b6131708161313b565b82525050565b61317f81612e4e565b82525050565b600081519050919050565b600082825260208201905092915050565b6000819050602082019050919050565b6131ba81612f17565b82525050565b60006131cc83836131b1565b60208301905092915050565b6000602082019050919050565b60006131f082613185565b6131fa8185613190565b9350613205836131a1565b8060005b8381101561323657815161321d88826131c0565b9750613228836131d8565b925050600181019050613209565b5085935050505092915050565b600060e082019050613258600083018a613167565b818103602083015261326a8189612c9e565b9050818103604083015261327e8188612c9e565b905061328d6060830187612f8d565b61329a6080830186613176565b6132a760a083018561306d565b81810360c08301526132b981846131e5565b905098975050505050505050565b6132d0816130d7565b81146132db57600080fd5b50565b6000813590506132ed816132c7565b92915050565b600080600080600080600060e0888a03121561331257613311612b82565b5b60006133208a828b01612e77565b97505060206133318a828b01612e77565b96505060406133428a828b01612f38565b95505060606133538a828b01612f38565b94505060806133648a828b016132de565b93505060a06133758a828b0161302b565b92505060c06133868a828b0161302b565b91505092959891949750929550565b600080604083850312156133ac576133ab612b82565b5b60006133ba85828601612e77565b92505060206133cb85828601612e77565b9150509250929050565b7f4e487b7100000000000000000000000000000000000000000000000000000000600052602260045260246000fd5b6000600282049050600182168061341c57607f821691505b60208210810361342f5761342e6133d5565b5b50919050565b7f496e697469616c697a61626c653a20636f6e747261637420697320616c72656160008201527f647920696e697469616c697a6564000000000000000000000000000000000000602082015250565b6000613491602e83612c52565b915061349c82613435565b604082019050919050565b600060208201905081810360008301526134c081613484565b9050919050565b6000819050919050565b6000819050919050565b60006134f66134f16134ec846134c7565b6134d1565b6130d7565b9050919050565b613506816134db565b82525050565b600060208201905061352160008301846134fd565b92915050565b7f416363657373436f6e74726f6c3a2063616e206f6e6c792072656e6f756e636560008201527f20726f6c657320666f722073656c660000000000000000000000000000000000602082015250565b6000613583602f83612c52565b915061358e82613527565b604082019050919050565b600060208201905081810360008301526135b281613576565b9050919050565b7f4e487b7100000000000000000000000000000000000000000000000000000000600052601160045260246000fd5b60006135f382612f17565b91506135fe83612f17565b9250828201905080821115613616576136156135b9565b5b92915050565b7f4549503731323a20556e696e697469616c697a65640000000000000000000000600082015250565b6000613652601583612c52565b915061365d8261361c565b602082019050919050565b6000602082019050818103600083015261368181613645565b9050919050565b600060208201905061369d6000830184613176565b92915050565b7f45524332303a2064656372656173656420616c6c6f77616e63652062656c6f7760008201527f207a65726f000000000000000000000000000000000000000000000000000000602082015250565b60006136ff602583612c52565b915061370a826136a3565b604082019050919050565b6000602082019050818103600083015261372e816136f2565b9050919050565b7f45524332305065726d69743a206578706972656420646561646c696e65000000600082015250565b600061376b601d83612c52565b915061377682613735565b602082019050919050565b6000602082019050818103600083015261379a8161375e565b9050919050565b600060c0820190506137b6600083018961306d565b6137c36020830188613176565b6137d06040830187613176565b6137dd6060830186612f8d565b6137ea6080830185612f8d565b6137f760a0830184612f8d565b979650505050505050565b7f45524332305065726d69743a20696e76616c6964207369676e61747572650000600082015250565b6000613838601e83612c52565b915061384382613802565b602082019050919050565b600060208201905081810360008301526138678161382b565b9050919050565b7f496e697469616c697a61626c653a20636f6e7472616374206973206e6f74206960008201527f6e697469616c697a696e67000000000000000000000000000000000000000000602082015250565b60006138ca602b83612c52565b91506138d58261386e565b604082019050919050565b600060208201905081810360008301526138f9816138bd565b9050919050565b7f45524332303a20617070726f76652066726f6d20746865207a65726f2061646460008201527f7265737300000000000000000000000000000000000000000000000000000000602082015250565b600061395c602483612c52565b915061396782613900565b604082019050919050565b6000602082019050818103600083015261398b8161394f565b9050919050565b7f45524332303a20617070726f766520746f20746865207a65726f20616464726560008201527f7373000000000000000000000000000000000000000000000000000000000000602082015250565b60006139ee602283612c52565b91506139f982613992565b604082019050919050565b60006020820190508181036000830152613a1d816139e1565b9050919050565b7f45524332303a206d696e7420746f20746865207a65726f206164647265737300600082015250565b6000613a5a601f83612c52565b9150613a6582613a24565b602082019050919050565b60006020820190508181036000830152613a8981613a4d565b9050919050565b7f45524332303a20696e73756666696369656e7420616c6c6f77616e6365000000600082015250565b6000613ac6601d83612c52565b9150613ad182613a90565b602082019050919050565b60006020820190508181036000830152613af581613ab9565b9050919050565b7f45524332303a207472616e736665722066726f6d20746865207a65726f20616460008201527f6472657373000000000000000000000000000000000000000000000000000000602082015250565b6000613b58602583612c52565b9150613b6382613afc565b604082019050919050565b60006020820190508181036000830152613b8781613b4b565b9050919050565b7f45524332303a207472616e7366657220746f20746865207a65726f206164647260008201527f6573730000000000000000000000000000000000000000000000000000000000602082015250565b6000613bea602383612c52565b9150613bf582613b8e565b604082019050919050565b60006020820190508181036000830152613c1981613bdd565b9050919050565b7f45524332303a207472616e7366657220616d6f756e742065786365656473206260008201527f616c616e63650000000000000000000000000000000000000000000000000000602082015250565b6000613c7c602683612c52565b9150613c8782613c20565b604082019050919050565b60006020820190508181036000830152613cab81613c6f565b9050919050565b7f45524332303a206275726e2066726f6d20746865207a65726f2061646472657360008201527f7300000000000000000000000000000000000000000000000000000000000000602082015250565b6000613d0e602183612c52565b9150613d1982613cb2565b604082019050919050565b60006020820190508181036000830152613d3d81613d01565b9050919050565b7f45524332303a206275726e20616d6f756e7420657863656564732062616c616e60008201527f6365000000000000000000000000000000000000000000000000000000000000602082015250565b6000613da0602283612c52565b9150613dab82613d44565b604082019050919050565b60006020820190508181036000830152613dcf81613d93565b9050919050565b60008190508160005260206000209050919050565b60006020601f8301049050919050565b600082821b905092915050565b600060088302613e387fffffffffffffffffffffffffffffffffffffffffffffffffffffffffffffffff82613dfb565b613e428683613dfb565b95508019841693508086168417925050509392505050565b6000613e75613e70613e6b84612f17565b6134d1565b612f17565b9050919050565b6000819050919050565b613e8f83613e5a565b613ea3613e9b82613e7c565b848454613e08565b825550505050565b600090565b613eb8613eab565b613ec3818484613e86565b505050565b5b81811015613ee757613edc600082613eb0565b600181019050613ec9565b5050565b601f821115613f2c57613efd81613dd6565b613f0684613deb565b81016020851015613f15578190505b613f29613f2185613deb565b830182613ec8565b50505b505050565b600082821c905092915050565b6000613f4f60001984600802613f31565b1980831691505092915050565b6000613f688383613f3e565b9150826002028217905092915050565b613f8182612c47565b67ffffffffffffffff811115613f9a57613f99612d03565b5b613fa48254613404565b613faf828285613eeb565b600060209050601f831160018114613fe25760008415613fd0578287015190505b613fda8582613f5c565b865550614042565b601f198416613ff086613dd6565b60005b8281101561401857848901518255600182019150602085019450602081019050613ff3565b868310156140355784890151614031601f891682613f3e565b8355505b6001600288020188555050505b505050505050565b600081905092915050565b7f416363657373436f6e74726f6c3a206163636f756e7420000000000000000000600082015250565b600061408b60178361404a565b915061409682614055565b601782019050919050565b60006140ac82612c47565b6140b6818561404a565b93506140c6818560208601612c63565b80840191505092915050565b7f206973206d697373696e6720726f6c6520000000000000000000000000000000600082015250565b600061410860118361404a565b9150614113826140d2565b601182019050919050565b60006141298261407e565b915061413582856140a1565b9150614140826140fb565b915061414c82846140a1565b91508190509392505050565b600060a08201905061416d600083018861306d565b61417a602083018761306d565b614187604083018661306d565b6141946060830185612f8d565b6141a16080830184613176565b9695505050505050565b7f5061757361626c653a206e6f7420706175736564000000000000000000000000600082015250565b60006141e1601483612c52565b91506141ec826141ab565b602082019050919050565b60006020820190508181036000830152614210816141d4565b9050919050565b7f5061757361626c653a2070617573656400000000000000000000000000000000600082015250565b600061424d601083612c52565b915061425882614217565b602082019050919050565b6000602082019050818103600083015261427c81614240565b9050919050565b6000608082019050614298600083018761306d565b6142a560208301866130e4565b6142b2604083018561306d565b6142bf606083018461306d565b95945050505050565b7f4e487b7100000000000000000000000000000000000000000000000000000000600052602160045260246000fd5b7f45434453413a20696e76616c6964207369676e61747572650000000000000000600082015250565b600061432d601883612c52565b9150614338826142f7565b602082019050919050565b6000602082019050818103600083015261435c81614320565b9050919050565b7f45434453413a20696e76616c6964207369676e6174757265206c656e67746800600082015250565b6000614399601f83612c52565b91506143a482614363565b602082019050919050565b600060208201905081810360008301526143c88161438c565b9050919050565b7f45434453413a20696e76616c6964207369676e6174757265202773272076616c60008201527f7565000000000000000000000000000000000000000000000000000000000000602082015250565b600061442b602283612c52565b9150614436826143cf565b604082019050919050565b6000602082019050818103600083015261445a8161441e565b9050919050565b600061446c82612f17565b915061447783612f17565b925082820261448581612f17565b9150828204841483151761449c5761449b6135b9565b5b5092915050565b7f4e487b7100000000000000000000000000000000000000000000000000000000600052603260045260246000fd5b60006144dd82612f17565b9150600082036144f0576144ef6135b9565b5b600182039050919050565b7f537472696e67733a20686578206c656e67746820696e73756666696369656e74600082015250565b6000614531602083612c52565b915061453c826144fb565b602082019050919050565b6000602082019050818103600083015261456081614524565b905091905056fea2646970667358221220798769e215f6b8576b3df31348a5df5f1a850c18766549eee00274e2bf5432d864736f6c63430008120033",
  "devdoc": {
    "events": {
      "Approval(address,address,uint256)": {
        "details": "Emitted when the allowance of a `spender` for an `owner` is set by a call to {approve}. `value` is the new allowance."
      },
      "EIP712DomainChanged()": {
        "details": "MAY be emitted to signal that the domain could have changed."
      },
      "Initialized(uint8)": {
        "details": "Triggered when the contract has been initialized or reinitialized."
      },
      "Paused(address)": {
        "details": "Emitted when the pause is triggered by `account`."
      },
      "RoleAdminChanged(bytes32,bytes32,bytes32)": {
        "details": "Emitted when `newAdminRole` is set as ``role``'s admin role, replacing `previousAdminRole` `DEFAULT_ADMIN_ROLE` is the starting admin for all roles, despite {RoleAdminChanged} not being emitted signaling this. _Available since v3.1._"
      },
      "RoleGranted(bytes32,address,address)": {
        "details": "Emitted when `account` is granted `role`. `sender` is the account that originated the contract call, an admin role bearer except when using {AccessControl-_setupRole}."
      },
      "RoleRevoked(bytes32,address,address)": {
        "details": "Emitted when `account` is revoked `role`. `sender` is the account that originated the contract call:   - if using `revokeRole`, it is the admin role bearer   - if using `renounceRole`, it is the role bearer (i.e. `account`)"
      },
      "Transfer(address,address,uint256)": {
        "details": "Emitted when `value` tokens are moved from one account (`from`) to another (`to`). Note that `value` may be zero."
      },
      "Unpaused(address)": {
        "details": "Emitted when the pause is lifted by `account`."
      }
    },
    "kind": "dev",
    "methods": {
      "DOMAIN_SEPARATOR()": {
        "details": "Returns the domain separator used in the encoding of the signature for {permit}, as defined by {EIP712}."
      },
      "allowance(address,address)": {
        "details": "See {IERC20-allowance}."
      },
      "approve(address,uint256)": {
        "details": "See {IERC20-approve}. NOTE: If `amount` is the maximum `uint256`, the allowance is not updated on `transferFrom`. This is semantically equivalent to an infinite approval. Requirements: - `spender` cannot be the zero address."
      },
      "balanceOf(address)": {
        "details": "See {IERC20-balanceOf}."
      },
      "constructor": {
        "custom:oz-upgrades-unsafe-allow": "constructor"
      },
      "decimals()": {
        "details": "Returns the number of decimals used to get its user representation. For example, if `decimals` equals `2`, a balance of `505` tokens should be displayed to a user as `5.05` (`505 / 10 ** 2`). Tokens usually opt for a value of 18, imitating the relationship between Ether and Wei. This is the default value returned by this function, unless it's overridden. NOTE: This information is only used for _display_ purposes: it in no way affects any of the arithmetic of the contract, including {IERC20-balanceOf} and {IERC20-transfer}."
      },
      "decreaseAllowance(address,uint256)": {
        "details": "Atomically decreases the allowance granted to `spender` by the caller. This is an alternative to {approve} that can be used as a mitigation for problems described in {IERC20-approve}. Emits an {Approval} event indicating the updated allowance. Requirements: - `spender` cannot be the zero address. - `spender` must have allowance for the caller of at least `subtractedValue`."
      },
      "eip712Domain()": {
        "details": "See {EIP-5267}. _Available since v4.9._"
      },
      "getRoleAdmin(bytes32)": {
        "details": "Returns the admin role that controls `role`. See {grantRole} and {revokeRole}. To change a role's admin, use {_setRoleAdmin}."
      },
      "grantRole(bytes32,address)": {
        "details": "Grants `role` to `account`. If `account` had not been already granted `role`, emits a {RoleGranted} event. Requirements: - the caller must have ``role``'s admin role. May emit a {RoleGranted} event."
      },
      "hasRole(bytes32,address)": {
        "details": "Returns `true` if `account` has been granted `role`."
      },
      "increaseAllowance(address,uint256)": {
        "details": "Atomically increases the allowance granted to `spender` by the caller. This is an alternative to {approve} that can be used as a mitigation for problems described in {IERC20-approve}. Emits an {Approval} event indicating the updated allowance. Requirements: - `spender` cannot be the zero address."
      },
      "name()": {
        "details": "Returns the name of the token."
      },
      "nonces(address)": {
        "details": "Returns the current nonce for `owner`. This value must be included whenever a signature is generated for {permit}. Every successful call to {permit} increases ``owner``'s nonce by one. This prevents a signature from being used multiple times."
      },
      "paused()": {
        "details": "Returns true if the contract is paused, and false otherwise."
      },
      "permit(address,address,uint256,uint256,uint8,bytes32,bytes32)": {
        "details": "Sets `value` as the allowance of `spender` over ``owner``'s tokens, given ``owner``'s signed approval. IMPORTANT: The same issues {IERC20-approve} has related to transaction ordering also apply here. Emits an {Approval} event. Requirements: - `spender` cannot be the zero address. - `deadline` must be a timestamp in the future. - `v`, `r` and `s` must be a valid `secp256k1` signature from `owner` over the EIP712-formatted function arguments. - the signature must use ``owner``'s current nonce (see {nonces}). For more information on the signature format, see the https://eips.ethereum.org/EIPS/eip-2612#specification[relevant EIP section]. CAUTION: See Security Considerations above."
      },
      "renounceRole(bytes32,address)": {
        "details": "Revokes `role` from the calling account. Roles are often managed via {grantRole} and {revokeRole}: this function's purpose is to provide a mechanism for accounts to lose their privileges if they are compromised (such as when a trusted device is misplaced). If the calling account had been revoked `role`, emits a {RoleRevoked} event. Requirements: - the caller must be `account`. May emit a {RoleRevoked} event."
      },
      "revokeRole(bytes32,address)": {
        "details": "Revokes `role` from `account`. If `account` had been granted `role`, emits a {RoleRevoked} event. Requirements: - the caller must have ``role``'s admin role. May emit a {RoleRevoked} event."
      },
      "supportsInterface(bytes4)": {
        "details": "See {IERC165-supportsInterface}."
      },
      "symbol()": {
        "details": "Returns the symbol of the token, usually a shorter version of the name."
      },
      "totalSupply()": {
        "details": "See {IERC20-totalSupply}."
      },
      "transfer(address,uint256)": {
        "details": "See {IERC20-transfer}. Requirements: - `to` cannot be the zero address. - the caller must have a balance of at least `amount`."
      },
      "transferFrom(address,address,uint256)": {
        "details": "See {IERC20-transferFrom}. Emits an {Approval} event indicating the updated allowance. This is not required by the EIP. See the note at the beginning of {ERC20}. NOTE: Does not update the allowance if the current allowance is the maximum `uint256`. Requirements: - `from` and `to` cannot be the zero address. - `from` must have a balance of at least `amount`. - the caller must have allowance for ``from``'s tokens of at least `amount`."
      }
    },
    "version": 1
  },
  "userdoc": {
    "kind": "user",
    "methods": {},
    "version": 1
  },
  "storageLayout": {
    "storage": [
      {
        "astId": 574,
        "contract": "contracts/EquityToken.sol:EquityToken",
        "label": "_initialized",
        "offset": 0,
        "slot": "0",
        "type": "t_uint8"
      },
      {
        "astId": 577,
        "contract": "contracts/EquityToken.sol:EquityToken",
        "label": "_initializing",
        "offset": 1,
        "slot": "0",
        "type": "t_bool"
      },
      {
        "astId": 2564,
        "contract": "contracts/EquityToken.sol:EquityToken",
        "label": "__gap",
        "offset": 0,
        "slot": "1",
        "type": "t_array(t_uint256)50_storage"
      },
      {
        "astId": 884,
        "contract": "contracts/EquityToken.sol:EquityToken",
        "label": "_balances",
        "offset": 0,
        "slot": "51",
        "type": "t_mapping(t_address,t_uint256)"
      },
      {
        "astId": 890,
        "contract": "contracts/EquityToken.sol:EquityToken",
        "label": "_allowances",
        "offset": 0,
        "slot": "52",
        "type": "t_mapping(t_address,t_mapping(t_address,t_uint256))"
      },
      {
        "astId": 892,
        "contract": "contracts/EquityToken.sol:EquityToken",
        "label": "_totalSupply",
        "offset": 0,
        "slot": "53",
        "type": "t_uint256"
      },
      {
        "astId": 894,
        "contract": "contracts/EquityToken.sol:EquityToken",
        "label": "_name",
        "offset": 0,
        "slot": "54",
        "type": "t_string_storage"
      },
      {
        "astId": 896,
        "contract": "contracts/EquityToken.sol:EquityToken",
        "label": "_symbol",
        "offset": 0,
        "slot": "55",
        "type": "t_string_storage"
      },
      {
        "astId": 1476,
        "contract": "contracts/EquityToken.sol:EquityToken",
        "label": "__gap",
        "offset": 0,
        "slot": "56",
        "type": "t_array(t_uint256)45_storage"
      },
      {
        "astId": 3253,
        "contract": "contracts/EquityToken.sol:EquityToken",
        "label": "_hashedName",
        "offset": 0,
        "slot": "101",
        "type": "t_bytes32"
      },
      {
        "astId": 3256,
        "contract": "contracts/EquityToken.sol:EquityToken",
        "label": "_hashedVersion",
        "offset": 0,
        "slot": "102",
        "type": "t_bytes32"
      },
      {
        "astId": 3258,
        "contract": "contracts/EquityToken.sol:EquityToken",
        "label": "_name",
        "offset": 0,
        "slot": "103",
        "type": "t_string_storage"
      },
      {
        "astId": 3260,
        "contract": "contracts/EquityToken.sol:EquityToken",
        "label": "_version",
        "offset": 0,
        "slot": "104",
        "type": "t_string_storage"
      },
      {
        "astId": 3518,
        "contract": "contracts/EquityToken.sol:EquityToken",
        "label": "__gap",
        "offset": 0,
        "slot": "105",
        "type": "t_array(t_uint256)48_storage"
      },
      {
        "astId": 1582,
        "contract": "contracts/EquityToken.sol:EquityToken",
        "label": "_nonces",
        "offset": 0,
        "slot": "153",
        "type": "t_mapping(t_address,t_struct(Counter)2571_storage)"
      },
      {
        "astId": 1590,
        "contract": "contracts/EquityToken.sol:EquityToken",
        "label": "_PERMIT_TYPEHASH_DEPRECATED_SLOT",
        "offset": 0,
        "slot": "154",
        "type": "t_bytes32"
      },
      {
        "astId": 1746,
        "contract": "contracts/EquityToken.sol:EquityToken",
        "label": "__gap",
        "offset": 0,
        "slot": "155",
        "type": "t_array(t_uint256)49_storage"
      },
      {
        "astId": 3563,
        "contract": "contracts/EquityToken.sol:EquityToken",
        "label": "__gap",
        "offset": 0,
        "slot": "204",
        "type": "t_array(t_uint256)50_storage"
      },
      {
        "astId": 28,
        "contract": "contracts/EquityToken.sol:EquityToken",
        "label": "_roles",
        "offset": 0,
        "slot": "254",
        "type": "t_mapping(t_bytes32,t_struct(RoleData)23_storage)"
      },
      {
        "astId": 335,
        "contract": "contracts/EquityToken.sol:EquityToken",
        "label": "__gap",
        "offset": 0,
        "slot": "255",
        "type": "t_array(t_uint256)49_storage"
      },
      {
        "astId": 758,
        "contract": "contracts/EquityToken.sol:EquityToken",
        "label": "_paused",
        "offset": 0,
        "slot": "304",
        "type": "t_bool"
      },
      {
        "astId": 863,
        "contract": "contracts/EquityToken.sol:EquityToken",
        "label": "__gap",
        "offset": 0,
        "slot": "305",
        "type": "t_array(t_uint256)49_storage"
      },
      {
        "astId": 12641,
        "contract": "contracts/EquityToken.sol:EquityToken",
        "label": "_allowedList",
        "offset": 0,
        "slot": "354",
        "type": "t_mapping(t_address,t_bool)"
      },
      {
        "astId": 9693,
        "contract": "contracts/EquityToken.sol:EquityToken",
        "label": "__gap",
        "offset": 0,
        "slot": "355",
        "type": "t_array(t_uint256)50_storage"
      }
    ],
    "types": {
      "t_address": {
        "encoding": "inplace",
        "label": "address",
        "numberOfBytes": "20"
      },
      "t_array(t_uint256)45_storage": {
        "base": "t_uint256",
        "encoding": "inplace",
        "label": "uint256[45]",
        "numberOfBytes": "1440"
      },
      "t_array(t_uint256)48_storage": {
        "base": "t_uint256",
        "encoding": "inplace",
        "label": "uint256[48]",
        "numberOfBytes": "1536"
      },
      "t_array(t_uint256)49_storage": {
        "base": "t_uint256",
        "encoding": "inplace",
        "label": "uint256[49]",
        "numberOfBytes": "1568"
      },
      "t_array(t_uint256)50_storage": {
        "base": "t_uint256",
        "encoding": "inplace",
        "label": "uint256[50]",
        "numberOfBytes": "1600"
      },
      "t_bool": {
        "encoding": "inplace",
        "label": "bool",
        "numberOfBytes": "1"
      },
      "t_bytes32": {
        "encoding": "inplace",
        "label": "bytes32",
        "numberOfBytes": "32"
      },
      "t_mapping(t_address,t_bool)": {
        "encoding": "mapping",
        "key": "t_address",
        "label": "mapping(address => bool)",
        "numberOfBytes": "32",
        "value": "t_bool"
      },
      "t_mapping(t_address,t_mapping(t_address,t_uint256))": {
        "encoding": "mapping",
        "key": "t_address",
        "label": "mapping(address => mapping(address => uint256))",
        "numberOfBytes": "32",
        "value": "t_mapping(t_address,t_uint256)"
      },
      "t_mapping(t_address,t_struct(Counter)2571_storage)": {
        "encoding": "mapping",
        "key": "t_address",
        "label": "mapping(address => struct CountersUpgradeable.Counter)",
        "numberOfBytes": "32",
        "value": "t_struct(Counter)2571_storage"
      },
      "t_mapping(t_address,t_uint256)": {
        "encoding": "mapping",
        "key": "t_address",
        "label": "mapping(address => uint256)",
        "numberOfBytes": "32",
        "value": "t_uint256"
      },
      "t_mapping(t_bytes32,t_struct(RoleData)23_storage)": {
        "encoding": "mapping",
        "key": "t_bytes32",
        "label": "mapping(bytes32 => struct AccessControlUpgradeable.RoleData)",
        "numberOfBytes": "32",
        "value": "t_struct(RoleData)23_storage"
      },
      "t_string_storage": {
        "encoding": "bytes",
        "label": "string",
        "numberOfBytes": "32"
      },
      "t_struct(Counter)2571_storage": {
        "encoding": "inplace",
        "label": "struct CountersUpgradeable.Counter",
        "members": [
          {
            "astId": 2570,
            "contract": "contracts/EquityToken.sol:EquityToken",
            "label": "_value",
            "offset": 0,
            "slot": "0",
            "type": "t_uint256"
          }
        ],
        "numberOfBytes": "32"
      },
      "t_struct(RoleData)23_storage": {
        "encoding": "inplace",
        "label": "struct AccessControlUpgradeable.RoleData",
        "members": [
          {
            "astId": 20,
            "contract": "contracts/EquityToken.sol:EquityToken",
            "label": "members",
            "offset": 0,
            "slot": "0",
            "type": "t_mapping(t_address,t_bool)"
          },
          {
            "astId": 22,
            "contract": "contracts/EquityToken.sol:EquityToken",
            "label": "adminRole",
            "offset": 0,
            "slot": "1",
            "type": "t_bytes32"
          }
        ],
        "numberOfBytes": "64"
      },
      "t_uint256": {
        "encoding": "inplace",
        "label": "uint256",
        "numberOfBytes": "32"
      },
      "t_uint8": {
        "encoding": "inplace",
        "label": "uint8",
        "numberOfBytes": "1"
      }
    }
  }
}