{
  "address": "0x7dC7Cb10c2DB3e7e26Ec5c4cFc90e32231044B71",
  "abi": [
    {
      "inputs": [],
      "stateMutability": "nonpayable",
      "type": "constructor"
    },
    {
      "inputs": [],
      "name": "InvalidState",
      "type": "error"
    },
    {
      "inputs": [],
      "name": "InvalidTokOwner",
      "type": "error"
    },
    {
      "inputs": [],
      "name": "OrderbookPaused",
      "type": "error"
    },
    {
      "anonymous": false,
      "inputs": [
        {
          "indexed": true,
          "internalType": "address",
          "name": "tokenAddress",
          "type": "address"
        },
        {
          "indexed": true,
          "internalType": "uint256",
          "name": "orderId",
          "type": "uint256"
        }
      ],
      "name": "CancelOrderByOwnerEvent",
      "type": "event"
    },
    {
      "anonymous": false,
      "inputs": [
        {
          "indexed": true,
          "internalType": "address",
          "name": "tokenAddress",
          "type": "address"
        },
        {
          "indexed": true,
          "internalType": "uint256",
          "name": "orderId",
          "type": "uint256"
        }
      ],
      "name": "CancelOrderByTokenOwnerEvent",
      "type": "event"
    },
    {
      "anonymous": false,
      "inputs": [
        {
          "indexed": true,
          "internalType": "address",
          "name": "tokenAddress",
          "type": "address"
        },
        {
          "indexed": true,
          "internalType": "uint256",
          "name": "pricePerToken",
          "type": "uint256"
        },
        {
          "indexed": true,
          "internalType": "uint256",
          "name": "totalOrderAmount",
          "type": "uint256"
        }
      ],
      "name": "ChangeOrderByOwnerEvent",
      "type": "event"
    },
    {
      "anonymous": false,
      "inputs": [
        {
          "indexed": true,
          "internalType": "uint256",
          "name": "orderId",
          "type": "uint256"
        },
        {
          "indexed": true,
          "internalType": "address",
          "name": "clientAddress",
          "type": "address"
        },
        {
          "indexed": true,
          "internalType": "uint256",
          "name": "depositTokenAmount",
          "type": "uint256"
        }
      ],
      "name": "DepositEquityTokenEvent",
      "type": "event"
    },
    {
      "anonymous": false,
      "inputs": [
        {
          "indexed": false,
          "internalType": "uint8",
          "name": "version",
          "type": "uint8"
        }
      ],
      "name": "Initialized",
      "type": "event"
    },
    {
      "anonymous": false,
      "inputs": [
        {
          "indexed": true,
          "internalType": "uint256",
          "name": "orderId",
          "type": "uint256"
        }
      ],
      "name": "LockTransactionEvent",
      "type": "event"
    },
    {
      "anonymous": false,
      "inputs": [
        {
          "indexed": true,
          "internalType": "uint256",
          "name": "orderId",
          "type": "uint256"
        },
        {
          "indexed": true,
          "internalType": "uint256",
          "name": "totalOrderAmount",
          "type": "uint256"
        },
        {
          "indexed": true,
          "internalType": "address",
          "name": "tokenAddress",
          "type": "address"
        },
        {
          "indexed": false,
          "internalType": "uint256",
          "name": "tokenAmount",
          "type": "uint256"
        }
      ],
      "name": "NewOrderEvent",
      "type": "event"
    },
    {
      "anonymous": false,
      "inputs": [
        {
          "indexed": false,
          "internalType": "address",
          "name": "account",
          "type": "address"
        }
      ],
      "name": "Paused",
      "type": "event"
    },
    {
      "anonymous": false,
      "inputs": [
        {
          "indexed": true,
          "internalType": "bytes32",
          "name": "role",
          "type": "bytes32"
        },
        {
          "indexed": true,
          "internalType": "bytes32",
          "name": "previousAdminRole",
          "type": "bytes32"
        },
        {
          "indexed": true,
          "internalType": "bytes32",
          "name": "newAdminRole",
          "type": "bytes32"
        }
      ],
      "name": "RoleAdminChanged",
      "type": "event"
    },
    {
      "anonymous": false,
      "inputs": [
        {
          "indexed": true,
          "internalType": "bytes32",
          "name": "role",
          "type": "bytes32"
        },
        {
          "indexed": true,
          "internalType": "address",
          "name": "account",
          "type": "address"
        },
        {
          "indexed": true,
          "internalType": "address",
          "name": "sender",
          "type": "address"
        }
      ],
      "name": "RoleGranted",
      "type": "event"
    },
    {
      "anonymous": false,
      "inputs": [
        {
          "indexed": true,
          "internalType": "bytes32",
          "name": "role",
          "type": "bytes32"
        },
        {
          "indexed": true,
          "internalType": "address",
          "name": "account",
          "type": "address"
        },
        {
          "indexed": true,
          "internalType": "address",
          "name": "sender",
          "type": "address"
        }
      ],
      "name": "RoleRevoked",
      "type": "event"
    },
    {
      "anonymous": false,
      "inputs": [
        {
          "indexed": true,
          "internalType": "address",
          "name": "tokenAddress",
          "type": "address"
        },
        {
          "indexed": true,
          "internalType": "uint256",
          "name": "orderId",
          "type": "uint256"
        }
      ],
      "name": "RunCancelOrderByOwnerEvent",
      "type": "event"
    },
    {
      "anonymous": false,
      "inputs": [
        {
          "indexed": true,
          "internalType": "address",
          "name": "tokenAddress",
          "type": "address"
        },
        {
          "indexed": true,
          "internalType": "uint256",
          "name": "orderId",
          "type": "uint256"
        }
      ],
      "name": "RunCancelOrderByTokenOwnerEvent",
      "type": "event"
    },
    {
      "anonymous": false,
      "inputs": [
        {
          "indexed": true,
          "internalType": "uint256",
          "name": "orderId",
          "type": "uint256"
        }
      ],
      "name": "RunChangeOrderByOwnerEvent",
      "type": "event"
    },
    {
      "anonymous": false,
      "inputs": [
        {
          "indexed": true,
          "internalType": "address",
          "name": "tokenAddress",
          "type": "address"
        },
        {
          "indexed": true,
          "internalType": "uint256",
          "name": "orderId",
          "type": "uint256"
        },
        {
          "indexed": true,
          "internalType": "uint256",
          "name": "mode",
          "type": "uint256"
        }
      ],
      "name": "RunModifyOrderByPpraEvent",
      "type": "event"
    },
    {
      "anonymous": false,
      "inputs": [
        {
          "indexed": false,
          "internalType": "address",
          "name": "tokenAddress",
          "type": "address"
        },
        {
          "indexed": true,
          "internalType": "uint256",
          "name": "orderId",
          "type": "uint256"
        },
        {
          "indexed": true,
          "internalType": "address",
          "name": "tokenOwner",
          "type": "address"
        },
        {
          "indexed": true,
          "internalType": "address",
          "name": "newOwner",
          "type": "address"
        },
        {
          "indexed": false,
          "internalType": "bool",
          "name": "ppraFee",
          "type": "bool"
        },
        {
          "indexed": false,
          "internalType": "uint256",
          "name": "totalOrderAmount",
          "type": "uint256"
        },
        {
          "indexed": false,
          "internalType": "uint256",
          "name": "fee",
          "type": "uint256"
        }
      ],
      "name": "TransactEvent",
      "type": "event"
    },
    {
      "anonymous": false,
      "inputs": [
        {
          "indexed": false,
          "internalType": "address",
          "name": "account",
          "type": "address"
        }
      ],
      "name": "Unpaused",
      "type": "event"
    },
    {
      "inputs": [],
      "name": "DEFAULT_ADMIN_ROLE",
      "outputs": [
        {
          "internalType": "bytes32",
          "name": "",
          "type": "bytes32"
        }
      ],
      "stateMutability": "view",
      "type": "function"
    },
    {
      "inputs": [],
      "name": "MINTER_ROLE",
      "outputs": [
        {
          "internalType": "bytes32",
          "name": "",
          "type": "bytes32"
        }
      ],
      "stateMutability": "view",
      "type": "function"
    },
    {
      "inputs": [],
      "name": "OWNER_ROLE",
      "outputs": [
        {
          "internalType": "bytes32",
          "name": "",
          "type": "bytes32"
        }
      ],
      "stateMutability": "view",
      "type": "function"
    },
    {
      "inputs": [
        {
          "internalType": "uint256",
          "name": "_orderId",
          "type": "uint256"
        }
      ],
      "name": "cancelOrderByOwner",
      "outputs": [],
      "stateMutability": "nonpayable",
      "type": "function"
    },
    {
      "inputs": [
        {
          "internalType": "uint256",
          "name": "_orderId",
          "type": "uint256"
        }
      ],
      "name": "cancelOrderByTokenOwner",
      "outputs": [],
      "stateMutability": "nonpayable",
      "type": "function"
    },
    {
      "inputs": [
        {
          "internalType": "uint256",
          "name": "_orderId",
          "type": "uint256"
        },
        {
          "internalType": "address",
          "name": "_tokenAddress",
          "type": "address"
        }
      ],
      "name": "changeOrderByOwner",
      "outputs": [],
      "stateMutability": "nonpayable",
      "type": "function"
    },
    {
      "inputs": [
        {
          "internalType": "address",
          "name": "_buyer",
          "type": "address"
        },
        {
          "internalType": "uint256",
          "name": "_price",
          "type": "uint256"
        },
        {
          "internalType": "address",
          "name": "_tokenAddress",
          "type": "address"
        },
        {
          "internalType": "uint256",
          "name": "_tokenAmount",
          "type": "uint256"
        },
        {
          "internalType": "address",
          "name": "_owner",
          "type": "address"
        },
        {
          "internalType": "uint256",
          "name": "deadline",
          "type": "uint256"
        },
        {
          "internalType": "uint8",
          "name": "v",
          "type": "uint8"
        },
        {
          "internalType": "bytes32",
          "name": "r",
          "type": "bytes32"
        },
        {
          "internalType": "bytes32",
          "name": "s",
          "type": "bytes32"
        }
      ],
      "name": "createOrder",
      "outputs": [],
      "stateMutability": "nonpayable",
      "type": "function"
    },
    {
      "inputs": [
        {
          "internalType": "address",
          "name": "ownerAddress",
          "type": "address"
        }
      ],
      "name": "getEquityTokenOwnerShipAmount",
      "outputs": [
        {
          "internalType": "uint256",
          "name": "",
          "type": "uint256"
        }
      ],
      "stateMutability": "view",
      "type": "function"
    },
    {
      "inputs": [
        {
          "internalType": "uint256",
          "name": "orderId",
          "type": "uint256"
        }
      ],
      "name": "getOrderOwner",
      "outputs": [
        {
          "internalType": "address",
          "name": "",
          "type": "address"
        }
      ],
      "stateMutability": "view",
      "type": "function"
    },
    {
      "inputs": [
        {
          "internalType": "bytes32",
          "name": "role",
          "type": "bytes32"
        }
      ],
      "name": "getRoleAdmin",
      "outputs": [
        {
          "internalType": "bytes32",
          "name": "",
          "type": "bytes32"
        }
      ],
      "stateMutability": "view",
      "type": "function"
    },
    {
      "inputs": [
        {
          "internalType": "address",
          "name": "_account",
          "type": "address"
        }
      ],
      "name": "getStablecoinBalance",
      "outputs": [
        {
          "internalType": "uint256",
          "name": "",
          "type": "uint256"
        }
      ],
      "stateMutability": "view",
      "type": "function"
    },
    {
      "inputs": [
        {
          "internalType": "bytes32",
          "name": "role",
          "type": "bytes32"
        },
        {
          "internalType": "address",
          "name": "account",
          "type": "address"
        }
      ],
      "name": "grantRole",
      "outputs": [],
      "stateMutability": "nonpayable",
      "type": "function"
    },
    {
      "inputs": [
        {
          "internalType": "bytes32",
          "name": "role",
          "type": "bytes32"
        },
        {
          "internalType": "address",
          "name": "account",
          "type": "address"
        }
      ],
      "name": "hasRole",
      "outputs": [
        {
          "internalType": "bool",
          "name": "",
          "type": "bool"
        }
      ],
      "stateMutability": "view",
      "type": "function"
    },
    {
      "inputs": [
        {
          "internalType": "address",
          "name": "_stablecoinAddress",
          "type": "address"
        }
      ],
      "name": "initialize",
      "outputs": [],
      "stateMutability": "nonpayable",
      "type": "function"
    },
    {
      "inputs": [
        {
          "internalType": "uint256",
          "name": "_orderId",
          "type": "uint256"
        },
        {
          "internalType": "bool",
          "name": "_ppraFee",
          "type": "bool"
        }
      ],
      "name": "lockTransaction",
      "outputs": [],
      "stateMutability": "nonpayable",
      "type": "function"
    },
    {
      "inputs": [],
      "name": "pause",
      "outputs": [],
      "stateMutability": "nonpayable",
      "type": "function"
    },
    {
      "inputs": [],
      "name": "paused",
      "outputs": [
        {
          "internalType": "bool",
          "name": "",
          "type": "bool"
        }
      ],
      "stateMutability": "view",
      "type": "function"
    },
    {
      "inputs": [
        {
          "internalType": "bytes32",
          "name": "role",
          "type": "bytes32"
        },
        {
          "internalType": "address",
          "name": "account",
          "type": "address"
        }
      ],
      "name": "renounceRole",
      "outputs": [],
      "stateMutability": "nonpayable",
      "type": "function"
    },
    {
      "inputs": [
        {
          "internalType": "bytes32",
          "name": "role",
          "type": "bytes32"
        },
        {
          "internalType": "address",
          "name": "account",
          "type": "address"
        }
      ],
      "name": "revokeRole",
      "outputs": [],
      "stateMutability": "nonpayable",
      "type": "function"
    },
    {
      "inputs": [
        {
          "internalType": "uint256",
          "name": "_orderId",
          "type": "uint256"
        }
      ],
      "name": "runCancelOrderByOwner",
      "outputs": [],
      "stateMutability": "nonpayable",
      "type": "function"
    },
    {
      "inputs": [
        {
          "internalType": "uint256",
          "name": "_orderId",
          "type": "uint256"
        }
      ],
      "name": "runCancelOrderByTokenOwner",
      "outputs": [],
      "stateMutability": "nonpayable",
      "type": "function"
    },
    {
      "inputs": [
        {
          "internalType": "uint256",
          "name": "_orderId",
          "type": "uint256"
        }
      ],
      "name": "runChangeOrderByOwner",
      "outputs": [],
      "stateMutability": "nonpayable",
      "type": "function"
    },
    {
      "inputs": [
        {
          "internalType": "bytes4",
          "name": "interfaceId",
          "type": "bytes4"
        }
      ],
      "name": "supportsInterface",
      "outputs": [
        {
          "internalType": "bool",
          "name": "",
          "type": "bool"
        }
      ],
      "stateMutability": "view",
      "type": "function"
    },
    {
      "inputs": [],
      "name": "totalFee",
      "outputs": [
        {
          "internalType": "uint256",
          "name": "",
          "type": "uint256"
        }
      ],
      "stateMutability": "view",
      "type": "function"
    },
    {
      "inputs": [
        {
          "internalType": "uint256",
          "name": "_orderId",
          "type": "uint256"
        },
        {
          "internalType": "uint256",
          "name": "deadline",
          "type": "uint256"
        },
        {
          "internalType": "uint8",
          "name": "v",
          "type": "uint8"
        },
        {
          "internalType": "bytes32",
          "name": "r",
          "type": "bytes32"
        },
        {
          "internalType": "bytes32",
          "name": "s",
          "type": "bytes32"
        }
      ],
      "name": "transact",
      "outputs": [],
      "stateMutability": "nonpayable",
      "type": "function"
    },
    {
      "inputs": [
        {
          "internalType": "address",
          "name": "equityToken",
          "type": "address"
        },
        {
          "internalType": "address",
          "name": "from",
          "type": "address"
        },
        {
          "internalType": "address",
          "name": "to",
          "type": "address"
        },
        {
          "internalType": "uint256",
          "name": "amount",
          "type": "uint256"
        }
      ],
      "name": "transferEquityToken",
      "outputs": [],
      "stateMutability": "nonpayable",
      "type": "function"
    },
    {
      "inputs": [],
      "name": "unpause",
      "outputs": [],
      "stateMutability": "nonpayable",
      "type": "function"
    }
  ],
  "transactionHash": "0xc1439bde2abfd0c0e3eff3ca846cf86c98e4c9d377d58238dabac032fbe6a25d",
  "args": [],
  "numDeployments": 1,
  "solcInputHash": "a56bc86e7b8b5dd3e0e0e2578067c794",
  "bytecode": "0x608080604052346100c1576000549060ff8260081c1661006f575060ff80821603610034575b60405161200a90816100c78239f35b60ff90811916176000557f7f26b83ff96e1f2b6a682f133852f6798a09c465da95921460cefb3847402498602060405160ff8152a138610025565b62461bcd60e51b815260206004820152602760248201527f496e697469616c697a61626c653a20636f6e747261637420697320696e697469604482015266616c697a696e6760c81b6064820152608490fd5b600080fdfe6080604081815260048036101561001557600080fd5b600092833560e01c90816301ffc9a7146115dc57508063083c0b9f146115af5780631df4ccfc14611590578063248a9ca3146115665780632f2ff15d146114cc57806336568abe1461143a5780633f4ba83a146113a5578063415e35f3146112fe5780634f7cb6981461115b5780635c975abb146111375780637d6d3806146110a75780637fc0031f146110055780638456cb5914610f725780638cf53d9714610f4057806390152c7914610d3057806391d1485414610cea578063940e97e014610be9578063a217fddf14610bce578063aef6c13d14610b94578063c0f162ea14610b5c578063c4d66de8146108c0578063d539139314610885578063d547741f14610847578063d93dc1ee14610672578063e092b6f41461026b578063e58378bb1461022c5763e5f61e801461014c57600080fd5b3461022857602036600319011261022857803580845260cd6020528284205490926001600160a01b039290918316330361021b5783855260cb60205260ff60058387200154166009811015610208576101fa5760ff609754166101ec575082845260cb602052832060058101805460ff1916600617905554167f433bc606d387f357fb51115d313c12ec28afbc12369ff3447943bf8a98cd2fbc8380a380f35b9051631e325a8760e21b8152fd5b905163baf3f0f760e01b8152fd5b634e487b7160e01b865260218252602486fd5b905162495ce560e91b8152fd5b8280fd5b505034610267578160031936011261026757602090517fb19546dff01e856fb3f010c267a7b1c60363cf8a4664e21cc89c26224620214e8152f35b5080fd5b5090346102285760a03660031901126102285781356044359260ff8416840361066e5781855260cb9060209482865260ff6005868920015416600981101561065b5760020361064c5783875260cd8652848720546001600160a01b03908116969095906102d788611c61565b868a528582526002838b200154116105fe578589528481526001948786848c200154168a5260cc825261031a838b2054888c5282845286858d2001541115611cf3565b868a52808252828a20856003820154910154116105aa57868a5280825261034c838b2060028782015491015490611aa2565b93878b528183528887858d200154168b5260cc83528a89888661037e818520548d86528789528b838720015490611d4b565b938c8152868852200154168c5260cc8452848c20558a888c52828452898c898b60ff60058a8520015460081c1660001461059a575050505050600785028581046007148615171561058757600a6103d791048096611d4b565b9560ce548781018091116105745784878b8f94858f8e6104709760ce555b8483528a87526104108d842085600382015491015490611d4b565b9483528a87528c832094806003870155156000146105455760058501805460ff1916851790555b8160c9541694015416918b519687958694859363a9059cbb60e01b8552840160209093929193604081019460018060a01b031681520152565b03925af1801561053b57898896948e7f5f5c431577ed12cf6c9f8ca1bc57a4fc0c860e246e4e515c09877f12a5452b709c9a8f949a8f97819a9860809f9d986104d99961050e575b508152888a5220918583541660843596606435966024359501541690611dca565b50888c52815260ff6005838d209a808c5416978c0154169a015460081c1682519586521515908501528301526060820152a480f35b61052d908c8d3d10610534575b6105258183611a0a565b810190611cdb565b50386104b8565b503d61051b565b86513d84823e3d90fd5b60058501805461ffff191661010017905580850180546001600160a01b03191630179055838501839055610437565b634e487b7160e01b8d526011825260248dfd5b634e487b7160e01b8c526011875260248cfd5b82949a8893610470958c946103f5565b825162461bcd60e51b8152808601839052602860248201527f496e73756666696369656e7420457175697479546f6b656e20616d6f756e742060448201526734b71037b93232b960c11b6064820152608490fd5b8390608492519162461bcd60e51b83528201526024808201527f544f4b3a20696e73756666696369656e7420537461626c65436f696e2062616c604482015263616e636560e01b6064820152fd5b50835163baf3f0f760e01b8152fd5b634e487b7160e01b885260218352602488fd5b8480fd5b5034610228576101203660031901126102285761068d611630565b916024359161069a611661565b936001600160a01b03936064359290608435868116908190036108435760c4359260ff8416840361083f5760ff609754166108315786519860e08a018a811067ffffffffffffffff82111761081e578993926005858b948f948652169c8d81526020810186815285820189815260608301908d825260808401928784528a60a0860199898b5260c0870199808b5260ca54815260cb602052209551169a6001600160601b0360a01b9b8c875416178655600186019151168b825416179055516002840155516003830155518382015501925190600982101561080b57508254915161ffff1990921660ff9091161790151560081b61ff00161790557f2890e79a75f78393834e5d3add0322b03d1e83f522589f7d1aef77737969931a9560209590946107fe94919390926107e39291908a8e60ca54815260cd8b52209182541617905585611aa2565b9760c954169061010435928960e4359360a435923091611dca565b5060ca549351908152a480f35b634e487b7160e01b8e526021905260248dfd5b634e487b7160e01b8c526041835260248cfd5b8651631e325a8760e21b8152fd5b8980fd5b8880fd5b509034610228578060031936011261022857610882913561087d600161086b61164b565b938387526065602052862001546118a9565b611a2c565b80f35b505034610267578160031936011261026757602090517f9f2df0fed2c77648de5860a4cc508cd0818c85b8b8a1ab4ceeef8d981c8956a68152f35b50346102285760209081600319360112610b58576108dc611630565b845460ff90818160081c161593848095610b4c575b8015610b36575b15610adc575060ff1981811660011788559084610acb575b5061093282885460081c1661092481611c01565b61092d81611c01565b611c01565b80609754166097558680526065808652868820338952865282878920541615610a97575b7fb19546dff01e856fb3f010c267a7b1c60363cf8a4664e21cc89c26224620214e808952818752878920338a52875283888a20541615610a61575b507f9f2df0fed2c77648de5860a4cc508cd0818c85b8b8a1ab4ceeef8d981c8956a692838952818752878920338a528752878920541615610a2a575b50505060018060a01b03166001600160601b0360a01b60c954161760c9556109f3578280f35b7f7f26b83ff96e1f2b6a682f133852f6798a09c465da95921460cefb38474024989161ff001984541684555160018152a138808280f35b8288528552858720338852855260018688209182541617905533903390600080516020611fb58339815191528880a43880806109cd565b808952818752878920338a52875287892060018482541617905533903390600080516020611fb58339815191528b80a438610991565b8780528086528688203389528652868820600183825416179055333389600080516020611fb58339815191528180a4610956565b61ffff191661010117875538610910565b865162461bcd60e51b8152908101869052602e60248201527f496e697469616c697a61626c653a20636f6e747261637420697320616c72656160448201526d191e481a5b9a5d1a585b1a5e995960921b6064820152608490fd5b50303b1580156108f857506001838316146108f8565b506001838316106108f1565b8380fd5b5050346102675760203660031901126102675760209181906001600160a01b03610b84611630565b16815260cc845220549051908152f35b8334610bcb576080366003190112610bcb57610882610bb1611630565b610bb961164b565b610bc1611661565b9060643592611f4e565b80fd5b50503461026757816003193601126102675751908152602090f35b5034610228578160031936011261022857803591610c0561164b565b83855260cd6020528185205490936001600160a01b0393909184163303610cdd5781865260cb60205260ff60058488200154166009811015610cca57610cbc5760ff60975416610cae5750845260cb60205283209160058301600860ff198254161790551690816001600160601b0360a01b82541617815560036002820154910154917ef75f71b05f37891f4a7999d887ba6e23a1bfce3759d6c8cf3688c371778b148480a480f35b8251631e325a8760e21b8152fd5b825163baf3f0f760e01b8152fd5b634e487b7160e01b875260218252602487fd5b825162495ce560e91b8152fd5b50346102285781600319360112610228578160209360ff92610d0a61164b565b90358252606586528282206001600160a01b039091168252855220549151911615158152f35b50346102285760209182600319360112610b5857813592610d4f611677565b83855260cb9081815260ff60058488200154166009811015610f2d57600703610f1e5784865281815260018060a01b0393846001858920015416875260cc8252610da98488205487895284845282868a2001541115611cf3565b8587528282528460018589200154163014610edd57858752828252846001858920015416875260cc8252610dec8488205487895284845282868a20015490611d4b565b868852838352856001868a20015416885260cc83528488205585875282825281848820916005830160ff19815416905560018301805490306001600160601b0360a01b8316179055878a81848701968288549855541692610e778a519788968795869463a9059cbb60e01b86521690840160209093929193604081019460018060a01b031681520152565b03925af18015610ed357610eb6575b5084865252832054167f088dd488d38f22b4d7e4ebda8ceec55ae47581abf41cc7624164071ac4a9e8808380a380f35b610ecc90823d8411610534576105258183611a0a565b5038610e86565b84513d89823e3d90fd5b60649184519162461bcd60e51b8352820152601e60248201527f544f4b3a20636f6e7461726374206973206120746f6b656e206f776e657200006044820152fd5b50505163baf3f0f760e01b8152fd5b634e487b7160e01b875260218552602487fd5b50346102285760203660031901126102285735825260cd6020908152918190205490516001600160a01b039091168152f35b5034610228578260031936011261022857610f8b611677565b6097549060ff8216610fcf575060ff1916600117609755513381527f62e78cea01bee320cd4e420270b5ea74000d11b0c9f74754ebdbfc544b05a25890602090a180f35b606490602084519162461bcd60e51b8352820152601060248201526f14185d5cd8589b194e881c185d5cd95960821b6044820152fd5b503461022857816003193601126102285780359160243591821515830361066e5761102e611677565b83855260cb60205260ff60058387200154166009811015610208576001036101fa575082845260cb6020528320600501805461ff00191691151560081b61ff0016919091178155805460ff191660021790557f92470ef1e492929718490cda31533ba902afd3bed508a5cfac3b89a207b252bb8280a280f35b509034610228576020366003190112610228578135916110c5611677565b82845260cb60205260ff60058386200154166009811015611124576008036101fa575081835260cb6020528220600501805460ff191690557f27f2ec90849bcebd24fd5ab94eb1f7c16b9ee3efd4864d7c63732d5f711025cf8280a280f35b634e487b7160e01b855260218252602485fd5b50503461026757816003193601126102675760209060ff6097541690519015158152f35b50346102285760209182600319360112610b585781359261117a611677565b83855260cb815260ff600583872001541660098110156112eb576006036112dd5783855260cb81526111b88286206002600382015491015490611aa2565b84865260cd8252828620546001600160a01b0394908516826111d982611c61565b1061129a5786885260cb84528488206005808201805460ff1916909117905554855163a9059cbb60e01b81526001600160a01b039092169282019283526020830193909352918391839187169082908a90829060400103925af18015611290579060cb9291611273575b5084865252832054167f8baeed34b5c03a5dc041dcd4442531b1355d3a3226a3025d029d01f5ca09bf168380a380f35b61128990823d8411610534576105258183611a0a565b5038611243565b83513d88823e3d90fd5b845162461bcd60e51b8152808301859052601960248201527f544f4b3a20696e73756666696369656e742062616c616e6365000000000000006044820152606490fd5b505163baf3f0f760e01b8152fd5b634e487b7160e01b865260218452602486fd5b503461022857602036600319011261022857803580845260cb6020528284206001015490926001600160a01b039290918316330361021b5783855260cb60205260ff60058387200154166009811015610208576001036101fa5760ff609754166101ec575082845260cb602052832060058101805460ff1916600717905554167f924b09cad40fe29233b0398425528680b7697749c0fe23a3c21248d7064039e48380a380f35b50346102285782600319360112610228576113be611677565b6097549060ff821615611400575060ff1916609755513381527f5db9ee0a495bf2e6ff9c91a7834c1ba4fdd244a5e8aa4e537bd38aeae4b073aa90602090a180f35b606490602084519162461bcd60e51b8352820152601460248201527314185d5cd8589b194e881b9bdd081c185d5cd95960621b6044820152fd5b5082903461026757826003193601126102675761145561164b565b90336001600160a01b0383160361147157906108829135611a2c565b608490602085519162461bcd60e51b8352820152602f60248201527f416363657373436f6e74726f6c3a2063616e206f6e6c792072656e6f756e636560448201526e103937b632b9903337b91039b2b63360891b6064820152fd5b503461022857816003193601126102285735906114e761164b565b9082845260656020526114ff600182862001546118a9565b828452606560209081528185206001600160a01b039093168086529290528084205460ff161561152d578380f35b82845260656020528084208285526020528320600160ff198254161790553391600080516020611fb58339815191528480a43880808380f35b50346102285760203660031901126102285781602093600192358152606585522001549051908152f35b50503461026757816003193601126102675760209060ce549051908152f35b505034610267576020366003190112610267576020906115d56115d0611630565b611c61565b9051908152f35b92505034610228576020366003190112610228573563ffffffff60e01b81168091036102285760209250637965db0b60e01b811490811561161f575b5015158152f35b6301ffc9a760e01b14905038611618565b600435906001600160a01b038216820361164657565b600080fd5b602435906001600160a01b038216820361164657565b604435906001600160a01b038216820361164657565b3360009081527f6805e25e6cde84a829922028ad0e6c513021b8756e9a2473e007ddc1f0f07afb6020908152604080832054909291907fb19546dff01e856fb3f010c267a7b1c60363cf8a4664e21cc89c26224620214e9060ff16156116dd5750505050565b6116e633611af2565b908451906116f3826119d8565b6042825283820194606036873782511561189557603086538251906001918210156118955790607860218501536041915b818311611827575050506117e557846117b360486117d79360449798519889916117a48984019876020b1b1b2b9b9a1b7b73a3937b61d1030b1b1b7bab73a1604d1b8a5261177b815180928d6037890191016119b5565b8401917001034b99036b4b9b9b4b733903937b6329607d1b6037840152518093868401906119b5565b01036028810189520187611a0a565b5194859362461bcd60e51b85526004850152518092816024860152858501906119b5565b601f01601f19168101030190fd5b60648386519062461bcd60e51b825280600483015260248201527f537472696e67733a20686578206c656e67746820696e73756666696369656e746044820152fd5b909192600f81166010811015611881576f181899199a1a9b1b9c1cb0b131b232b360811b901a6118578587611acb565b5360041c92801561186d57600019019190611724565b634e487b7160e01b82526011600452602482fd5b634e487b7160e01b83526032600452602483fd5b634e487b7160e01b81526032600452602490fd5b6000818152602060658152604092838320338452825260ff8484205416156118d15750505050565b6118da33611af2565b908451906118e7826119d8565b6042825283820194606036873782511561189557603086538251906001918210156118955790607860218501536041915b81831161196f575050506117e557846117b360486117d79360449798519889916117a48984019876020b1b1b2b9b9a1b7b73a3937b61d1030b1b1b7bab73a1604d1b8a5261177b815180928d6037890191016119b5565b909192600f81166010811015611881576f181899199a1a9b1b9c1cb0b131b232b360811b901a61199f8587611acb565b5360041c92801561186d57600019019190611918565b60005b8381106119c85750506000910152565b81810151838201526020016119b8565b6080810190811067ffffffffffffffff8211176119f457604052565b634e487b7160e01b600052604160045260246000fd5b90601f8019910116810190811067ffffffffffffffff8211176119f457604052565b906000918083526065602052604083209160018060a01b03169182845260205260ff604084205416611a5d57505050565b8083526065602052604083208284526020526040832060ff1981541690557ff6391f5c32d9c69d2a47ea670b442974b53935d1edc7fd64eb21e047a839171b339380a4565b81810292918115918404141715611ab557565b634e487b7160e01b600052601160045260246000fd5b908151811015611adc570160200190565b634e487b7160e01b600052603260045260246000fd5b604051906060820182811067ffffffffffffffff8211176119f457604052602a8252602082016040368237825115611adc57603090538151600190811015611adc57607860218401536029905b808211611b93575050611b4f5790565b606460405162461bcd60e51b815260206004820152602060248201527f537472696e67733a20686578206c656e67746820696e73756666696369656e746044820152fd5b9091600f81166010811015611bec576f181899199a1a9b1b9c1cb0b131b232b360811b901a611bc28486611acb565b5360041c918015611bd7576000190190611b3f565b60246000634e487b7160e01b81526011600452fd5b60246000634e487b7160e01b81526032600452fd5b15611c0857565b60405162461bcd60e51b815260206004820152602b60248201527f496e697469616c697a61626c653a20636f6e7472616374206973206e6f74206960448201526a6e697469616c697a696e6760a81b6064820152608490fd5b60c9546040516370a0823160e01b81526001600160a01b0392831660048201529160209183916024918391165afa908115611ccf57600091611ca1575090565b906020823d8211611cc7575b81611cba60209383611a0a565b81010312610bcb57505190565b3d9150611cad565b6040513d6000823e3d90fd5b90816020910312611646575180151581036116465790565b15611cfa57565b60405162461bcd60e51b8152602060048201526024808201527f544f4b3a20696e73756666696369656e7420457175697479546f6b656e20616d6044820152631bdd5b9d60e21b6064820152608490fd5b91908203918211611ab557565b600060443d10611db657604051600319913d83016004833e815167ffffffffffffffff918282113d602484011117611db957818401948551938411611dc1573d85010160208487010111611db95750611db692910160200190611a0a565b90565b949350505050565b50949350505050565b90919293979694600098600096879860018060a01b039384861693843b15611f4a5760405163d505accf60e01b815288871660048201529589166024870152604486018a9052606486015260ff16608485015260a484015260c48301528690829060e490829084905af19081611f19575b50611f03575050505060018260033d11611ef3575b806308c379a014611eea57634e487b7114611ec6575b611e6e575050565b919250903d15611ec2573d9067ffffffffffffffff8211611eae575060405190611ea2601f8201601f191660200183611a0a565b81528160203d92013e90565b634e487b7160e01b81526041600452602490fd5b5090565b8260233d11611edc575b15611e66575090925050565b5060206004843e6001611ed0565b50611ed0611d58565b50600483803e825160e01c611e50565b919350919350611f14949550611f4e565b600190565b90965067ffffffffffffffff8111611f3657604052849538611e3b565b634e487b7160e01b86526041600452602486fd5b8a80fd5b6040516323b872dd60e01b81526001600160a01b03928316600482015292821660248401526044830193909352909160209183916064918391600091165af18015611ccf57611f9a5750565b611fb19060203d8111610534576105258183611a0a565b5056fe2f8788117e7eff1d82e926ec794901d17c78024a50270940304540a733656f0da264697066735822122005b4e2c6d35878b10d452f937ebc714f3677e0c67deee754abdc253f9daba54f64736f6c63430008120033",
  "devdoc": {
    "events": {
      "Initialized(uint8)": {
        "details": "Triggered when the contract has been initialized or reinitialized."
      },
      "Paused(address)": {
        "details": "Emitted when the pause is triggered by `account`."
      },
      "RoleAdminChanged(bytes32,bytes32,bytes32)": {
        "details": "Emitted when `newAdminRole` is set as ``role``'s admin role, replacing `previousAdminRole` `DEFAULT_ADMIN_ROLE` is the starting admin for all roles, despite {RoleAdminChanged} not being emitted signaling this. _Available since v3.1._"
      },
      "RoleGranted(bytes32,address,address)": {
        "details": "Emitted when `account` is granted `role`. `sender` is the account that originated the contract call, an admin role bearer except when using {AccessControl-_setupRole}."
      },
      "RoleRevoked(bytes32,address,address)": {
        "details": "Emitted when `account` is revoked `role`. `sender` is the account that originated the contract call:   - if using `revokeRole`, it is the admin role bearer   - if using `renounceRole`, it is the role bearer (i.e. `account`)"
      },
      "Unpaused(address)": {
        "details": "Emitted when the pause is lifted by `account`."
      }
    },
    "kind": "dev",
    "methods": {
      "constructor": {
        "custom:oz-upgrades-unsafe-allow": "constructor"
      },
      "getRoleAdmin(bytes32)": {
        "details": "Returns the admin role that controls `role`. See {grantRole} and {revokeRole}. To change a role's admin, use {_setRoleAdmin}."
      },
      "grantRole(bytes32,address)": {
        "details": "Grants `role` to `account`. If `account` had not been already granted `role`, emits a {RoleGranted} event. Requirements: - the caller must have ``role``'s admin role. May emit a {RoleGranted} event."
      },
      "hasRole(bytes32,address)": {
        "details": "Returns `true` if `account` has been granted `role`."
      },
      "paused()": {
        "details": "Returns true if the contract is paused, and false otherwise."
      },
      "renounceRole(bytes32,address)": {
        "details": "Revokes `role` from the calling account. Roles are often managed via {grantRole} and {revokeRole}: this function's purpose is to provide a mechanism for accounts to lose their privileges if they are compromised (such as when a trusted device is misplaced). If the calling account had been revoked `role`, emits a {RoleRevoked} event. Requirements: - the caller must be `account`. May emit a {RoleRevoked} event."
      },
      "revokeRole(bytes32,address)": {
        "details": "Revokes `role` from `account`. If `account` had been granted `role`, emits a {RoleRevoked} event. Requirements: - the caller must have ``role``'s admin role. May emit a {RoleRevoked} event."
      },
      "supportsInterface(bytes4)": {
        "details": "See {IERC165-supportsInterface}."
      }
    },
    "version": 1
  },
  "userdoc": {
    "kind": "user",
    "methods": {},
    "version": 1
  },
  "storageLayout": {
    "storage": [
      {
        "astId": 574,
        "contract": "contracts/Orderbook.sol:Orderbook",
        "label": "_initialized",
        "offset": 0,
        "slot": "0",
        "type": "t_uint8"
      },
      {
        "astId": 577,
        "contract": "contracts/Orderbook.sol:Orderbook",
        "label": "_initializing",
        "offset": 1,
        "slot": "0",
        "type": "t_bool"
      },
      {
        "astId": 2564,
        "contract": "contracts/Orderbook.sol:Orderbook",
        "label": "__gap",
        "offset": 0,
        "slot": "1",
        "type": "t_array(t_uint256)50_storage"
      },
      {
        "astId": 3563,
        "contract": "contracts/Orderbook.sol:Orderbook",
        "label": "__gap",
        "offset": 0,
        "slot": "51",
        "type": "t_array(t_uint256)50_storage"
      },
      {
        "astId": 28,
        "contract": "contracts/Orderbook.sol:Orderbook",
        "label": "_roles",
        "offset": 0,
        "slot": "101",
        "type": "t_mapping(t_bytes32,t_struct(RoleData)23_storage)"
      },
      {
        "astId": 335,
        "contract": "contracts/Orderbook.sol:Orderbook",
        "label": "__gap",
        "offset": 0,
        "slot": "102",
        "type": "t_array(t_uint256)49_storage"
      },
      {
        "astId": 758,
        "contract": "contracts/Orderbook.sol:Orderbook",
        "label": "_paused",
        "offset": 0,
        "slot": "151",
        "type": "t_bool"
      },
      {
        "astId": 863,
        "contract": "contracts/Orderbook.sol:Orderbook",
        "label": "__gap",
        "offset": 0,
        "slot": "152",
        "type": "t_array(t_uint256)49_storage"
      },
      {
        "astId": 10396,
        "contract": "contracts/Orderbook.sol:Orderbook",
        "label": "stablecoin",
        "offset": 0,
        "slot": "201",
        "type": "t_address"
      },
      {
        "astId": 10398,
        "contract": "contracts/Orderbook.sol:Orderbook",
        "label": "orderLength",
        "offset": 0,
        "slot": "202",
        "type": "t_uint256"
      },
      {
        "astId": 10403,
        "contract": "contracts/Orderbook.sol:Orderbook",
        "label": "orders",
        "offset": 0,
        "slot": "203",
        "type": "t_mapping(t_uint256,t_struct(Order)15579_storage)"
      },
      {
        "astId": 10407,
        "contract": "contracts/Orderbook.sol:Orderbook",
        "label": "equityTokenOwnerShipAmount",
        "offset": 0,
        "slot": "204",
        "type": "t_mapping(t_address,t_uint256)"
      },
      {
        "astId": 10411,
        "contract": "contracts/Orderbook.sol:Orderbook",
        "label": "orderToOwner",
        "offset": 0,
        "slot": "205",
        "type": "t_mapping(t_uint256,t_address)"
      },
      {
        "astId": 10413,
        "contract": "contracts/Orderbook.sol:Orderbook",
        "label": "totalFee",
        "offset": 0,
        "slot": "206",
        "type": "t_uint256"
      }
    ],
    "types": {
      "t_address": {
        "encoding": "inplace",
        "label": "address",
        "numberOfBytes": "20"
      },
      "t_array(t_uint256)49_storage": {
        "base": "t_uint256",
        "encoding": "inplace",
        "label": "uint256[49]",
        "numberOfBytes": "1568"
      },
      "t_array(t_uint256)50_storage": {
        "base": "t_uint256",
        "encoding": "inplace",
        "label": "uint256[50]",
        "numberOfBytes": "1600"
      },
      "t_bool": {
        "encoding": "inplace",
        "label": "bool",
        "numberOfBytes": "1"
      },
      "t_bytes32": {
        "encoding": "inplace",
        "label": "bytes32",
        "numberOfBytes": "32"
      },
      "t_enum(State)15563": {
        "encoding": "inplace",
        "label": "enum IOrderbook.State",
        "numberOfBytes": "1"
      },
      "t_mapping(t_address,t_bool)": {
        "encoding": "mapping",
        "key": "t_address",
        "label": "mapping(address => bool)",
        "numberOfBytes": "32",
        "value": "t_bool"
      },
      "t_mapping(t_address,t_uint256)": {
        "encoding": "mapping",
        "key": "t_address",
        "label": "mapping(address => uint256)",
        "numberOfBytes": "32",
        "value": "t_uint256"
      },
      "t_mapping(t_bytes32,t_struct(RoleData)23_storage)": {
        "encoding": "mapping",
        "key": "t_bytes32",
        "label": "mapping(bytes32 => struct AccessControlUpgradeable.RoleData)",
        "numberOfBytes": "32",
        "value": "t_struct(RoleData)23_storage"
      },
      "t_mapping(t_uint256,t_address)": {
        "encoding": "mapping",
        "key": "t_uint256",
        "label": "mapping(uint256 => address)",
        "numberOfBytes": "32",
        "value": "t_address"
      },
      "t_mapping(t_uint256,t_struct(Order)15579_storage)": {
        "encoding": "mapping",
        "key": "t_uint256",
        "label": "mapping(uint256 => struct IOrderbook.Order)",
        "numberOfBytes": "32",
        "value": "t_struct(Order)15579_storage"
      },
      "t_struct(Order)15579_storage": {
        "encoding": "inplace",
        "label": "struct IOrderbook.Order",
        "members": [
          {
            "astId": 15565,
            "contract": "contracts/Orderbook.sol:Orderbook",
            "label": "equityToken",
            "offset": 0,
            "slot": "0",
            "type": "t_address"
          },
          {
            "astId": 15567,
            "contract": "contracts/Orderbook.sol:Orderbook",
            "label": "equityTokenOwner",
            "offset": 0,
            "slot": "1",
            "type": "t_address"
          },
          {
            "astId": 15569,
            "contract": "contracts/Orderbook.sol:Orderbook",
            "label": "pricePerToken",
            "offset": 0,
            "slot": "2",
            "type": "t_uint256"
          },
          {
            "astId": 15571,
            "contract": "contracts/Orderbook.sol:Orderbook",
            "label": "totalOrderAmount",
            "offset": 0,
            "slot": "3",
            "type": "t_uint256"
          },
          {
            "astId": 15573,
            "contract": "contracts/Orderbook.sol:Orderbook",
            "label": "equityTokenAmount",
            "offset": 0,
            "slot": "4",
            "type": "t_uint256"
          },
          {
            "astId": 15576,
            "contract": "contracts/Orderbook.sol:Orderbook",
            "label": "currentState",
            "offset": 0,
            "slot": "5",
            "type": "t_enum(State)15563"
          },
          {
            "astId": 15578,
            "contract": "contracts/Orderbook.sol:Orderbook",
            "label": "ppraFee",
            "offset": 1,
            "slot": "5",
            "type": "t_bool"
          }
        ],
        "numberOfBytes": "192"
      },
      "t_struct(RoleData)23_storage": {
        "encoding": "inplace",
        "label": "struct AccessControlUpgradeable.RoleData",
        "members": [
          {
            "astId": 20,
            "contract": "contracts/Orderbook.sol:Orderbook",
            "label": "members",
            "offset": 0,
            "slot": "0",
            "type": "t_mapping(t_address,t_bool)"
          },
          {
            "astId": 22,
            "contract": "contracts/Orderbook.sol:Orderbook",
            "label": "adminRole",
            "offset": 0,
            "slot": "1",
            "type": "t_bytes32"
          }
        ],
        "numberOfBytes": "64"
      },
      "t_uint256": {
        "encoding": "inplace",
        "label": "uint256",
        "numberOfBytes": "32"
      },
      "t_uint8": {
        "encoding": "inplace",
        "label": "uint8",
        "numberOfBytes": "1"
      }
    }
  }
}