{
  "address": "0x952F672084621d4480b057DA0010D8e1a33B3858",
  "abi": [
    {
      "inputs": [
        {
          "internalType": "contract IEntryPoint",
          "name": "_entryPoint",
          "type": "address"
        }
      ],
      "stateMutability": "nonpayable",
      "type": "constructor"
    },
    {
      "inputs": [],
      "name": "SenderNotExisted",
      "type": "error"
    },
    {
      "inputs": [
        {
          "internalType": "address",
          "name": "",
          "type": "address"
        }
      ],
      "name": "SenderNotWhitelisted",
      "type": "error"
    },
    {
      "anonymous": false,
      "inputs": [
        {
          "indexed": true,
          "internalType": "address",
          "name": "onBehlafOf",
          "type": "address"
        },
        {
          "indexed": true,
          "internalType": "address",
          "name": "to",
          "type": "address"
        },
        {
          "indexed": false,
          "internalType": "uint256",
          "name": "gas",
          "type": "uint256"
        }
      ],
      "name": "Accepted",
      "type": "event"
    },
    {
      "anonymous": false,
      "inputs": [
        {
          "indexed": true,
          "internalType": "address",
          "name": "previousOwner",
          "type": "address"
        },
        {
          "indexed": true,
          "internalType": "address",
          "name": "newOwner",
          "type": "address"
        }
      ],
      "name": "OwnershipTransferred",
      "type": "event"
    },
    {
      "anonymous": false,
      "inputs": [
        {
          "indexed": false,
          "internalType": "address",
          "name": "addr",
          "type": "address"
        }
      ],
      "name": "WhitelistedSenderAddressAdded",
      "type": "event"
    },
    {
      "anonymous": false,
      "inputs": [
        {
          "indexed": false,
          "internalType": "address",
          "name": "addr",
          "type": "address"
        }
      ],
      "name": "WhitelistedSenderAddressRemoved",
      "type": "event"
    },
    {
      "anonymous": false,
      "inputs": [
        {
          "indexed": false,
          "internalType": "address",
          "name": "addr",
          "type": "address"
        }
      ],
      "name": "WhitelistedTargetAddressAdded",
      "type": "event"
    },
    {
      "anonymous": false,
      "inputs": [
        {
          "indexed": false,
          "internalType": "address",
          "name": "addr",
          "type": "address"
        }
      ],
      "name": "WhitelistedTargetAddressRemoved",
      "type": "event"
    },
    {
      "inputs": [
        {
          "internalType": "uint32",
          "name": "unstakeDelaySec",
          "type": "uint32"
        }
      ],
      "name": "addStake",
      "outputs": [],
      "stateMutability": "payable",
      "type": "function"
    },
    {
      "inputs": [],
      "name": "deposit",
      "outputs": [],
      "stateMutability": "payable",
      "type": "function"
    },
    {
      "inputs": [],
      "name": "entryPoint",
      "outputs": [
        {
          "internalType": "contract IEntryPoint",
          "name": "",
          "type": "address"
        }
      ],
      "stateMutability": "view",
      "type": "function"
    },
    {
      "inputs": [],
      "name": "getDeposit",
      "outputs": [
        {
          "internalType": "uint256",
          "name": "",
          "type": "uint256"
        }
      ],
      "stateMutability": "view",
      "type": "function"
    },
    {
      "inputs": [
        {
          "internalType": "address",
          "name": "sender",
          "type": "address"
        }
      ],
      "name": "isWhitelistedSender",
      "outputs": [
        {
          "internalType": "bool",
          "name": "",
          "type": "bool"
        }
      ],
      "stateMutability": "view",
      "type": "function"
    },
    {
      "inputs": [
        {
          "internalType": "address",
          "name": "target",
          "type": "address"
        }
      ],
      "name": "isWhitelistedTarget",
      "outputs": [
        {
          "internalType": "bool",
          "name": "",
          "type": "bool"
        }
      ],
      "stateMutability": "view",
      "type": "function"
    },
    {
      "inputs": [],
      "name": "owner",
      "outputs": [
        {
          "internalType": "address",
          "name": "",
          "type": "address"
        }
      ],
      "stateMutability": "view",
      "type": "function"
    },
    {
      "inputs": [
        {
          "internalType": "enum IPaymaster.PostOpMode",
          "name": "mode",
          "type": "uint8"
        },
        {
          "internalType": "bytes",
          "name": "context",
          "type": "bytes"
        },
        {
          "internalType": "uint256",
          "name": "actualGasCost",
          "type": "uint256"
        }
      ],
      "name": "postOp",
      "outputs": [],
      "stateMutability": "nonpayable",
      "type": "function"
    },
    {
      "inputs": [],
      "name": "renounceOwnership",
      "outputs": [],
      "stateMutability": "nonpayable",
      "type": "function"
    },
    {
      "inputs": [
        {
          "internalType": "address",
          "name": "",
          "type": "address"
        }
      ],
      "name": "senderWhitelist",
      "outputs": [
        {
          "internalType": "bool",
          "name": "",
          "type": "bool"
        }
      ],
      "stateMutability": "view",
      "type": "function"
    },
    {
      "inputs": [
        {
          "internalType": "contract IEntryPoint",
          "name": "_entryPoint",
          "type": "address"
        }
      ],
      "name": "setEntryPoint",
      "outputs": [],
      "stateMutability": "nonpayable",
      "type": "function"
    },
    {
      "inputs": [
        {
          "internalType": "address",
          "name": "",
          "type": "address"
        }
      ],
      "name": "targetWhitelist",
      "outputs": [
        {
          "internalType": "bool",
          "name": "",
          "type": "bool"
        }
      ],
      "stateMutability": "view",
      "type": "function"
    },
    {
      "inputs": [
        {
          "internalType": "address",
          "name": "newOwner",
          "type": "address"
        }
      ],
      "name": "transferOwnership",
      "outputs": [],
      "stateMutability": "nonpayable",
      "type": "function"
    },
    {
      "inputs": [],
      "name": "unlockStake",
      "outputs": [],
      "stateMutability": "nonpayable",
      "type": "function"
    },
    {
      "inputs": [
        {
          "components": [
            {
              "internalType": "address",
              "name": "sender",
              "type": "address"
            },
            {
              "internalType": "uint256",
              "name": "nonce",
              "type": "uint256"
            },
            {
              "internalType": "bytes",
              "name": "initCode",
              "type": "bytes"
            },
            {
              "internalType": "bytes",
              "name": "callData",
              "type": "bytes"
            },
            {
              "internalType": "uint256",
              "name": "callGasLimit",
              "type": "uint256"
            },
            {
              "internalType": "uint256",
              "name": "verificationGasLimit",
              "type": "uint256"
            },
            {
              "internalType": "uint256",
              "name": "preVerificationGas",
              "type": "uint256"
            },
            {
              "internalType": "uint256",
              "name": "maxFeePerGas",
              "type": "uint256"
            },
            {
              "internalType": "uint256",
              "name": "maxPriorityFeePerGas",
              "type": "uint256"
            },
            {
              "internalType": "bytes",
              "name": "paymasterAndData",
              "type": "bytes"
            },
            {
              "internalType": "bytes",
              "name": "signature",
              "type": "bytes"
            }
          ],
          "internalType": "struct UserOperation",
          "name": "userOp",
          "type": "tuple"
        },
        {
          "internalType": "bytes32",
          "name": "",
          "type": "bytes32"
        },
        {
          "internalType": "uint256",
          "name": "",
          "type": "uint256"
        }
      ],
      "name": "validatePaymasterUserOp",
      "outputs": [
        {
          "internalType": "bytes",
          "name": "context",
          "type": "bytes"
        },
        {
          "internalType": "uint256",
          "name": "validationData",
          "type": "uint256"
        }
      ],
      "stateMutability": "view",
      "type": "function"
    },
    {
      "inputs": [
        {
          "internalType": "address",
          "name": "sender",
          "type": "address"
        }
      ],
      "name": "whitelistSender",
      "outputs": [],
      "stateMutability": "nonpayable",
      "type": "function"
    },
    {
      "inputs": [
        {
          "internalType": "address",
          "name": "target",
          "type": "address"
        }
      ],
      "name": "whitelistTarget",
      "outputs": [],
      "stateMutability": "nonpayable",
      "type": "function"
    },
    {
      "inputs": [
        {
          "internalType": "address payable",
          "name": "withdrawAddress",
          "type": "address"
        }
      ],
      "name": "withdrawStake",
      "outputs": [],
      "stateMutability": "nonpayable",
      "type": "function"
    },
    {
      "inputs": [
        {
          "internalType": "address payable",
          "name": "withdrawAddress",
          "type": "address"
        },
        {
          "internalType": "uint256",
          "name": "amount",
          "type": "uint256"
        }
      ],
      "name": "withdrawTo",
      "outputs": [],
      "stateMutability": "nonpayable",
      "type": "function"
    }
  ],
  "transactionHash": "0x6a6f0ac0c4f60f2cfa51cd18bce4bcd1aae63c79462961f3ff1faa745a9a90a5",
  "args": [
    "0x5FF137D4b0FDCD49DcA30c7CF57E578a026d2789"
  ],
  "numDeployments": 1,
  "solcInputHash": "f7a94bd739f661e3876fd2b275b3baa4",
  "bytecode": "0x60806040523480156200001157600080fd5b5060405162001a8e38038062001a8e8339818101604052810190620000379190620002c9565b80620000586200004c6200007160201b60201c565b6200007960201b60201c565b62000069816200013d60201b60201c565b50506200037e565b600033905090565b60008060009054906101000a900473ffffffffffffffffffffffffffffffffffffffff169050816000806101000a81548173ffffffffffffffffffffffffffffffffffffffff021916908373ffffffffffffffffffffffffffffffffffffffff1602179055508173ffffffffffffffffffffffffffffffffffffffff168173ffffffffffffffffffffffffffffffffffffffff167f8be0079c531659141344cd1fd0a4f28419497f9722a3daafe3b4186f6b6457e060405160405180910390a35050565b6200014d6200019160201b60201c565b80600160006101000a81548173ffffffffffffffffffffffffffffffffffffffff021916908373ffffffffffffffffffffffffffffffffffffffff16021790555050565b620001a16200007160201b60201c565b73ffffffffffffffffffffffffffffffffffffffff16620001c76200022260201b60201c565b73ffffffffffffffffffffffffffffffffffffffff161462000220576040517f08c379a000000000000000000000000000000000000000000000000000000000815260040162000217906200035c565b60405180910390fd5b565b60008060009054906101000a900473ffffffffffffffffffffffffffffffffffffffff16905090565b600080fd5b600073ffffffffffffffffffffffffffffffffffffffff82169050919050565b60006200027d8262000250565b9050919050565b6000620002918262000270565b9050919050565b620002a38162000284565b8114620002af57600080fd5b50565b600081519050620002c38162000298565b92915050565b600060208284031215620002e257620002e16200024b565b5b6000620002f284828501620002b2565b91505092915050565b600082825260208201905092915050565b7f4f776e61626c653a2063616c6c6572206973206e6f7420746865206f776e6572600082015250565b600062000344602083620002fb565b915062000351826200030c565b602082019050919050565b60006020820190508181036000830152620003778162000335565b9050919050565b611700806200038e6000396000f3fe6080604052600436106101145760003560e01c80638da5cb5b116100a0578063c23a5cea11610064578063c23a5cea1461037a578063c399ec88146103a3578063d0e30db0146103ce578063f2fde38b146103d8578063f465c77e1461040157610114565b80638da5cb5b146102a7578063907caa00146102d2578063a9a234091461030f578063b0d691fe14610338578063bb9fe6bf1461036357610114565b80632f10a6c6116100e75780632f10a6c6146101c4578063584465f2146101ed578063715018a6146102165780638222f07d1461022d578063858437b01461026a57610114565b80630396cb60146101195780631b9e2fad146101355780631cfda9fa14610172578063205c28781461019b575b600080fd5b610133600480360381019061012e9190610ed1565b61043f565b005b34801561014157600080fd5b5061015c60048036038101906101579190610f5c565b6104d8565b6040516101699190610fa4565b60405180910390f35b34801561017e57600080fd5b5061019960048036038101906101949190610f5c565b61052e565b005b3480156101a757600080fd5b506101c260048036038101906101bd9190611033565b6105c8565b005b3480156101d057600080fd5b506101eb60048036038101906101e69190610f5c565b610663565b005b3480156101f957600080fd5b50610214600480360381019061020f91906110b1565b6106fd565b005b34801561022257600080fd5b5061022b610749565b005b34801561023957600080fd5b50610254600480360381019061024f9190610f5c565b61075d565b6040516102619190610fa4565b60405180910390f35b34801561027657600080fd5b50610291600480360381019061028c9190610f5c565b61077d565b60405161029e9190610fa4565b60405180910390f35b3480156102b357600080fd5b506102bc61079d565b6040516102c991906110ed565b60405180910390f35b3480156102de57600080fd5b506102f960048036038101906102f49190610f5c565b6107c6565b6040516103069190610fa4565b60405180910390f35b34801561031b57600080fd5b5061033660048036038101906103319190611192565b61081c565b005b34801561034457600080fd5b5061034d610836565b60405161035a9190611265565b60405180910390f35b34801561036f57600080fd5b5061037861085c565b005b34801561038657600080fd5b506103a1600480360381019061039c9190611280565b6108e8565b005b3480156103af57600080fd5b506103b8610980565b6040516103c591906112bc565b60405180910390f35b6103d6610a23565b005b3480156103e457600080fd5b506103ff60048036038101906103fa9190610f5c565b610ab3565b005b34801561040d57600080fd5b5061042860048036038101906104239190611332565b610b36565b604051610436929190611431565b60405180910390f35b610447610caa565b600160009054906101000a900473ffffffffffffffffffffffffffffffffffffffff1673ffffffffffffffffffffffffffffffffffffffff16630396cb6034836040518363ffffffff1660e01b81526004016104a39190611470565b6000604051808303818588803b1580156104bc57600080fd5b505af11580156104d0573d6000803e3d6000fd5b505050505050565b6000600260008373ffffffffffffffffffffffffffffffffffffffff1673ffffffffffffffffffffffffffffffffffffffff16815260200190815260200160002060009054906101000a900460ff169050919050565b610536610caa565b6001600360008373ffffffffffffffffffffffffffffffffffffffff1673ffffffffffffffffffffffffffffffffffffffff16815260200190815260200160002060006101000a81548160ff0219169083151502179055507fb247c6bc9b15399c4e26c64254ec9e9a0d897aaa8360bc962845e2ee079d2cd5816040516105bd91906110ed565b60405180910390a150565b6105d0610caa565b600160009054906101000a900473ffffffffffffffffffffffffffffffffffffffff1673ffffffffffffffffffffffffffffffffffffffff1663205c287883836040518363ffffffff1660e01b815260040161062d92919061149a565b600060405180830381600087803b15801561064757600080fd5b505af115801561065b573d6000803e3d6000fd5b505050505050565b61066b610caa565b6001600260008373ffffffffffffffffffffffffffffffffffffffff1673ffffffffffffffffffffffffffffffffffffffff16815260200190815260200160002060006101000a81548160ff0219169083151502179055507fb65748ca52f895b457808c4dfa30c1cb1c28ca296d55794426b00c7a5360b916816040516106f291906110ed565b60405180910390a150565b610705610caa565b80600160006101000a81548173ffffffffffffffffffffffffffffffffffffffff021916908373ffffffffffffffffffffffffffffffffffffffff16021790555050565b610751610caa565b61075b6000610d28565b565b60026020528060005260406000206000915054906101000a900460ff1681565b60036020528060005260406000206000915054906101000a900460ff1681565b60008060009054906101000a900473ffffffffffffffffffffffffffffffffffffffff16905090565b6000600360008373ffffffffffffffffffffffffffffffffffffffff1673ffffffffffffffffffffffffffffffffffffffff16815260200190815260200160002060009054906101000a900460ff169050919050565b610824610dec565b61083084848484610e48565b50505050565b600160009054906101000a900473ffffffffffffffffffffffffffffffffffffffff1681565b610864610caa565b600160009054906101000a900473ffffffffffffffffffffffffffffffffffffffff1673ffffffffffffffffffffffffffffffffffffffff1663bb9fe6bf6040518163ffffffff1660e01b8152600401600060405180830381600087803b1580156108ce57600080fd5b505af11580156108e2573d6000803e3d6000fd5b50505050565b6108f0610caa565b600160009054906101000a900473ffffffffffffffffffffffffffffffffffffffff1673ffffffffffffffffffffffffffffffffffffffff1663c23a5cea826040518263ffffffff1660e01b815260040161094b91906114c3565b600060405180830381600087803b15801561096557600080fd5b505af1158015610979573d6000803e3d6000fd5b5050505050565b6000600160009054906101000a900473ffffffffffffffffffffffffffffffffffffffff1673ffffffffffffffffffffffffffffffffffffffff166370a08231306040518263ffffffff1660e01b81526004016109dd91906110ed565b602060405180830381865afa1580156109fa573d6000803e3d6000fd5b505050506040513d601f19601f82011682018060405250810190610a1e91906114f3565b905090565b600160009054906101000a900473ffffffffffffffffffffffffffffffffffffffff1673ffffffffffffffffffffffffffffffffffffffff1663b760faf934306040518363ffffffff1660e01b8152600401610a7f91906110ed565b6000604051808303818588803b158015610a9857600080fd5b505af1158015610aac573d6000803e3d6000fd5b5050505050565b610abb610caa565b600073ffffffffffffffffffffffffffffffffffffffff168173ffffffffffffffffffffffffffffffffffffffff1603610b2a576040517f08c379a0000000000000000000000000000000000000000000000000000000008152600401610b21906115a3565b60405180910390fd5b610b3381610d28565b50565b6060600080856000016020810190610b4e9190610f5c565b73ffffffffffffffffffffffffffffffffffffffff163b03610b9c576040517f817206af00000000000000000000000000000000000000000000000000000000815260040160405180910390fd5b60026000866000016020810190610bb39190610f5c565b73ffffffffffffffffffffffffffffffffffffffff1673ffffffffffffffffffffffffffffffffffffffff16815260200190815260200160002060009054906101000a900460ff16610c4e57846000016020810190610c129190610f5c565b6040517fbf3f9389000000000000000000000000000000000000000000000000000000008152600401610c4591906110ed565b60405180910390fd5b600067ffffffffffffffff811115610c6957610c686115c3565b5b6040519080825280601f01601f191660200182016040528015610c9b5781602001600182028036833780820191505090505b50600091509150935093915050565b610cb2610e83565b73ffffffffffffffffffffffffffffffffffffffff16610cd061079d565b73ffffffffffffffffffffffffffffffffffffffff1614610d26576040517f08c379a0000000000000000000000000000000000000000000000000000000008152600401610d1d9061163e565b60405180910390fd5b565b60008060009054906101000a900473ffffffffffffffffffffffffffffffffffffffff169050816000806101000a81548173ffffffffffffffffffffffffffffffffffffffff021916908373ffffffffffffffffffffffffffffffffffffffff1602179055508173ffffffffffffffffffffffffffffffffffffffff168173ffffffffffffffffffffffffffffffffffffffff167f8be0079c531659141344cd1fd0a4f28419497f9722a3daafe3b4186f6b6457e060405160405180910390a35050565b600160009054906101000a900473ffffffffffffffffffffffffffffffffffffffff1673ffffffffffffffffffffffffffffffffffffffff163373ffffffffffffffffffffffffffffffffffffffff1614610e4657600080fd5b565b6040517f08c379a0000000000000000000000000000000000000000000000000000000008152600401610e7a906116aa565b60405180910390fd5b600033905090565b600080fd5b600080fd5b600063ffffffff82169050919050565b610eae81610e95565b8114610eb957600080fd5b50565b600081359050610ecb81610ea5565b92915050565b600060208284031215610ee757610ee6610e8b565b5b6000610ef584828501610ebc565b91505092915050565b600073ffffffffffffffffffffffffffffffffffffffff82169050919050565b6000610f2982610efe565b9050919050565b610f3981610f1e565b8114610f4457600080fd5b50565b600081359050610f5681610f30565b92915050565b600060208284031215610f7257610f71610e8b565b5b6000610f8084828501610f47565b91505092915050565b60008115159050919050565b610f9e81610f89565b82525050565b6000602082019050610fb96000830184610f95565b92915050565b6000610fca82610efe565b9050919050565b610fda81610fbf565b8114610fe557600080fd5b50565b600081359050610ff781610fd1565b92915050565b6000819050919050565b61101081610ffd565b811461101b57600080fd5b50565b60008135905061102d81611007565b92915050565b6000806040838503121561104a57611049610e8b565b5b600061105885828601610fe8565b92505060206110698582860161101e565b9150509250929050565b600061107e82610f1e565b9050919050565b61108e81611073565b811461109957600080fd5b50565b6000813590506110ab81611085565b92915050565b6000602082840312156110c7576110c6610e8b565b5b60006110d58482850161109c565b91505092915050565b6110e781610f1e565b82525050565b600060208201905061110260008301846110de565b92915050565b6003811061111557600080fd5b50565b60008135905061112781611108565b92915050565b600080fd5b600080fd5b600080fd5b60008083601f8401126111525761115161112d565b5b8235905067ffffffffffffffff81111561116f5761116e611132565b5b60208301915083600182028301111561118b5761118a611137565b5b9250929050565b600080600080606085870312156111ac576111ab610e8b565b5b60006111ba87828801611118565b945050602085013567ffffffffffffffff8111156111db576111da610e90565b5b6111e78782880161113c565b935093505060406111fa8782880161101e565b91505092959194509250565b6000819050919050565b600061122b61122661122184610efe565b611206565b610efe565b9050919050565b600061123d82611210565b9050919050565b600061124f82611232565b9050919050565b61125f81611244565b82525050565b600060208201905061127a6000830184611256565b92915050565b60006020828403121561129657611295610e8b565b5b60006112a484828501610fe8565b91505092915050565b6112b681610ffd565b82525050565b60006020820190506112d160008301846112ad565b92915050565b600080fd5b600061016082840312156112f3576112f26112d7565b5b81905092915050565b6000819050919050565b61130f816112fc565b811461131a57600080fd5b50565b60008135905061132c81611306565b92915050565b60008060006060848603121561134b5761134a610e8b565b5b600084013567ffffffffffffffff81111561136957611368610e90565b5b611375868287016112dc565b93505060206113868682870161131d565b92505060406113978682870161101e565b9150509250925092565b600081519050919050565b600082825260208201905092915050565b60005b838110156113db5780820151818401526020810190506113c0565b60008484015250505050565b6000601f19601f8301169050919050565b6000611403826113a1565b61140d81856113ac565b935061141d8185602086016113bd565b611426816113e7565b840191505092915050565b6000604082019050818103600083015261144b81856113f8565b905061145a60208301846112ad565b9392505050565b61146a81610e95565b82525050565b60006020820190506114856000830184611461565b92915050565b61149481610fbf565b82525050565b60006040820190506114af600083018561148b565b6114bc60208301846112ad565b9392505050565b60006020820190506114d8600083018461148b565b92915050565b6000815190506114ed81611007565b92915050565b60006020828403121561150957611508610e8b565b5b6000611517848285016114de565b91505092915050565b600082825260208201905092915050565b7f4f776e61626c653a206e6577206f776e657220697320746865207a65726f206160008201527f6464726573730000000000000000000000000000000000000000000000000000602082015250565b600061158d602683611520565b915061159882611531565b604082019050919050565b600060208201905081810360008301526115bc81611580565b9050919050565b7f4e487b7100000000000000000000000000000000000000000000000000000000600052604160045260246000fd5b7f4f776e61626c653a2063616c6c6572206973206e6f7420746865206f776e6572600082015250565b6000611628602083611520565b9150611633826115f2565b602082019050919050565b600060208201905081810360008301526116578161161b565b9050919050565b7f6d757374206f7665727269646500000000000000000000000000000000000000600082015250565b6000611694600d83611520565b915061169f8261165e565b602082019050919050565b600060208201905081810360008301526116c381611687565b905091905056fea26469706673582212208731fa19625e482fb86551c1204766d49c3e47662761ccfb2aba30d404b0c9f464736f6c63430008120033",
  "devdoc": {
    "kind": "dev",
    "methods": {
      "addStake(uint32)": {
        "params": {
          "unstakeDelaySec": "- the unstake delay for this paymaster. Can only be increased."
        }
      },
      "owner()": {
        "details": "Returns the address of the current owner."
      },
      "postOp(uint8,bytes,uint256)": {
        "params": {
          "actualGasCost": "- actual gas used so far (without this postOp call).",
          "context": "- the context value returned by validatePaymasterUserOp",
          "mode": "enum with the following options:      opSucceeded - user operation succeeded.      opReverted  - user op reverted. still has to pay for gas.      postOpReverted - user op succeeded, but caused postOp (in mode=opSucceeded) to revert.                       Now this is the 2nd call, after user's op was deliberately reverted."
        }
      },
      "renounceOwnership()": {
        "details": "Leaves the contract without owner. It will not be possible to call `onlyOwner` functions. Can only be called by the current owner. NOTE: Renouncing ownership will leave the contract without an owner, thereby disabling any functionality that is only available to the owner."
      },
      "transferOwnership(address)": {
        "details": "Transfers ownership of the contract to a new account (`newOwner`). Can only be called by the current owner."
      },
      "withdrawStake(address)": {
        "params": {
          "withdrawAddress": "the address to send withdrawn value."
        }
      },
      "withdrawTo(address,uint256)": {
        "params": {
          "amount": "to withdraw",
          "withdrawAddress": "target to send to"
        }
      }
    },
    "version": 1
  },
  "userdoc": {
    "kind": "user",
    "methods": {
      "addStake(uint32)": {
        "notice": "add stake for this paymaster. This method can also carry eth value to add to the current stake."
      },
      "deposit()": {
        "notice": "add a deposit for this paymaster, used for paying for transaction fees"
      },
      "getDeposit()": {
        "notice": "return current paymaster's deposit on the entryPoint."
      },
      "postOp(uint8,bytes,uint256)": {
        "notice": "post-operation handler. Must verify sender is the entryPoint"
      },
      "unlockStake()": {
        "notice": "unlock the stake, in order to withdraw it. The paymaster can't serve requests once unlocked, until it calls addStake again"
      },
      "withdrawStake(address)": {
        "notice": "withdraw the entire paymaster's stake. stake must be unlocked first (and then wait for the unstakeDelay to be over)"
      },
      "withdrawTo(address,uint256)": {
        "notice": "withdraw value from the deposit"
      }
    },
    "version": 1
  },
  "storageLayout": {
    "storage": [
      {
        "astId": 4555,
        "contract": "contracts/accountAbstraction/Paymaster.sol:Paymaster",
        "label": "_owner",
        "offset": 0,
        "slot": "0",
        "type": "t_address"
      },
      {
        "astId": 13868,
        "contract": "contracts/accountAbstraction/Paymaster.sol:Paymaster",
        "label": "entryPoint",
        "offset": 0,
        "slot": "1",
        "type": "t_contract(IEntryPoint)14934"
      },
      {
        "astId": 13575,
        "contract": "contracts/accountAbstraction/Paymaster.sol:Paymaster",
        "label": "senderWhitelist",
        "offset": 0,
        "slot": "2",
        "type": "t_mapping(t_address,t_bool)"
      },
      {
        "astId": 13579,
        "contract": "contracts/accountAbstraction/Paymaster.sol:Paymaster",
        "label": "targetWhitelist",
        "offset": 0,
        "slot": "3",
        "type": "t_mapping(t_address,t_bool)"
      }
    ],
    "types": {
      "t_address": {
        "encoding": "inplace",
        "label": "address",
        "numberOfBytes": "20"
      },
      "t_bool": {
        "encoding": "inplace",
        "label": "bool",
        "numberOfBytes": "1"
      },
      "t_contract(IEntryPoint)14934": {
        "encoding": "inplace",
        "label": "contract IEntryPoint",
        "numberOfBytes": "20"
      },
      "t_mapping(t_address,t_bool)": {
        "encoding": "mapping",
        "key": "t_address",
        "label": "mapping(address => bool)",
        "numberOfBytes": "32",
        "value": "t_bool"
      }
    }
  }
}