{
  "address": "0x155486E1986238ECE930f500eE262c593cCD3872",
  "abi": [
    {
      "inputs": [],
      "stateMutability": "nonpayable",
      "type": "constructor"
    },
    {
      "inputs": [],
      "name": "InvalidShortString",
      "type": "error"
    },
    {
      "inputs": [
        {
          "internalType": "string",
          "name": "str",
          "type": "string"
        }
      ],
      "name": "StringTooLong",
      "type": "error"
    },
    {
      "anonymous": false,
      "inputs": [
        {
          "indexed": true,
          "internalType": "address",
          "name": "owner",
          "type": "address"
        },
        {
          "indexed": true,
          "internalType": "address",
          "name": "spender",
          "type": "address"
        },
        {
          "indexed": false,
          "internalType": "uint256",
          "name": "value",
          "type": "uint256"
        }
      ],
      "name": "Approval",
      "type": "event"
    },
    {
      "anonymous": false,
      "inputs": [],
      "name": "EIP712DomainChanged",
      "type": "event"
    },
    {
      "anonymous": false,
      "inputs": [
        {
          "indexed": true,
          "internalType": "address",
          "name": "from",
          "type": "address"
        },
        {
          "indexed": true,
          "internalType": "address",
          "name": "to",
          "type": "address"
        },
        {
          "indexed": false,
          "internalType": "uint256",
          "name": "value",
          "type": "uint256"
        }
      ],
      "name": "Transfer",
      "type": "event"
    },
    {
      "inputs": [],
      "name": "DOMAIN_SEPARATOR",
      "outputs": [
        {
          "internalType": "bytes32",
          "name": "",
          "type": "bytes32"
        }
      ],
      "stateMutability": "view",
      "type": "function"
    },
    {
      "inputs": [
        {
          "internalType": "address",
          "name": "owner",
          "type": "address"
        },
        {
          "internalType": "address",
          "name": "spender",
          "type": "address"
        }
      ],
      "name": "allowance",
      "outputs": [
        {
          "internalType": "uint256",
          "name": "",
          "type": "uint256"
        }
      ],
      "stateMutability": "view",
      "type": "function"
    },
    {
      "inputs": [
        {
          "internalType": "address",
          "name": "spender",
          "type": "address"
        },
        {
          "internalType": "uint256",
          "name": "amount",
          "type": "uint256"
        }
      ],
      "name": "approve",
      "outputs": [
        {
          "internalType": "bool",
          "name": "",
          "type": "bool"
        }
      ],
      "stateMutability": "nonpayable",
      "type": "function"
    },
    {
      "inputs": [
        {
          "internalType": "address",
          "name": "account",
          "type": "address"
        }
      ],
      "name": "balanceOf",
      "outputs": [
        {
          "internalType": "uint256",
          "name": "",
          "type": "uint256"
        }
      ],
      "stateMutability": "view",
      "type": "function"
    },
    {
      "inputs": [],
      "name": "decimals",
      "outputs": [
        {
          "internalType": "uint8",
          "name": "",
          "type": "uint8"
        }
      ],
      "stateMutability": "pure",
      "type": "function"
    },
    {
      "inputs": [
        {
          "internalType": "address",
          "name": "spender",
          "type": "address"
        },
        {
          "internalType": "uint256",
          "name": "subtractedValue",
          "type": "uint256"
        }
      ],
      "name": "decreaseAllowance",
      "outputs": [
        {
          "internalType": "bool",
          "name": "",
          "type": "bool"
        }
      ],
      "stateMutability": "nonpayable",
      "type": "function"
    },
    {
      "inputs": [],
      "name": "eip712Domain",
      "outputs": [
        {
          "internalType": "bytes1",
          "name": "fields",
          "type": "bytes1"
        },
        {
          "internalType": "string",
          "name": "name",
          "type": "string"
        },
        {
          "internalType": "string",
          "name": "version",
          "type": "string"
        },
        {
          "internalType": "uint256",
          "name": "chainId",
          "type": "uint256"
        },
        {
          "internalType": "address",
          "name": "verifyingContract",
          "type": "address"
        },
        {
          "internalType": "bytes32",
          "name": "salt",
          "type": "bytes32"
        },
        {
          "internalType": "uint256[]",
          "name": "extensions",
          "type": "uint256[]"
        }
      ],
      "stateMutability": "view",
      "type": "function"
    },
    {
      "inputs": [
        {
          "internalType": "address",
          "name": "spender",
          "type": "address"
        },
        {
          "internalType": "uint256",
          "name": "addedValue",
          "type": "uint256"
        }
      ],
      "name": "increaseAllowance",
      "outputs": [
        {
          "internalType": "bool",
          "name": "",
          "type": "bool"
        }
      ],
      "stateMutability": "nonpayable",
      "type": "function"
    },
    {
      "inputs": [
        {
          "internalType": "address",
          "name": "user",
          "type": "address"
        },
        {
          "internalType": "uint256",
          "name": "amount",
          "type": "uint256"
        }
      ],
      "name": "mintTo",
      "outputs": [],
      "stateMutability": "nonpayable",
      "type": "function"
    },
    {
      "inputs": [],
      "name": "name",
      "outputs": [
        {
          "internalType": "string",
          "name": "",
          "type": "string"
        }
      ],
      "stateMutability": "view",
      "type": "function"
    },
    {
      "inputs": [
        {
          "internalType": "address",
          "name": "owner",
          "type": "address"
        }
      ],
      "name": "nonces",
      "outputs": [
        {
          "internalType": "uint256",
          "name": "",
          "type": "uint256"
        }
      ],
      "stateMutability": "view",
      "type": "function"
    },
    {
      "inputs": [
        {
          "internalType": "address",
          "name": "owner",
          "type": "address"
        },
        {
          "internalType": "address",
          "name": "spender",
          "type": "address"
        },
        {
          "internalType": "uint256",
          "name": "value",
          "type": "uint256"
        },
        {
          "internalType": "uint256",
          "name": "deadline",
          "type": "uint256"
        },
        {
          "internalType": "uint8",
          "name": "v",
          "type": "uint8"
        },
        {
          "internalType": "bytes32",
          "name": "r",
          "type": "bytes32"
        },
        {
          "internalType": "bytes32",
          "name": "s",
          "type": "bytes32"
        }
      ],
      "name": "permit",
      "outputs": [],
      "stateMutability": "nonpayable",
      "type": "function"
    },
    {
      "inputs": [],
      "name": "symbol",
      "outputs": [
        {
          "internalType": "string",
          "name": "",
          "type": "string"
        }
      ],
      "stateMutability": "view",
      "type": "function"
    },
    {
      "inputs": [],
      "name": "totalSupply",
      "outputs": [
        {
          "internalType": "uint256",
          "name": "",
          "type": "uint256"
        }
      ],
      "stateMutability": "view",
      "type": "function"
    },
    {
      "inputs": [
        {
          "internalType": "address",
          "name": "to",
          "type": "address"
        },
        {
          "internalType": "uint256",
          "name": "amount",
          "type": "uint256"
        }
      ],
      "name": "transfer",
      "outputs": [
        {
          "internalType": "bool",
          "name": "",
          "type": "bool"
        }
      ],
      "stateMutability": "nonpayable",
      "type": "function"
    },
    {
      "inputs": [
        {
          "internalType": "address",
          "name": "from",
          "type": "address"
        },
        {
          "internalType": "address",
          "name": "to",
          "type": "address"
        },
        {
          "internalType": "uint256",
          "name": "amount",
          "type": "uint256"
        }
      ],
      "name": "transferFrom",
      "outputs": [
        {
          "internalType": "bool",
          "name": "",
          "type": "bool"
        }
      ],
      "stateMutability": "nonpayable",
      "type": "function"
    }
  ],
  "transactionHash": "0x1ea65a67838d53739d8fdec48f4757898217dd2186a5ad3b628ab8d5d971867c",
  "args": [],
  "numDeployments": 1,
  "solcInputHash": "a56bc86e7b8b5dd3e0e0e2578067c794",
  "bytecode": "0x610160604081815234620004e1576200001882620004e6565b600e8252602091828101916d2a32b9ba29ba30b13632a1b7b4b760911b938484528151946200004786620004e6565b600e8652818601528151906200005d82620004e6565b60038083526254534360e81b828401528351966200007b88620004e6565b6001808952603160f81b848a0190815282516001600160401b039491929190858111620003e1578154948386811c96168015620004d6575b88871014620004c0578190601f968781116200046a575b5088908783116001146200040357600092620003f7575b505060001982841b1c191690831b1781555b865190858211620003e15760049788548481811c91168015620003d6575b89821014620003c15786811162000376575b5087908684116001146200030b57938394918492600095620002ff575b50501b92600019911b1c19161785555b6200015b8762000502565b976101209889526200016d8a620006c6565b97610140988952519020988960e0525190209061010098828a524660a052865192858401917f8b73c3c69bb8fe3d512ecc4cf759cc79239f7b179b0ffacaa9a75d522b39400f83528885015260608401524660808401523060a084015260a0835260c083019383851090851117620002ea57838752825190206080523060c0523315620002aa575050506002546509184e72a000928382018092116200029557506000917fddf252ad1be2c89b69c2b068fc378daa952ba7f163c4a11628f55a4df523b3ef9160025533835282815284832084815401905584519384523393a351916111b393846200087f853960805184610ed5015260a05184610fa1015260c05184610e9f015260e05184610f2401525183610f4a015251826104b9015251816104e30152f35b601190634e487b7160e01b6000525260246000fd5b7f45524332303a206d696e7420746f20746865207a65726f206164647265737300916101049160649562461bcd60e51b865260c483015260e48201520152fd5b604186634e487b7160e01b6000525260246000fd5b01519350388062000140565b9190601f198416928a600052848a6000209460005b8c898383106200035e575050501062000343575b50505050811b01855562000150565b01519060f884600019921b161c191690553880808062000334565b86860151895590970196948501948893500162000320565b89600052886000208780860160051c8201928b8710620003b7575b0160051c019085905b828110620003aa57505062000123565b600081550185906200039a565b9250819262000391565b60228a634e487b7160e01b6000525260246000fd5b90607f169062000111565b634e487b7160e01b600052604160045260246000fd5b015190503880620000e1565b90859350601f19831691856000528a6000209260005b8c8282106200045357505084116200043a575b505050811b018155620000f3565b015160001983861b60f8161c191690553880806200042c565b838501518655899790950194938401930162000419565b90915083600052886000208780850160051c8201928b8610620004b6575b918791869594930160051c01915b828110620004a6575050620000ca565b6000815585945087910162000496565b9250819262000488565b634e487b7160e01b600052602260045260246000fd5b95607f1695620000b3565b600080fd5b604081019081106001600160401b03821117620003e157604052565b80516020919082811015620005a1575090601f8251116200054057808251920151908083106200053157501790565b82600019910360031b1b161790565b90604051809263305a27a960e01b82528060048301528251908160248401526000935b82851062000587575050604492506000838284010152601f80199101168101030190fd5b848101820151868601604401529381019385935062000563565b6001600160401b038111620003e1576005928354926001938481811c91168015620006bb575b83821014620004c057601f811162000684575b5081601f84116001146200061a57509282939183926000946200060e575b50501b916000199060031b1c191617905560ff90565b015192503880620005f8565b919083601f1981168760005284600020946000905b888383106200066957505050106200064f575b505050811b01905560ff90565b015160001960f88460031b161c1916905538808062000642565b8587015188559096019594850194879350908101906200062f565b8560005284601f846000209201871c820191601f8601881c015b828110620006ae575050620005da565b600081550185906200069e565b90607f1690620005c7565b805160209081811015620007545750601f825111620006f357808251920151908083106200053157501790565b90604051809263305a27a960e01b82528060048301528251908160248401526000935b8285106200073a575050604492506000838284010152601f80199101168101030190fd5b848101820151868601604401529381019385935062000716565b906001600160401b038211620003e157600654926001938481811c9116801562000873575b83821014620004c057601f811162000839575b5081601f8411600114620007cd5750928293918392600094620007c1575b50501b916000199060031b1c19161760065560ff90565b015192503880620007aa565b919083601f198116600660005284600020946000905b888383106200081e575050501062000804575b505050811b0160065560ff90565b015160001960f88460031b161c19169055388080620007f6565b858701518855909601959485019487935090810190620007e3565b600660005284601f84600020920160051c820191601f860160051c015b828110620008665750506200078c565b6000815501859062000856565b90607f16906200077956fe608060408181526004918236101561001657600080fd5b600092833560e01c91826306fdde031461089057508163095ea7b31461086657816318160ddd1461084757816323b872dd1461077d578163313ce567146107615781633644e5151461073d57816339509351146106ed578163449a52f81461062e57816370a08231146105f75781637ecebe00146105bf57816384b0196e146104a157816395d89b41146103b2578163a457c2d71461030a578163a9059cbb146102d9578163d505accf14610120575063dd62ed3e146100d557600080fd5b3461011c578060031936011261011c57806020926100f16109a1565b6100f96109bc565b6001600160a01b0391821683526001865283832091168252845220549051908152f35b5080fd5b8391503461011c5760e036600319011261011c5761013c6109a1565b6101446109bc565b906044359260643560843560ff811681036102d5578142116102925760018060a01b0390818516928389526007602052898920908154916001830190558a519060208201927f6e71edae12b1b97f4d1f60370fef10105fa2faae0126114a169c64845d6126c98452868d840152858a1660608401528a608084015260a083015260c082015260c0815260e0810181811067ffffffffffffffff82111761027f578b525190206102279161021f916101f9610e9c565b908c519161190160f01b83526002830152602282015260c43591604260a4359220610e0d565b919091610cf3565b160361023c5750610239939450610bf1565b80f35b606490602087519162461bcd60e51b8352820152601e60248201527f45524332305065726d69743a20696e76616c6964207369676e617475726500006044820152fd5b634e487b7160e01b8b526041875260248bfd5b875162461bcd60e51b8152602081850152601d60248201527f45524332305065726d69743a206578706972656420646561646c696e650000006044820152606490fd5b8680fd5b50503461011c578060031936011261011c576020906103036102f96109a1565b6024359033610a83565b5160018152f35b905082346103af57826003193601126103af576103256109a1565b918360243592338152600160205281812060018060a01b038616825260205220549082821061035e576020856103038585038733610bf1565b608490602086519162461bcd60e51b8352820152602560248201527f45524332303a2064656372656173656420616c6c6f77616e63652062656c6f77604482015264207a65726f60d81b6064820152fd5b80fd5b9190503461049d578260031936011261049d57805191838154906103d5826109d2565b808652926001928084169081156104725750600114610416575b6104128686610400828b0383610a3e565b51918291602083526020830190610961565b0390f35b815294507f8a35acfbc15ff81a39ae7d344fd709f28e8600b4aa8c65c6b64bfe7fe36bd19b5b82861061045a575050506104008260206104129582010194386103ef565b8054602087870181019190915290950194810161043c565b905061041297508693506020925061040094915060ff191682840152151560051b82010194386103ef565b8280fd5b9190503461049d578260031936011261049d576104dd7f0000000000000000000000000000000000000000000000000000000000000000610fc7565b926105077f00000000000000000000000000000000000000000000000000000000000000006110c3565b908251926020928385019585871067ffffffffffffffff8811176105ac57509280610562838896610555998b9996528686528151998a99600f60f81b8b5260e0868c015260e08b0190610961565b91898303908a0152610961565b924660608801523060808801528460a088015286840360c088015251928381520193925b82811061059557505050500390f35b835185528695509381019392810192600101610586565b634e487b7160e01b845260419052602483fd5b50503461011c57602036600319011261011c5760209181906001600160a01b036105e76109a1565b1681526007845220549051908152f35b50503461011c57602036600319011261011c5760209181906001600160a01b0361061f6109a1565b16815280845220549051908152f35b9190503461049d578060031936011261049d576106496109a1565b6001600160a01b031691602435919083156106ab57506020827fddf252ad1be2c89b69c2b068fc378daa952ba7f163c4a11628f55a4df523b3ef926106918795600254610a60565b60025585855284835280852082815401905551908152a380f35b6020606492519162461bcd60e51b8352820152601f60248201527f45524332303a206d696e7420746f20746865207a65726f2061646472657373006044820152fd5b50503461011c578060031936011261011c576103036020926107366107106109a1565b338352600186528483206001600160a01b03821684528652918490205460243590610a60565b9033610bf1565b50503461011c578160031936011261011c5760209061075a610e9c565b9051908152f35b50503461011c578160031936011261011c576020905160068152f35b8391503461011c57606036600319011261011c576107996109a1565b6107a16109bc565b91846044359460018060a01b0384168152600160205281812033825260205220549060001982036107db575b602086610303878787610a83565b84821061080457509183916107f96020969561030395033383610bf1565b9193948193506107cd565b606490602087519162461bcd60e51b8352820152601d60248201527f45524332303a20696e73756666696369656e7420616c6c6f77616e63650000006044820152fd5b50503461011c578160031936011261011c576020906002549051908152f35b50503461011c578060031936011261011c576020906103036108866109a1565b6024359033610bf1565b8490843461049d578260031936011261049d57826003546108b0816109d2565b8085529160019180831690811561093957506001146108dc575b50505061040082610412940383610a3e565b9450600385527fc2575a0e9e593c00f959f8c92f12db2869c3395a3b0502d05e2516446f71f85b5b8286106109215750505061040082602061041295820101946108ca565b80546020878701810191909152909501948101610904565b61041297508693506020925061040094915060ff191682840152151560051b820101946108ca565b919082519283825260005b84811061098d575050826000602080949584010152601f8019910116010190565b60208183018101518483018201520161096c565b600435906001600160a01b03821682036109b757565b600080fd5b602435906001600160a01b03821682036109b757565b90600182811c92168015610a02575b60208310146109ec57565b634e487b7160e01b600052602260045260246000fd5b91607f16916109e1565b6040810190811067ffffffffffffffff821117610a2857604052565b634e487b7160e01b600052604160045260246000fd5b90601f8019910116810190811067ffffffffffffffff821117610a2857604052565b91908201809211610a6d57565b634e487b7160e01b600052601160045260246000fd5b6001600160a01b03908116918215610b9e5716918215610b4d57600082815280602052604081205491808310610af957604082827fddf252ad1be2c89b69c2b068fc378daa952ba7f163c4a11628f55a4df523b3ef958760209652828652038282205586815220818154019055604051908152a3565b60405162461bcd60e51b815260206004820152602660248201527f45524332303a207472616e7366657220616d6f756e7420657863656564732062604482015265616c616e636560d01b6064820152608490fd5b60405162461bcd60e51b815260206004820152602360248201527f45524332303a207472616e7366657220746f20746865207a65726f206164647260448201526265737360e81b6064820152608490fd5b60405162461bcd60e51b815260206004820152602560248201527f45524332303a207472616e736665722066726f6d20746865207a65726f206164604482015264647265737360d81b6064820152608490fd5b6001600160a01b03908116918215610ca25716918215610c525760207f8c5be1e5ebec7d5bd14f71427d1e84f3dd0314c0f7b2291e5b200ac8c7c3b925918360005260018252604060002085600052825280604060002055604051908152a3565b60405162461bcd60e51b815260206004820152602260248201527f45524332303a20617070726f766520746f20746865207a65726f206164647265604482015261737360f01b6064820152608490fd5b60405162461bcd60e51b8152602060048201526024808201527f45524332303a20617070726f76652066726f6d20746865207a65726f206164646044820152637265737360e01b6064820152608490fd5b6005811015610df75780610d045750565b60018103610d515760405162461bcd60e51b815260206004820152601860248201527f45434453413a20696e76616c6964207369676e617475726500000000000000006044820152606490fd5b60028103610d9e5760405162461bcd60e51b815260206004820152601f60248201527f45434453413a20696e76616c6964207369676e6174757265206c656e677468006044820152606490fd5b600314610da757565b60405162461bcd60e51b815260206004820152602260248201527f45434453413a20696e76616c6964207369676e6174757265202773272076616c604482015261756560f01b6064820152608490fd5b634e487b7160e01b600052602160045260246000fd5b9291907f7fffffffffffffffffffffffffffffff5d576e7357a4501ddfe92f46681b20a08311610e905791608094939160ff602094604051948552168484015260408301526060820152600093849182805260015afa15610e835781516001600160a01b03811615610e7d579190565b50600190565b50604051903d90823e3d90fd5b50505050600090600390565b307f00000000000000000000000000000000000000000000000000000000000000006001600160a01b03161480610f9e575b15610ef7577f000000000000000000000000000000000000000000000000000000000000000090565b60405160208101907f8b73c3c69bb8fe3d512ecc4cf759cc79239f7b179b0ffacaa9a75d522b39400f82527f000000000000000000000000000000000000000000000000000000000000000060408201527f000000000000000000000000000000000000000000000000000000000000000060608201524660808201523060a082015260a0815260c0810181811067ffffffffffffffff821117610a285760405251902090565b507f00000000000000000000000000000000000000000000000000000000000000004614610ece565b60ff81146110055760ff811690601f8211610ff35760405191610fe983610a0c565b8252602082015290565b604051632cd44ac360e21b8152600490fd5b50604051600554816000611018836109d2565b808352926001908181169081156110a15750600114611042575b5061103f92500382610a3e565b90565b6005600090815291507f036b6384b5eca791c62761152d0c79bb0604c104a5fb6f4eb0703f3154bb3db05b848310611086575061103f935050810160200138611032565b8193509081602092548385890101520191019091849261106d565b90506020925061103f94915060ff191682840152151560051b82010138611032565b60ff81146110e55760ff811690601f8211610ff35760405191610fe983610a0c565b506040516006548160006110f8836109d2565b808352926001908181169081156110a1575060011461111e575061103f92500382610a3e565b6006600090815291507ff652222313e28459528d920b65115c16c04f3efc82aaedc97be59f3f377c0d3f5b848310611162575061103f935050810160200138611032565b8193509081602092548385890101520191019091849261114956fea264697066735822122074de4f4e8938acb296c841bb2c8745c08c48f06cf5c1bf8cf108225b8d26bdce64736f6c63430008120033",
  "devdoc": {
    "events": {
      "Approval(address,address,uint256)": {
        "details": "Emitted when the allowance of a `spender` for an `owner` is set by a call to {approve}. `value` is the new allowance."
      },
      "EIP712DomainChanged()": {
        "details": "MAY be emitted to signal that the domain could have changed."
      },
      "Transfer(address,address,uint256)": {
        "details": "Emitted when `value` tokens are moved from one account (`from`) to another (`to`). Note that `value` may be zero."
      }
    },
    "kind": "dev",
    "methods": {
      "DOMAIN_SEPARATOR()": {
        "details": "Returns the domain separator used in the encoding of the signature for {permit}, as defined by {EIP712}."
      },
      "allowance(address,address)": {
        "details": "See {IERC20-allowance}."
      },
      "approve(address,uint256)": {
        "details": "See {IERC20-approve}. NOTE: If `amount` is the maximum `uint256`, the allowance is not updated on `transferFrom`. This is semantically equivalent to an infinite approval. Requirements: - `spender` cannot be the zero address."
      },
      "balanceOf(address)": {
        "details": "See {IERC20-balanceOf}."
      },
      "decimals()": {
        "details": "Returns the number of decimals used to get its user representation. For example, if `decimals` equals `2`, a balance of `505` tokens should be displayed to a user as `5.05` (`505 / 10 ** 2`). Tokens usually opt for a value of 18, imitating the relationship between Ether and Wei. This is the default value returned by this function, unless it's overridden. NOTE: This information is only used for _display_ purposes: it in no way affects any of the arithmetic of the contract, including {IERC20-balanceOf} and {IERC20-transfer}."
      },
      "decreaseAllowance(address,uint256)": {
        "details": "Atomically decreases the allowance granted to `spender` by the caller. This is an alternative to {approve} that can be used as a mitigation for problems described in {IERC20-approve}. Emits an {Approval} event indicating the updated allowance. Requirements: - `spender` cannot be the zero address. - `spender` must have allowance for the caller of at least `subtractedValue`."
      },
      "eip712Domain()": {
        "details": "See {EIP-5267}. _Available since v4.9._"
      },
      "increaseAllowance(address,uint256)": {
        "details": "Atomically increases the allowance granted to `spender` by the caller. This is an alternative to {approve} that can be used as a mitigation for problems described in {IERC20-approve}. Emits an {Approval} event indicating the updated allowance. Requirements: - `spender` cannot be the zero address."
      },
      "name()": {
        "details": "Returns the name of the token."
      },
      "nonces(address)": {
        "details": "Returns the current nonce for `owner`. This value must be included whenever a signature is generated for {permit}. Every successful call to {permit} increases ``owner``'s nonce by one. This prevents a signature from being used multiple times."
      },
      "permit(address,address,uint256,uint256,uint8,bytes32,bytes32)": {
        "details": "Sets `value` as the allowance of `spender` over ``owner``'s tokens, given ``owner``'s signed approval. IMPORTANT: The same issues {IERC20-approve} has related to transaction ordering also apply here. Emits an {Approval} event. Requirements: - `spender` cannot be the zero address. - `deadline` must be a timestamp in the future. - `v`, `r` and `s` must be a valid `secp256k1` signature from `owner` over the EIP712-formatted function arguments. - the signature must use ``owner``'s current nonce (see {nonces}). For more information on the signature format, see the https://eips.ethereum.org/EIPS/eip-2612#specification[relevant EIP section]. CAUTION: See Security Considerations above."
      },
      "symbol()": {
        "details": "Returns the symbol of the token, usually a shorter version of the name."
      },
      "totalSupply()": {
        "details": "See {IERC20-totalSupply}."
      },
      "transfer(address,uint256)": {
        "details": "See {IERC20-transfer}. Requirements: - `to` cannot be the zero address. - the caller must have a balance of at least `amount`."
      },
      "transferFrom(address,address,uint256)": {
        "details": "See {IERC20-transferFrom}. Emits an {Approval} event indicating the updated allowance. This is not required by the EIP. See the note at the beginning of {ERC20}. NOTE: Does not update the allowance if the current allowance is the maximum `uint256`. Requirements: - `from` and `to` cannot be the zero address. - `from` must have a balance of at least `amount`. - the caller must have allowance for ``from``'s tokens of at least `amount`."
      }
    },
    "version": 1
  },
  "userdoc": {
    "kind": "user",
    "methods": {},
    "version": 1
  },
  "storageLayout": {
    "storage": [
      {
        "astId": 5883,
        "contract": "contracts/StableCoin.sol:StableCoin",
        "label": "_balances",
        "offset": 0,
        "slot": "0",
        "type": "t_mapping(t_address,t_uint256)"
      },
      {
        "astId": 5889,
        "contract": "contracts/StableCoin.sol:StableCoin",
        "label": "_allowances",
        "offset": 0,
        "slot": "1",
        "type": "t_mapping(t_address,t_mapping(t_address,t_uint256))"
      },
      {
        "astId": 5891,
        "contract": "contracts/StableCoin.sol:StableCoin",
        "label": "_totalSupply",
        "offset": 0,
        "slot": "2",
        "type": "t_uint256"
      },
      {
        "astId": 5893,
        "contract": "contracts/StableCoin.sol:StableCoin",
        "label": "_name",
        "offset": 0,
        "slot": "3",
        "type": "t_string_storage"
      },
      {
        "astId": 5895,
        "contract": "contracts/StableCoin.sol:StableCoin",
        "label": "_symbol",
        "offset": 0,
        "slot": "4",
        "type": "t_string_storage"
      },
      {
        "astId": 8272,
        "contract": "contracts/StableCoin.sol:StableCoin",
        "label": "_nameFallback",
        "offset": 0,
        "slot": "5",
        "type": "t_string_storage"
      },
      {
        "astId": 8274,
        "contract": "contracts/StableCoin.sol:StableCoin",
        "label": "_versionFallback",
        "offset": 0,
        "slot": "6",
        "type": "t_string_storage"
      },
      {
        "astId": 6555,
        "contract": "contracts/StableCoin.sol:StableCoin",
        "label": "_nonces",
        "offset": 0,
        "slot": "7",
        "type": "t_mapping(t_address,t_struct(Counter)7169_storage)"
      },
      {
        "astId": 6563,
        "contract": "contracts/StableCoin.sol:StableCoin",
        "label": "_PERMIT_TYPEHASH_DEPRECATED_SLOT",
        "offset": 0,
        "slot": "8",
        "type": "t_bytes32"
      }
    ],
    "types": {
      "t_address": {
        "encoding": "inplace",
        "label": "address",
        "numberOfBytes": "20"
      },
      "t_bytes32": {
        "encoding": "inplace",
        "label": "bytes32",
        "numberOfBytes": "32"
      },
      "t_mapping(t_address,t_mapping(t_address,t_uint256))": {
        "encoding": "mapping",
        "key": "t_address",
        "label": "mapping(address => mapping(address => uint256))",
        "numberOfBytes": "32",
        "value": "t_mapping(t_address,t_uint256)"
      },
      "t_mapping(t_address,t_struct(Counter)7169_storage)": {
        "encoding": "mapping",
        "key": "t_address",
        "label": "mapping(address => struct Counters.Counter)",
        "numberOfBytes": "32",
        "value": "t_struct(Counter)7169_storage"
      },
      "t_mapping(t_address,t_uint256)": {
        "encoding": "mapping",
        "key": "t_address",
        "label": "mapping(address => uint256)",
        "numberOfBytes": "32",
        "value": "t_uint256"
      },
      "t_string_storage": {
        "encoding": "bytes",
        "label": "string",
        "numberOfBytes": "32"
      },
      "t_struct(Counter)7169_storage": {
        "encoding": "inplace",
        "label": "struct Counters.Counter",
        "members": [
          {
            "astId": 7168,
            "contract": "contracts/StableCoin.sol:StableCoin",
            "label": "_value",
            "offset": 0,
            "slot": "0",
            "type": "t_uint256"
          }
        ],
        "numberOfBytes": "32"
      },
      "t_uint256": {
        "encoding": "inplace",
        "label": "uint256",
        "numberOfBytes": "32"
      }
    }
  }
}