{
  "address": "0x56343864296972A1573952dd9AD9fb59467442b6",
  "abi": [
    {
      "inputs": [],
      "stateMutability": "nonpayable",
      "type": "constructor"
    },
    {
      "inputs": [],
      "name": "InvalidShortString",
      "type": "error"
    },
    {
      "inputs": [
        {
          "internalType": "string",
          "name": "str",
          "type": "string"
        }
      ],
      "name": "StringTooLong",
      "type": "error"
    },
    {
      "anonymous": false,
      "inputs": [
        {
          "indexed": true,
          "internalType": "address",
          "name": "owner",
          "type": "address"
        },
        {
          "indexed": true,
          "internalType": "address",
          "name": "spender",
          "type": "address"
        },
        {
          "indexed": false,
          "internalType": "uint256",
          "name": "value",
          "type": "uint256"
        }
      ],
      "name": "Approval",
      "type": "event"
    },
    {
      "anonymous": false,
      "inputs": [],
      "name": "EIP712DomainChanged",
      "type": "event"
    },
    {
      "anonymous": false,
      "inputs": [
        {
          "indexed": true,
          "internalType": "address",
          "name": "from",
          "type": "address"
        },
        {
          "indexed": true,
          "internalType": "address",
          "name": "to",
          "type": "address"
        },
        {
          "indexed": false,
          "internalType": "uint256",
          "name": "value",
          "type": "uint256"
        }
      ],
      "name": "Transfer",
      "type": "event"
    },
    {
      "inputs": [],
      "name": "DOMAIN_SEPARATOR",
      "outputs": [
        {
          "internalType": "bytes32",
          "name": "",
          "type": "bytes32"
        }
      ],
      "stateMutability": "view",
      "type": "function"
    },
    {
      "inputs": [
        {
          "internalType": "address",
          "name": "owner",
          "type": "address"
        },
        {
          "internalType": "address",
          "name": "spender",
          "type": "address"
        }
      ],
      "name": "allowance",
      "outputs": [
        {
          "internalType": "uint256",
          "name": "",
          "type": "uint256"
        }
      ],
      "stateMutability": "view",
      "type": "function"
    },
    {
      "inputs": [
        {
          "internalType": "address",
          "name": "spender",
          "type": "address"
        },
        {
          "internalType": "uint256",
          "name": "amount",
          "type": "uint256"
        }
      ],
      "name": "approve",
      "outputs": [
        {
          "internalType": "bool",
          "name": "",
          "type": "bool"
        }
      ],
      "stateMutability": "nonpayable",
      "type": "function"
    },
    {
      "inputs": [
        {
          "internalType": "address",
          "name": "account",
          "type": "address"
        }
      ],
      "name": "balanceOf",
      "outputs": [
        {
          "internalType": "uint256",
          "name": "",
          "type": "uint256"
        }
      ],
      "stateMutability": "view",
      "type": "function"
    },
    {
      "inputs": [],
      "name": "decimals",
      "outputs": [
        {
          "internalType": "uint8",
          "name": "",
          "type": "uint8"
        }
      ],
      "stateMutability": "pure",
      "type": "function"
    },
    {
      "inputs": [
        {
          "internalType": "address",
          "name": "spender",
          "type": "address"
        },
        {
          "internalType": "uint256",
          "name": "subtractedValue",
          "type": "uint256"
        }
      ],
      "name": "decreaseAllowance",
      "outputs": [
        {
          "internalType": "bool",
          "name": "",
          "type": "bool"
        }
      ],
      "stateMutability": "nonpayable",
      "type": "function"
    },
    {
      "inputs": [],
      "name": "eip712Domain",
      "outputs": [
        {
          "internalType": "bytes1",
          "name": "fields",
          "type": "bytes1"
        },
        {
          "internalType": "string",
          "name": "name",
          "type": "string"
        },
        {
          "internalType": "string",
          "name": "version",
          "type": "string"
        },
        {
          "internalType": "uint256",
          "name": "chainId",
          "type": "uint256"
        },
        {
          "internalType": "address",
          "name": "verifyingContract",
          "type": "address"
        },
        {
          "internalType": "bytes32",
          "name": "salt",
          "type": "bytes32"
        },
        {
          "internalType": "uint256[]",
          "name": "extensions",
          "type": "uint256[]"
        }
      ],
      "stateMutability": "view",
      "type": "function"
    },
    {
      "inputs": [
        {
          "internalType": "address",
          "name": "spender",
          "type": "address"
        },
        {
          "internalType": "uint256",
          "name": "addedValue",
          "type": "uint256"
        }
      ],
      "name": "increaseAllowance",
      "outputs": [
        {
          "internalType": "bool",
          "name": "",
          "type": "bool"
        }
      ],
      "stateMutability": "nonpayable",
      "type": "function"
    },
    {
      "inputs": [
        {
          "internalType": "address",
          "name": "user",
          "type": "address"
        },
        {
          "internalType": "uint256",
          "name": "amount",
          "type": "uint256"
        }
      ],
      "name": "mintTo",
      "outputs": [],
      "stateMutability": "nonpayable",
      "type": "function"
    },
    {
      "inputs": [],
      "name": "name",
      "outputs": [
        {
          "internalType": "string",
          "name": "",
          "type": "string"
        }
      ],
      "stateMutability": "view",
      "type": "function"
    },
    {
      "inputs": [
        {
          "internalType": "address",
          "name": "owner",
          "type": "address"
        }
      ],
      "name": "nonces",
      "outputs": [
        {
          "internalType": "uint256",
          "name": "",
          "type": "uint256"
        }
      ],
      "stateMutability": "view",
      "type": "function"
    },
    {
      "inputs": [
        {
          "internalType": "address",
          "name": "owner",
          "type": "address"
        },
        {
          "internalType": "address",
          "name": "spender",
          "type": "address"
        },
        {
          "internalType": "uint256",
          "name": "value",
          "type": "uint256"
        },
        {
          "internalType": "uint256",
          "name": "deadline",
          "type": "uint256"
        },
        {
          "internalType": "uint8",
          "name": "v",
          "type": "uint8"
        },
        {
          "internalType": "bytes32",
          "name": "r",
          "type": "bytes32"
        },
        {
          "internalType": "bytes32",
          "name": "s",
          "type": "bytes32"
        }
      ],
      "name": "permit",
      "outputs": [],
      "stateMutability": "nonpayable",
      "type": "function"
    },
    {
      "inputs": [],
      "name": "symbol",
      "outputs": [
        {
          "internalType": "string",
          "name": "",
          "type": "string"
        }
      ],
      "stateMutability": "view",
      "type": "function"
    },
    {
      "inputs": [],
      "name": "totalSupply",
      "outputs": [
        {
          "internalType": "uint256",
          "name": "",
          "type": "uint256"
        }
      ],
      "stateMutability": "view",
      "type": "function"
    },
    {
      "inputs": [
        {
          "internalType": "address",
          "name": "to",
          "type": "address"
        },
        {
          "internalType": "uint256",
          "name": "amount",
          "type": "uint256"
        }
      ],
      "name": "transfer",
      "outputs": [
        {
          "internalType": "bool",
          "name": "",
          "type": "bool"
        }
      ],
      "stateMutability": "nonpayable",
      "type": "function"
    },
    {
      "inputs": [
        {
          "internalType": "address",
          "name": "from",
          "type": "address"
        },
        {
          "internalType": "address",
          "name": "to",
          "type": "address"
        },
        {
          "internalType": "uint256",
          "name": "amount",
          "type": "uint256"
        }
      ],
      "name": "transferFrom",
      "outputs": [
        {
          "internalType": "bool",
          "name": "",
          "type": "bool"
        }
      ],
      "stateMutability": "nonpayable",
      "type": "function"
    }
  ],
  "transactionHash": "0x538d775cbc5d49beafbb4db842a03a6efdc1164bf56a8c24e3c1ee8e1b35456e",
  "args": [],
  "numDeployments": 1,
  "solcInputHash": "29cf5cf25d0da621c8cbefab89a3a3cc",
  "bytecode": "0x6101606040523480156200001257600080fd5b506040518060400160405280601081526020017f5465737420537461626c6520436f696e00000000000000000000000000000000815250806040518060400160405280600181526020017f31000000000000000000000000000000000000000000000000000000000000008152506040518060400160405280601081526020017f5465737420537461626c6520436f696e000000000000000000000000000000008152506040518060400160405280600381526020017f54534300000000000000000000000000000000000000000000000000000000008152508160039081620000fd91906200073d565b5080600490816200010f91906200073d565b5050506200012d6005836200021260201b620009511790919060201c565b6101208181525050620001506006826200021260201b620009511790919060201c565b6101408181525050818051906020012060e08181525050808051906020012061010081815250504660a081815250506200018f6200026f60201b60201c565b608081815250503073ffffffffffffffffffffffffffffffffffffffff1660c08173ffffffffffffffffffffffffffffffffffffffff16815250505050506200020c33620001e2620002cc60201b60201c565b600a620001f09190620009b4565b6298968062000200919062000a05565b620002d560201b60201c565b62000d3d565b6000602083511015620002385762000230836200044260201b60201c565b905062000269565b826200024f83620004af60201b620009951760201c565b60000190816200026091906200073d565b5060ff60001b90505b92915050565b60007f8b73c3c69bb8fe3d512ecc4cf759cc79239f7b179b0ffacaa9a75d522b39400f60e051610100514630604051602001620002b195949392919062000ac1565b60405160208183030381529060405280519060200120905090565b60006006905090565b600073ffffffffffffffffffffffffffffffffffffffff168273ffffffffffffffffffffffffffffffffffffffff160362000347576040517f08c379a00000000000000000000000000000000000000000000000000000000081526004016200033e9062000b7f565b60405180910390fd5b6200035b60008383620004b960201b60201c565b80600260008282546200036f919062000ba1565b92505081905550806000808473ffffffffffffffffffffffffffffffffffffffff1673ffffffffffffffffffffffffffffffffffffffff168152602001908152602001600020600082825401925050819055508173ffffffffffffffffffffffffffffffffffffffff16600073ffffffffffffffffffffffffffffffffffffffff167fddf252ad1be2c89b69c2b068fc378daa952ba7f163c4a11628f55a4df523b3ef8360405162000422919062000bdc565b60405180910390a36200043e60008383620004be60201b60201c565b5050565b600080829050601f815111156200049257826040517f305a27a900000000000000000000000000000000000000000000000000000000815260040162000489919062000c77565b60405180910390fd5b805181620004a09062000ccd565b60001c1760001b915050919050565b6000819050919050565b505050565b505050565b600081519050919050565b7f4e487b7100000000000000000000000000000000000000000000000000000000600052604160045260246000fd5b7f4e487b7100000000000000000000000000000000000000000000000000000000600052602260045260246000fd5b600060028204905060018216806200054557607f821691505b6020821081036200055b576200055a620004fd565b5b50919050565b60008190508160005260206000209050919050565b60006020601f8301049050919050565b600082821b905092915050565b600060088302620005c57fffffffffffffffffffffffffffffffffffffffffffffffffffffffffffffffff8262000586565b620005d1868362000586565b95508019841693508086168417925050509392505050565b6000819050919050565b6000819050919050565b60006200061e620006186200061284620005e9565b620005f3565b620005e9565b9050919050565b6000819050919050565b6200063a83620005fd565b62000652620006498262000625565b84845462000593565b825550505050565b600090565b620006696200065a565b620006768184846200062f565b505050565b5b818110156200069e57620006926000826200065f565b6001810190506200067c565b5050565b601f821115620006ed57620006b78162000561565b620006c28462000576565b81016020851015620006d2578190505b620006ea620006e18562000576565b8301826200067b565b50505b505050565b600082821c905092915050565b60006200071260001984600802620006f2565b1980831691505092915050565b60006200072d8383620006ff565b9150826002028217905092915050565b6200074882620004c3565b67ffffffffffffffff811115620007645762000763620004ce565b5b6200077082546200052c565b6200077d828285620006a2565b600060209050601f831160018114620007b55760008415620007a0578287015190505b620007ac85826200071f565b8655506200081c565b601f198416620007c58662000561565b60005b82811015620007ef57848901518255600182019150602085019450602081019050620007c8565b868310156200080f57848901516200080b601f891682620006ff565b8355505b6001600288020188555050505b505050505050565b7f4e487b7100000000000000000000000000000000000000000000000000000000600052601160045260246000fd5b60008160011c9050919050565b6000808291508390505b6001851115620008b2578086048111156200088a576200088962000824565b5b60018516156200089a5780820291505b8081029050620008aa8562000853565b94506200086a565b94509492505050565b600082620008cd5760019050620009a0565b81620008dd5760009050620009a0565b8160018114620008f65760028114620009015762000937565b6001915050620009a0565b60ff84111562000916576200091562000824565b5b8360020a91508482111562000930576200092f62000824565b5b50620009a0565b5060208310610133831016604e8410600b8410161715620009715782820a9050838111156200096b576200096a62000824565b5b620009a0565b62000980848484600162000860565b925090508184048111156200099a576200099962000824565b5b81810290505b9392505050565b600060ff82169050919050565b6000620009c182620005e9565b9150620009ce83620009a7565b9250620009fd7fffffffffffffffffffffffffffffffffffffffffffffffffffffffffffffffff8484620008bb565b905092915050565b600062000a1282620005e9565b915062000a1f83620005e9565b925082820262000a2f81620005e9565b9150828204841483151762000a495762000a4862000824565b5b5092915050565b6000819050919050565b62000a658162000a50565b82525050565b62000a7681620005e9565b82525050565b600073ffffffffffffffffffffffffffffffffffffffff82169050919050565b600062000aa98262000a7c565b9050919050565b62000abb8162000a9c565b82525050565b600060a08201905062000ad8600083018862000a5a565b62000ae7602083018762000a5a565b62000af6604083018662000a5a565b62000b05606083018562000a6b565b62000b14608083018462000ab0565b9695505050505050565b600082825260208201905092915050565b7f45524332303a206d696e7420746f20746865207a65726f206164647265737300600082015250565b600062000b67601f8362000b1e565b915062000b748262000b2f565b602082019050919050565b6000602082019050818103600083015262000b9a8162000b58565b9050919050565b600062000bae82620005e9565b915062000bbb83620005e9565b925082820190508082111562000bd65762000bd562000824565b5b92915050565b600060208201905062000bf3600083018462000a6b565b92915050565b60005b8381101562000c1957808201518184015260208101905062000bfc565b60008484015250505050565b6000601f19601f8301169050919050565b600062000c4382620004c3565b62000c4f818562000b1e565b935062000c6181856020860162000bf9565b62000c6c8162000c25565b840191505092915050565b6000602082019050818103600083015262000c93818462000c36565b905092915050565b600081519050919050565b6000819050602082019050919050565b600062000cc4825162000a50565b80915050919050565b600062000cda8262000c9b565b8262000ce68462000ca6565b905062000cf38162000cb6565b9250602082101562000d365762000d317fffffffffffffffffffffffffffffffffffffffffffffffffffffffffffffffff8360200360080262000586565b831692505b5050919050565b60805160a05160c05160e0516101005161012051610140516127d262000d9860003960006105a10152600061056d015260006112980152600061127701526000610e7601526000610ecc01526000610ef501526127d26000f3fe608060405234801561001057600080fd5b50600436106101005760003560e01c806370a0823111610097578063a457c2d711610066578063a457c2d7146102cb578063a9059cbb146102fb578063d505accf1461032b578063dd62ed3e1461034757610100565b806370a08231146102295780637ecebe001461025957806384b0196e1461028957806395d89b41146102ad57610100565b8063313ce567116100d3578063313ce567146101a15780633644e515146101bf57806339509351146101dd578063449a52f81461020d57610100565b806306fdde0314610105578063095ea7b31461012357806318160ddd1461015357806323b872dd14610171575b600080fd5b61010d610377565b60405161011a91906116db565b60405180910390f35b61013d60048036038101906101389190611796565b610409565b60405161014a91906117f1565b60405180910390f35b61015b61042c565b604051610168919061181b565b60405180910390f35b61018b60048036038101906101869190611836565b610436565b60405161019891906117f1565b60405180910390f35b6101a9610465565b6040516101b691906118a5565b60405180910390f35b6101c761046e565b6040516101d491906118d9565b60405180910390f35b6101f760048036038101906101f29190611796565b61047d565b60405161020491906117f1565b60405180910390f35b61022760048036038101906102229190611796565b6104b4565b005b610243600480360381019061023e91906118f4565b6104c2565b604051610250919061181b565b60405180910390f35b610273600480360381019061026e91906118f4565b61050a565b604051610280919061181b565b60405180910390f35b61029161055a565b6040516102a49796959493929190611a29565b60405180910390f35b6102b561065c565b6040516102c291906116db565b60405180910390f35b6102e560048036038101906102e09190611796565b6106ee565b6040516102f291906117f1565b60405180910390f35b61031560048036038101906103109190611796565b610765565b60405161032291906117f1565b60405180910390f35b61034560048036038101906103409190611b05565b610788565b005b610361600480360381019061035c9190611ba7565b6108ca565b60405161036e919061181b565b60405180910390f35b60606003805461038690611c16565b80601f01602080910402602001604051908101604052809291908181526020018280546103b290611c16565b80156103ff5780601f106103d4576101008083540402835291602001916103ff565b820191906000526020600020905b8154815290600101906020018083116103e257829003601f168201915b5050505050905090565b60008061041461099f565b90506104218185856109a7565b600191505092915050565b6000600254905090565b60008061044161099f565b905061044e858285610b70565b610459858585610bfc565b60019150509392505050565b60006006905090565b6000610478610e72565b905090565b60008061048861099f565b90506104a981858561049a85896108ca565b6104a49190611c76565b6109a7565b600191505092915050565b6104be8282610f29565b5050565b60008060008373ffffffffffffffffffffffffffffffffffffffff1673ffffffffffffffffffffffffffffffffffffffff168152602001908152602001600020549050919050565b6000610553600760008473ffffffffffffffffffffffffffffffffffffffff1673ffffffffffffffffffffffffffffffffffffffff16815260200190815260200160002061107f565b9050919050565b60006060806000806000606061059a60057f000000000000000000000000000000000000000000000000000000000000000061108d90919063ffffffff16565b6105ce60067f000000000000000000000000000000000000000000000000000000000000000061108d90919063ffffffff16565b46306000801b600067ffffffffffffffff8111156105ef576105ee611caa565b5b60405190808252806020026020018201604052801561061d5781602001602082028036833780820191505090505b507f0f00000000000000000000000000000000000000000000000000000000000000959493929190965096509650965096509650965090919293949596565b60606004805461066b90611c16565b80601f016020809104026020016040519081016040528092919081815260200182805461069790611c16565b80156106e45780601f106106b9576101008083540402835291602001916106e4565b820191906000526020600020905b8154815290600101906020018083116106c757829003601f168201915b5050505050905090565b6000806106f961099f565b9050600061070782866108ca565b90508381101561074c576040517f08c379a000000000000000000000000000000000000000000000000000000000815260040161074390611d4b565b60405180910390fd5b61075982868684036109a7565b60019250505092915050565b60008061077061099f565b905061077d818585610bfc565b600191505092915050565b834211156107cb576040517f08c379a00000000000000000000000000000000000000000000000000000000081526004016107c290611db7565b60405180910390fd5b60007f6e71edae12b1b97f4d1f60370fef10105fa2faae0126114a169c64845d6126c98888886107fa8c61113d565b8960405160200161081096959493929190611dd7565b60405160208183030381529060405280519060200120905060006108338261119b565b90506000610843828787876111b5565b90508973ffffffffffffffffffffffffffffffffffffffff168173ffffffffffffffffffffffffffffffffffffffff16146108b3576040517f08c379a00000000000000000000000000000000000000000000000000000000081526004016108aa90611e84565b60405180910390fd5b6108be8a8a8a6109a7565b50505050505050505050565b6000600160008473ffffffffffffffffffffffffffffffffffffffff1673ffffffffffffffffffffffffffffffffffffffff16815260200190815260200160002060008373ffffffffffffffffffffffffffffffffffffffff1673ffffffffffffffffffffffffffffffffffffffff16815260200190815260200160002054905092915050565b600060208351101561096d57610966836111e0565b905061098f565b8261097783610995565b60000190816109869190612050565b5060ff60001b90505b92915050565b6000819050919050565b600033905090565b600073ffffffffffffffffffffffffffffffffffffffff168373ffffffffffffffffffffffffffffffffffffffff1603610a16576040517f08c379a0000000000000000000000000000000000000000000000000000000008152600401610a0d90612194565b60405180910390fd5b600073ffffffffffffffffffffffffffffffffffffffff168273ffffffffffffffffffffffffffffffffffffffff1603610a85576040517f08c379a0000000000000000000000000000000000000000000000000000000008152600401610a7c90612226565b60405180910390fd5b80600160008573ffffffffffffffffffffffffffffffffffffffff1673ffffffffffffffffffffffffffffffffffffffff16815260200190815260200160002060008473ffffffffffffffffffffffffffffffffffffffff1673ffffffffffffffffffffffffffffffffffffffff168152602001908152602001600020819055508173ffffffffffffffffffffffffffffffffffffffff168373ffffffffffffffffffffffffffffffffffffffff167f8c5be1e5ebec7d5bd14f71427d1e84f3dd0314c0f7b2291e5b200ac8c7c3b92583604051610b63919061181b565b60405180910390a3505050565b6000610b7c84846108ca565b90507fffffffffffffffffffffffffffffffffffffffffffffffffffffffffffffffff8114610bf65781811015610be8576040517f08c379a0000000000000000000000000000000000000000000000000000000008152600401610bdf90612292565b60405180910390fd5b610bf584848484036109a7565b5b50505050565b600073ffffffffffffffffffffffffffffffffffffffff168373ffffffffffffffffffffffffffffffffffffffff1603610c6b576040517f08c379a0000000000000000000000000000000000000000000000000000000008152600401610c6290612324565b60405180910390fd5b600073ffffffffffffffffffffffffffffffffffffffff168273ffffffffffffffffffffffffffffffffffffffff1603610cda576040517f08c379a0000000000000000000000000000000000000000000000000000000008152600401610cd1906123b6565b60405180910390fd5b610ce5838383611248565b60008060008573ffffffffffffffffffffffffffffffffffffffff1673ffffffffffffffffffffffffffffffffffffffff16815260200190815260200160002054905081811015610d6b576040517f08c379a0000000000000000000000000000000000000000000000000000000008152600401610d6290612448565b60405180910390fd5b8181036000808673ffffffffffffffffffffffffffffffffffffffff1673ffffffffffffffffffffffffffffffffffffffff16815260200190815260200160002081905550816000808573ffffffffffffffffffffffffffffffffffffffff1673ffffffffffffffffffffffffffffffffffffffff168152602001908152602001600020600082825401925050819055508273ffffffffffffffffffffffffffffffffffffffff168473ffffffffffffffffffffffffffffffffffffffff167fddf252ad1be2c89b69c2b068fc378daa952ba7f163c4a11628f55a4df523b3ef84604051610e59919061181b565b60405180910390a3610e6c84848461124d565b50505050565b60007f000000000000000000000000000000000000000000000000000000000000000073ffffffffffffffffffffffffffffffffffffffff163073ffffffffffffffffffffffffffffffffffffffff16148015610eee57507f000000000000000000000000000000000000000000000000000000000000000046145b15610f1b577f00000000000000000000000000000000000000000000000000000000000000009050610f26565b610f23611252565b90505b90565b600073ffffffffffffffffffffffffffffffffffffffff168273ffffffffffffffffffffffffffffffffffffffff1603610f98576040517f08c379a0000000000000000000000000000000000000000000000000000000008152600401610f8f906124b4565b60405180910390fd5b610fa460008383611248565b8060026000828254610fb69190611c76565b92505081905550806000808473ffffffffffffffffffffffffffffffffffffffff1673ffffffffffffffffffffffffffffffffffffffff168152602001908152602001600020600082825401925050819055508173ffffffffffffffffffffffffffffffffffffffff16600073ffffffffffffffffffffffffffffffffffffffff167fddf252ad1be2c89b69c2b068fc378daa952ba7f163c4a11628f55a4df523b3ef83604051611067919061181b565b60405180910390a361107b6000838361124d565b5050565b600081600001549050919050565b606060ff60001b83146110aa576110a3836112e8565b9050611137565b8180546110b690611c16565b80601f01602080910402602001604051908101604052809291908181526020018280546110e290611c16565b801561112f5780601f106111045761010080835404028352916020019161112f565b820191906000526020600020905b81548152906001019060200180831161111257829003601f168201915b505050505090505b92915050565b600080600760008473ffffffffffffffffffffffffffffffffffffffff1673ffffffffffffffffffffffffffffffffffffffff168152602001908152602001600020905061118a8161107f565b91506111958161135c565b50919050565b60006111ae6111a8610e72565b83611372565b9050919050565b60008060006111c6878787876113b3565b915091506111d381611495565b8192505050949350505050565b600080829050601f8151111561122d57826040517f305a27a900000000000000000000000000000000000000000000000000000000815260040161122491906116db565b60405180910390fd5b80518161123990612504565b60001c1760001b915050919050565b505050565b505050565b60007f8b73c3c69bb8fe3d512ecc4cf759cc79239f7b179b0ffacaa9a75d522b39400f7f00000000000000000000000000000000000000000000000000000000000000007f000000000000000000000000000000000000000000000000000000000000000046306040516020016112cd95949392919061256b565b60405160208183030381529060405280519060200120905090565b606060006112f5836115fb565b90506000602067ffffffffffffffff81111561131457611313611caa565b5b6040519080825280601f01601f1916602001820160405280156113465781602001600182028036833780820191505090505b5090508181528360208201528092505050919050565b6001816000016000828254019250508190555050565b60006040517f190100000000000000000000000000000000000000000000000000000000000081528360028201528260228201526042812091505092915050565b6000807f7fffffffffffffffffffffffffffffff5d576e7357a4501ddfe92f46681b20a08360001c11156113ee57600060039150915061148c565b60006001878787876040516000815260200160405260405161141394939291906125be565b6020604051602081039080840390855afa158015611435573d6000803e3d6000fd5b505050602060405103519050600073ffffffffffffffffffffffffffffffffffffffff168173ffffffffffffffffffffffffffffffffffffffff16036114835760006001925092505061148c565b80600092509250505b94509492505050565b600060048111156114a9576114a8612603565b5b8160048111156114bc576114bb612603565b5b03156115f857600160048111156114d6576114d5612603565b5b8160048111156114e9576114e8612603565b5b03611529576040517f08c379a00000000000000000000000000000000000000000000000000000000081526004016115209061267e565b60405180910390fd5b6002600481111561153d5761153c612603565b5b8160048111156115505761154f612603565b5b03611590576040517f08c379a0000000000000000000000000000000000000000000000000000000008152600401611587906126ea565b60405180910390fd5b600360048111156115a4576115a3612603565b5b8160048111156115b7576115b6612603565b5b036115f7576040517f08c379a00000000000000000000000000000000000000000000000000000000081526004016115ee9061277c565b60405180910390fd5b5b50565b60008060ff8360001c169050601f811115611642576040517fb3512b0c00000000000000000000000000000000000000000000000000000000815260040160405180910390fd5b80915050919050565b600081519050919050565b600082825260208201905092915050565b60005b8381101561168557808201518184015260208101905061166a565b60008484015250505050565b6000601f19601f8301169050919050565b60006116ad8261164b565b6116b78185611656565b93506116c7818560208601611667565b6116d081611691565b840191505092915050565b600060208201905081810360008301526116f581846116a2565b905092915050565b600080fd5b600073ffffffffffffffffffffffffffffffffffffffff82169050919050565b600061172d82611702565b9050919050565b61173d81611722565b811461174857600080fd5b50565b60008135905061175a81611734565b92915050565b6000819050919050565b61177381611760565b811461177e57600080fd5b50565b6000813590506117908161176a565b92915050565b600080604083850312156117ad576117ac6116fd565b5b60006117bb8582860161174b565b92505060206117cc85828601611781565b9150509250929050565b60008115159050919050565b6117eb816117d6565b82525050565b600060208201905061180660008301846117e2565b92915050565b61181581611760565b82525050565b6000602082019050611830600083018461180c565b92915050565b60008060006060848603121561184f5761184e6116fd565b5b600061185d8682870161174b565b935050602061186e8682870161174b565b925050604061187f86828701611781565b9150509250925092565b600060ff82169050919050565b61189f81611889565b82525050565b60006020820190506118ba6000830184611896565b92915050565b6000819050919050565b6118d3816118c0565b82525050565b60006020820190506118ee60008301846118ca565b92915050565b60006020828403121561190a576119096116fd565b5b60006119188482850161174b565b91505092915050565b60007fff0000000000000000000000000000000000000000000000000000000000000082169050919050565b61195681611921565b82525050565b61196581611722565b82525050565b600081519050919050565b600082825260208201905092915050565b6000819050602082019050919050565b6119a081611760565b82525050565b60006119b28383611997565b60208301905092915050565b6000602082019050919050565b60006119d68261196b565b6119e08185611976565b93506119eb83611987565b8060005b83811015611a1c578151611a0388826119a6565b9750611a0e836119be565b9250506001810190506119ef565b5085935050505092915050565b600060e082019050611a3e600083018a61194d565b8181036020830152611a5081896116a2565b90508181036040830152611a6481886116a2565b9050611a73606083018761180c565b611a80608083018661195c565b611a8d60a08301856118ca565b81810360c0830152611a9f81846119cb565b905098975050505050505050565b611ab681611889565b8114611ac157600080fd5b50565b600081359050611ad381611aad565b92915050565b611ae2816118c0565b8114611aed57600080fd5b50565b600081359050611aff81611ad9565b92915050565b600080600080600080600060e0888a031215611b2457611b236116fd565b5b6000611b328a828b0161174b565b9750506020611b438a828b0161174b565b9650506040611b548a828b01611781565b9550506060611b658a828b01611781565b9450506080611b768a828b01611ac4565b93505060a0611b878a828b01611af0565b92505060c0611b988a828b01611af0565b91505092959891949750929550565b60008060408385031215611bbe57611bbd6116fd565b5b6000611bcc8582860161174b565b9250506020611bdd8582860161174b565b9150509250929050565b7f4e487b7100000000000000000000000000000000000000000000000000000000600052602260045260246000fd5b60006002820490506001821680611c2e57607f821691505b602082108103611c4157611c40611be7565b5b50919050565b7f4e487b7100000000000000000000000000000000000000000000000000000000600052601160045260246000fd5b6000611c8182611760565b9150611c8c83611760565b9250828201905080821115611ca457611ca3611c47565b5b92915050565b7f4e487b7100000000000000000000000000000000000000000000000000000000600052604160045260246000fd5b7f45524332303a2064656372656173656420616c6c6f77616e63652062656c6f7760008201527f207a65726f000000000000000000000000000000000000000000000000000000602082015250565b6000611d35602583611656565b9150611d4082611cd9565b604082019050919050565b60006020820190508181036000830152611d6481611d28565b9050919050565b7f45524332305065726d69743a206578706972656420646561646c696e65000000600082015250565b6000611da1601d83611656565b9150611dac82611d6b565b602082019050919050565b60006020820190508181036000830152611dd081611d94565b9050919050565b600060c082019050611dec60008301896118ca565b611df9602083018861195c565b611e06604083018761195c565b611e13606083018661180c565b611e20608083018561180c565b611e2d60a083018461180c565b979650505050505050565b7f45524332305065726d69743a20696e76616c6964207369676e61747572650000600082015250565b6000611e6e601e83611656565b9150611e7982611e38565b602082019050919050565b60006020820190508181036000830152611e9d81611e61565b9050919050565b60008190508160005260206000209050919050565b60006020601f8301049050919050565b600082821b905092915050565b600060088302611f067fffffffffffffffffffffffffffffffffffffffffffffffffffffffffffffffff82611ec9565b611f108683611ec9565b95508019841693508086168417925050509392505050565b6000819050919050565b6000611f4d611f48611f4384611760565b611f28565b611760565b9050919050565b6000819050919050565b611f6783611f32565b611f7b611f7382611f54565b848454611ed6565b825550505050565b600090565b611f90611f83565b611f9b818484611f5e565b505050565b5b81811015611fbf57611fb4600082611f88565b600181019050611fa1565b5050565b601f82111561200457611fd581611ea4565b611fde84611eb9565b81016020851015611fed578190505b612001611ff985611eb9565b830182611fa0565b50505b505050565b600082821c905092915050565b600061202760001984600802612009565b1980831691505092915050565b60006120408383612016565b9150826002028217905092915050565b6120598261164b565b67ffffffffffffffff81111561207257612071611caa565b5b61207c8254611c16565b612087828285611fc3565b600060209050601f8311600181146120ba57600084156120a8578287015190505b6120b28582612034565b86555061211a565b601f1984166120c886611ea4565b60005b828110156120f0578489015182556001820191506020850194506020810190506120cb565b8683101561210d5784890151612109601f891682612016565b8355505b6001600288020188555050505b505050505050565b7f45524332303a20617070726f76652066726f6d20746865207a65726f2061646460008201527f7265737300000000000000000000000000000000000000000000000000000000602082015250565b600061217e602483611656565b915061218982612122565b604082019050919050565b600060208201905081810360008301526121ad81612171565b9050919050565b7f45524332303a20617070726f766520746f20746865207a65726f20616464726560008201527f7373000000000000000000000000000000000000000000000000000000000000602082015250565b6000612210602283611656565b915061221b826121b4565b604082019050919050565b6000602082019050818103600083015261223f81612203565b9050919050565b7f45524332303a20696e73756666696369656e7420616c6c6f77616e6365000000600082015250565b600061227c601d83611656565b915061228782612246565b602082019050919050565b600060208201905081810360008301526122ab8161226f565b9050919050565b7f45524332303a207472616e736665722066726f6d20746865207a65726f20616460008201527f6472657373000000000000000000000000000000000000000000000000000000602082015250565b600061230e602583611656565b9150612319826122b2565b604082019050919050565b6000602082019050818103600083015261233d81612301565b9050919050565b7f45524332303a207472616e7366657220746f20746865207a65726f206164647260008201527f6573730000000000000000000000000000000000000000000000000000000000602082015250565b60006123a0602383611656565b91506123ab82612344565b604082019050919050565b600060208201905081810360008301526123cf81612393565b9050919050565b7f45524332303a207472616e7366657220616d6f756e742065786365656473206260008201527f616c616e63650000000000000000000000000000000000000000000000000000602082015250565b6000612432602683611656565b915061243d826123d6565b604082019050919050565b6000602082019050818103600083015261246181612425565b9050919050565b7f45524332303a206d696e7420746f20746865207a65726f206164647265737300600082015250565b600061249e601f83611656565b91506124a982612468565b602082019050919050565b600060208201905081810360008301526124cd81612491565b9050919050565b600081519050919050565b6000819050602082019050919050565b60006124fb82516118c0565b80915050919050565b600061250f826124d4565b82612519846124df565b9050612524816124ef565b925060208210156125645761255f7fffffffffffffffffffffffffffffffffffffffffffffffffffffffffffffffff83602003600802611ec9565b831692505b5050919050565b600060a08201905061258060008301886118ca565b61258d60208301876118ca565b61259a60408301866118ca565b6125a7606083018561180c565b6125b4608083018461195c565b9695505050505050565b60006080820190506125d360008301876118ca565b6125e06020830186611896565b6125ed60408301856118ca565b6125fa60608301846118ca565b95945050505050565b7f4e487b7100000000000000000000000000000000000000000000000000000000600052602160045260246000fd5b7f45434453413a20696e76616c6964207369676e61747572650000000000000000600082015250565b6000612668601883611656565b915061267382612632565b602082019050919050565b600060208201905081810360008301526126978161265b565b9050919050565b7f45434453413a20696e76616c6964207369676e6174757265206c656e67746800600082015250565b60006126d4601f83611656565b91506126df8261269e565b602082019050919050565b60006020820190508181036000830152612703816126c7565b9050919050565b7f45434453413a20696e76616c6964207369676e6174757265202773272076616c60008201527f7565000000000000000000000000000000000000000000000000000000000000602082015250565b6000612766602283611656565b91506127718261270a565b604082019050919050565b6000602082019050818103600083015261279581612759565b905091905056fea2646970667358221220637afcbdd2ee140c8b8e90b4d5e5391bffb6841d6b80944f49cc561b7863bb1c64736f6c63430008120033",
  "devdoc": {
    "events": {
      "Approval(address,address,uint256)": {
        "details": "Emitted when the allowance of a `spender` for an `owner` is set by a call to {approve}. `value` is the new allowance."
      },
      "EIP712DomainChanged()": {
        "details": "MAY be emitted to signal that the domain could have changed."
      },
      "Transfer(address,address,uint256)": {
        "details": "Emitted when `value` tokens are moved from one account (`from`) to another (`to`). Note that `value` may be zero."
      }
    },
    "kind": "dev",
    "methods": {
      "DOMAIN_SEPARATOR()": {
        "details": "Returns the domain separator used in the encoding of the signature for {permit}, as defined by {EIP712}."
      },
      "allowance(address,address)": {
        "details": "See {IERC20-allowance}."
      },
      "approve(address,uint256)": {
        "details": "See {IERC20-approve}. NOTE: If `amount` is the maximum `uint256`, the allowance is not updated on `transferFrom`. This is semantically equivalent to an infinite approval. Requirements: - `spender` cannot be the zero address."
      },
      "balanceOf(address)": {
        "details": "See {IERC20-balanceOf}."
      },
      "decimals()": {
        "details": "Returns the number of decimals used to get its user representation. For example, if `decimals` equals `2`, a balance of `505` tokens should be displayed to a user as `5.05` (`505 / 10 ** 2`). Tokens usually opt for a value of 18, imitating the relationship between Ether and Wei. This is the default value returned by this function, unless it's overridden. NOTE: This information is only used for _display_ purposes: it in no way affects any of the arithmetic of the contract, including {IERC20-balanceOf} and {IERC20-transfer}."
      },
      "decreaseAllowance(address,uint256)": {
        "details": "Atomically decreases the allowance granted to `spender` by the caller. This is an alternative to {approve} that can be used as a mitigation for problems described in {IERC20-approve}. Emits an {Approval} event indicating the updated allowance. Requirements: - `spender` cannot be the zero address. - `spender` must have allowance for the caller of at least `subtractedValue`."
      },
      "eip712Domain()": {
        "details": "See {EIP-5267}. _Available since v4.9._"
      },
      "increaseAllowance(address,uint256)": {
        "details": "Atomically increases the allowance granted to `spender` by the caller. This is an alternative to {approve} that can be used as a mitigation for problems described in {IERC20-approve}. Emits an {Approval} event indicating the updated allowance. Requirements: - `spender` cannot be the zero address."
      },
      "name()": {
        "details": "Returns the name of the token."
      },
      "nonces(address)": {
        "details": "Returns the current nonce for `owner`. This value must be included whenever a signature is generated for {permit}. Every successful call to {permit} increases ``owner``'s nonce by one. This prevents a signature from being used multiple times."
      },
      "permit(address,address,uint256,uint256,uint8,bytes32,bytes32)": {
        "details": "Sets `value` as the allowance of `spender` over ``owner``'s tokens, given ``owner``'s signed approval. IMPORTANT: The same issues {IERC20-approve} has related to transaction ordering also apply here. Emits an {Approval} event. Requirements: - `spender` cannot be the zero address. - `deadline` must be a timestamp in the future. - `v`, `r` and `s` must be a valid `secp256k1` signature from `owner` over the EIP712-formatted function arguments. - the signature must use ``owner``'s current nonce (see {nonces}). For more information on the signature format, see the https://eips.ethereum.org/EIPS/eip-2612#specification[relevant EIP section]. CAUTION: See Security Considerations above."
      },
      "symbol()": {
        "details": "Returns the symbol of the token, usually a shorter version of the name."
      },
      "totalSupply()": {
        "details": "See {IERC20-totalSupply}."
      },
      "transfer(address,uint256)": {
        "details": "See {IERC20-transfer}. Requirements: - `to` cannot be the zero address. - the caller must have a balance of at least `amount`."
      },
      "transferFrom(address,address,uint256)": {
        "details": "See {IERC20-transferFrom}. Emits an {Approval} event indicating the updated allowance. This is not required by the EIP. See the note at the beginning of {ERC20}. NOTE: Does not update the allowance if the current allowance is the maximum `uint256`. Requirements: - `from` and `to` cannot be the zero address. - `from` must have a balance of at least `amount`. - the caller must have allowance for ``from``'s tokens of at least `amount`."
      }
    },
    "version": 1
  },
  "userdoc": {
    "kind": "user",
    "methods": {},
    "version": 1
  },
  "storageLayout": {
    "storage": [
      {
        "astId": 5386,
        "contract": "contracts/StableCoin.sol:StableCoin",
        "label": "_balances",
        "offset": 0,
        "slot": "0",
        "type": "t_mapping(t_address,t_uint256)"
      },
      {
        "astId": 5392,
        "contract": "contracts/StableCoin.sol:StableCoin",
        "label": "_allowances",
        "offset": 0,
        "slot": "1",
        "type": "t_mapping(t_address,t_mapping(t_address,t_uint256))"
      },
      {
        "astId": 5394,
        "contract": "contracts/StableCoin.sol:StableCoin",
        "label": "_totalSupply",
        "offset": 0,
        "slot": "2",
        "type": "t_uint256"
      },
      {
        "astId": 5396,
        "contract": "contracts/StableCoin.sol:StableCoin",
        "label": "_name",
        "offset": 0,
        "slot": "3",
        "type": "t_string_storage"
      },
      {
        "astId": 5398,
        "contract": "contracts/StableCoin.sol:StableCoin",
        "label": "_symbol",
        "offset": 0,
        "slot": "4",
        "type": "t_string_storage"
      },
      {
        "astId": 7775,
        "contract": "contracts/StableCoin.sol:StableCoin",
        "label": "_nameFallback",
        "offset": 0,
        "slot": "5",
        "type": "t_string_storage"
      },
      {
        "astId": 7777,
        "contract": "contracts/StableCoin.sol:StableCoin",
        "label": "_versionFallback",
        "offset": 0,
        "slot": "6",
        "type": "t_string_storage"
      },
      {
        "astId": 6058,
        "contract": "contracts/StableCoin.sol:StableCoin",
        "label": "_nonces",
        "offset": 0,
        "slot": "7",
        "type": "t_mapping(t_address,t_struct(Counter)6672_storage)"
      },
      {
        "astId": 6066,
        "contract": "contracts/StableCoin.sol:StableCoin",
        "label": "_PERMIT_TYPEHASH_DEPRECATED_SLOT",
        "offset": 0,
        "slot": "8",
        "type": "t_bytes32"
      }
    ],
    "types": {
      "t_address": {
        "encoding": "inplace",
        "label": "address",
        "numberOfBytes": "20"
      },
      "t_bytes32": {
        "encoding": "inplace",
        "label": "bytes32",
        "numberOfBytes": "32"
      },
      "t_mapping(t_address,t_mapping(t_address,t_uint256))": {
        "encoding": "mapping",
        "key": "t_address",
        "label": "mapping(address => mapping(address => uint256))",
        "numberOfBytes": "32",
        "value": "t_mapping(t_address,t_uint256)"
      },
      "t_mapping(t_address,t_struct(Counter)6672_storage)": {
        "encoding": "mapping",
        "key": "t_address",
        "label": "mapping(address => struct Counters.Counter)",
        "numberOfBytes": "32",
        "value": "t_struct(Counter)6672_storage"
      },
      "t_mapping(t_address,t_uint256)": {
        "encoding": "mapping",
        "key": "t_address",
        "label": "mapping(address => uint256)",
        "numberOfBytes": "32",
        "value": "t_uint256"
      },
      "t_string_storage": {
        "encoding": "bytes",
        "label": "string",
        "numberOfBytes": "32"
      },
      "t_struct(Counter)6672_storage": {
        "encoding": "inplace",
        "label": "struct Counters.Counter",
        "members": [
          {
            "astId": 6671,
            "contract": "contracts/StableCoin.sol:StableCoin",
            "label": "_value",
            "offset": 0,
            "slot": "0",
            "type": "t_uint256"
          }
        ],
        "numberOfBytes": "32"
      },
      "t_uint256": {
        "encoding": "inplace",
        "label": "uint256",
        "numberOfBytes": "32"
      }
    }
  }
}